{
  "contractName": "EnergyLogger",
  "abi": [
    {
      "inputs": [
        {
          "internalType": "address",
          "name": "_certificateContract",
          "type": "address"
        }
      ],
      "stateMutability": "nonpayable",
      "type": "constructor"
    },
    {
      "anonymous": false,
      "inputs": [
        {
          "indexed": true,
          "internalType": "address",
          "name": "user",
          "type": "address"
        },
        {
          "indexed": false,
          "internalType": "uint256",
          "name": "amount",
          "type": "uint256"
        },
        {
          "indexed": false,
          "internalType": "uint256",
          "name": "timestamp",
          "type": "uint256"
        }
      ],
      "name": "ConsumptionLogged",
      "type": "event"
    },
    {
      "anonymous": false,
      "inputs": [
        {
          "indexed": true,
          "internalType": "address",
          "name": "user",
          "type": "address"
        },
        {
          "indexed": false,
          "internalType": "uint256",
          "name": "amount",
          "type": "uint256"
        },
        {
          "indexed": false,
          "internalType": "string",
          "name": "source",
          "type": "string"
        },
        {
          "indexed": false,
          "internalType": "uint256",
          "name": "timestamp",
          "type": "uint256"
        }
      ],
      "name": "ProductionLogged",
      "type": "event"
    },
    {
      "anonymous": false,
      "inputs": [
        {
          "indexed": true,
          "internalType": "address",
          "name": "verifier",
          "type": "address"
        },
        {
          "indexed": true,
          "internalType": "address",
          "name": "user",
          "type": "address"
        },
        {
          "indexed": false,
          "internalType": "uint256",
          "name": "readingIndex",
          "type": "uint256"
        },
        {
          "indexed": false,
          "internalType": "bool",
          "name": "isProduction",
          "type": "bool"
        }
      ],
      "name": "ReadingVerified",
      "type": "event"
    },
    {
      "anonymous": false,
      "inputs": [
        {
          "indexed": true,
          "internalType": "address",
          "name": "user",
          "type": "address"
        },
        {
          "indexed": false,
          "internalType": "string",
          "name": "region",
          "type": "string"
        }
      ],
      "name": "UserRegistered",
      "type": "event"
    },
    {
      "anonymous": false,
      "inputs": [
        {
          "indexed": true,
          "internalType": "address",
          "name": "verifier",
          "type": "address"
        }
      ],
      "name": "VerifierAdded",
      "type": "event"
    },
    {
      "anonymous": false,
      "inputs": [
        {
          "indexed": true,
          "internalType": "address",
          "name": "verifier",
          "type": "address"
        }
      ],
      "name": "VerifierRemoved",
      "type": "event"
    },
    {
      "inputs": [
        {
          "internalType": "address",
          "name": "",
          "type": "address"
        },
        {
          "internalType": "uint256",
          "name": "",
          "type": "uint256"
        }
      ],
      "name": "consumptionLogs",
      "outputs": [
        {
          "internalType": "uint256",
          "name": "amount",
          "type": "uint256"
        },
        {
          "internalType": "uint256",
          "name": "timestamp",
          "type": "uint256"
        },
        {
          "internalType": "string",
          "name": "readingType",
          "type": "string"
        },
        {
          "internalType": "string",
          "name": "source",
          "type": "string"
        },
        {
          "internalType": "uint256",
          "name": "carbonOffset",
          "type": "uint256"
        },
        {
          "internalType": "address",
          "name": "reporter",
          "type": "address"
        },
        {
          "internalType": "bool",
          "name": "verified",
          "type": "bool"
        }
      ],
      "stateMutability": "view",
      "type": "function",
      "constant": true
    },
    {
      "inputs": [
        {
          "internalType": "string",
          "name": "",
          "type": "string"
        }
      ],
      "name": "gridMetrics",
      "outputs": [
        {
          "internalType": "string",
          "name": "region",
          "type": "string"
        },
        {
          "internalType": "uint256",
          "name": "totalProduction",
          "type": "uint256"
        },
        {
          "internalType": "uint256",
          "name": "totalConsumption",
          "type": "uint256"
        },
        {
          "internalType": "uint256",
          "name": "participantCount",
          "type": "uint256"
        },
        {
          "internalType": "uint256",
          "name": "lastUpdateTimestamp",
          "type": "uint256"
        }
      ],
      "stateMutability": "view",
      "type": "function",
      "constant": true
    },
    {
      "inputs": [],
      "name": "owner",
      "outputs": [
        {
          "internalType": "address",
          "name": "",
          "type": "address"
        }
      ],
      "stateMutability": "view",
      "type": "function",
      "constant": true
    },
    {
      "inputs": [
        {
          "internalType": "address",
          "name": "",
          "type": "address"
        },
        {
          "internalType": "uint256",
          "name": "",
          "type": "uint256"
        }
      ],
      "name": "productionLogs",
      "outputs": [
        {
          "internalType": "uint256",
          "name": "amount",
          "type": "uint256"
        },
        {
          "internalType": "uint256",
          "name": "timestamp",
          "type": "uint256"
        },
        {
          "internalType": "string",
          "name": "readingType",
          "type": "string"
        },
        {
          "internalType": "string",
          "name": "source",
          "type": "string"
        },
        {
          "internalType": "uint256",
          "name": "carbonOffset",
          "type": "uint256"
        },
        {
          "internalType": "address",
          "name": "reporter",
          "type": "address"
        },
        {
          "internalType": "bool",
          "name": "verified",
          "type": "bool"
        }
      ],
      "stateMutability": "view",
      "type": "function",
      "constant": true
    },
    {
      "inputs": [
        {
          "internalType": "string",
          "name": "",
          "type": "string"
        },
        {
          "internalType": "uint256",
          "name": "",
          "type": "uint256"
        }
      ],
      "name": "regionUsers",
      "outputs": [
        {
          "internalType": "address",
          "name": "",
          "type": "address"
        }
      ],
      "stateMutability": "view",
      "type": "function",
      "constant": true
    },
    {
      "inputs": [
        {
          "internalType": "address",
          "name": "",
          "type": "address"
        }
      ],
      "name": "userMetrics",
      "outputs": [
        {
          "internalType": "uint256",
          "name": "totalProduction",
          "type": "uint256"
        },
        {
          "internalType": "uint256",
          "name": "totalConsumption",
          "type": "uint256"
        },
        {
          "internalType": "uint256",
          "name": "totalCarbonOffset",
          "type": "uint256"
        },
        {
          "internalType": "uint256",
          "name": "lastUpdateTimestamp",
          "type": "uint256"
        }
      ],
      "stateMutability": "view",
      "type": "function",
      "constant": true
    },
    {
      "inputs": [
        {
          "internalType": "address",
          "name": "",
          "type": "address"
        }
      ],
      "name": "userRegion",
      "outputs": [
        {
          "internalType": "string",
          "name": "",
          "type": "string"
        }
      ],
      "stateMutability": "view",
      "type": "function",
      "constant": true
    },
    {
      "inputs": [
        {
          "internalType": "address",
          "name": "",
          "type": "address"
        }
      ],
      "name": "verifiers",
      "outputs": [
        {
          "internalType": "bool",
          "name": "",
          "type": "bool"
        }
      ],
      "stateMutability": "view",
      "type": "function",
      "constant": true
    },
    {
      "inputs": [
        {
          "internalType": "string",
          "name": "_region",
          "type": "string"
        }
      ],
      "name": "registerUser",
      "outputs": [],
      "stateMutability": "nonpayable",
      "type": "function"
    },
    {
      "inputs": [
        {
          "internalType": "uint256",
          "name": "_amount",
          "type": "uint256"
        },
        {
          "internalType": "string",
          "name": "_source",
          "type": "string"
        }
      ],
      "name": "logConsumption",
      "outputs": [],
      "stateMutability": "nonpayable",
      "type": "function"
    },
    {
      "inputs": [
        {
          "internalType": "uint256",
          "name": "_amount",
          "type": "uint256"
        },
        {
          "internalType": "string",
          "name": "_source",
          "type": "string"
        },
        {
          "internalType": "uint256",
          "name": "_estimatedCarbonOffset",
          "type": "uint256"
        }
      ],
      "name": "logProduction",
      "outputs": [],
      "stateMutability": "nonpayable",
      "type": "function"
    },
    {
      "inputs": [
        {
          "internalType": "address",
          "name": "_user",
          "type": "address"
        },
        {
          "internalType": "uint256",
          "name": "_readingIndex",
          "type": "uint256"
        }
      ],
      "name": "verifyProductionAndMintCertificate",
      "outputs": [],
      "stateMutability": "nonpayable",
      "type": "function"
    },
    {
      "inputs": [
        {
          "internalType": "address",
          "name": "_user",
          "type": "address"
        },
        {
          "internalType": "uint256",
          "name": "_readingIndex",
          "type": "uint256"
        }
      ],
      "name": "verifyConsumption",
      "outputs": [],
      "stateMutability": "nonpayable",
      "type": "function"
    },
    {
      "inputs": [
        {
          "internalType": "address",
          "name": "_verifier",
          "type": "address"
        }
      ],
      "name": "addVerifier",
      "outputs": [],
      "stateMutability": "nonpayable",
      "type": "function"
    },
    {
      "inputs": [
        {
          "internalType": "address",
          "name": "_verifier",
          "type": "address"
        }
      ],
      "name": "removeVerifier",
      "outputs": [],
      "stateMutability": "nonpayable",
      "type": "function"
    },
    {
      "inputs": [
        {
          "internalType": "address",
          "name": "_user",
          "type": "address"
        },
        {
          "internalType": "uint256",
          "name": "_index",
          "type": "uint256"
        }
      ],
      "name": "getConsumptionLog",
      "outputs": [
        {
          "internalType": "uint256",
          "name": "amount",
          "type": "uint256"
        },
        {
          "internalType": "uint256",
          "name": "timestamp",
          "type": "uint256"
        },
        {
          "internalType": "string",
          "name": "readingType",
          "type": "string"
        },
        {
          "internalType": "string",
          "name": "source",
          "type": "string"
        },
        {
          "internalType": "uint256",
          "name": "carbonOffset",
          "type": "uint256"
        },
        {
          "internalType": "address",
          "name": "reporter",
          "type": "address"
        },
        {
          "internalType": "bool",
          "name": "verified",
          "type": "bool"
        }
      ],
      "stateMutability": "view",
      "type": "function",
      "constant": true
    },
    {
      "inputs": [
        {
          "internalType": "address",
          "name": "_user",
          "type": "address"
        },
        {
          "internalType": "uint256",
          "name": "_index",
          "type": "uint256"
        }
      ],
      "name": "getProductionLog",
      "outputs": [
        {
          "internalType": "uint256",
          "name": "amount",
          "type": "uint256"
        },
        {
          "internalType": "uint256",
          "name": "timestamp",
          "type": "uint256"
        },
        {
          "internalType": "string",
          "name": "readingType",
          "type": "string"
        },
        {
          "internalType": "string",
          "name": "source",
          "type": "string"
        },
        {
          "internalType": "uint256",
          "name": "carbonOffset",
          "type": "uint256"
        },
        {
          "internalType": "address",
          "name": "reporter",
          "type": "address"
        },
        {
          "internalType": "bool",
          "name": "verified",
          "type": "bool"
        }
      ],
      "stateMutability": "view",
      "type": "function",
      "constant": true
    },
    {
      "inputs": [
        {
          "internalType": "address",
          "name": "_user",
          "type": "address"
        }
      ],
      "name": "getConsumptionLogsCount",
      "outputs": [
        {
          "internalType": "uint256",
          "name": "",
          "type": "uint256"
        }
      ],
      "stateMutability": "view",
      "type": "function",
      "constant": true
    },
    {
      "inputs": [
        {
          "internalType": "address",
          "name": "_user",
          "type": "address"
        }
      ],
      "name": "getProductionLogsCount",
      "outputs": [
        {
          "internalType": "uint256",
          "name": "",
          "type": "uint256"
        }
      ],
      "stateMutability": "view",
      "type": "function",
      "constant": true
    },
    {
      "inputs": [
        {
          "internalType": "string",
          "name": "_region",
          "type": "string"
        }
      ],
      "name": "getRegionMetrics",
      "outputs": [
        {
          "internalType": "string",
          "name": "region",
          "type": "string"
        },
        {
          "internalType": "uint256",
          "name": "totalProduction",
          "type": "uint256"
        },
        {
          "internalType": "uint256",
          "name": "totalConsumption",
          "type": "uint256"
        },
        {
          "internalType": "uint256",
          "name": "participantCount",
          "type": "uint256"
        },
        {
          "internalType": "uint256",
          "name": "lastUpdateTimestamp",
          "type": "uint256"
        }
      ],
      "stateMutability": "view",
      "type": "function",
      "constant": true
    },
    {
      "inputs": [
        {
          "internalType": "address",
          "name": "_certificateContract",
          "type": "address"
        }
      ],
      "name": "setCertificateContract",
      "outputs": [],
      "stateMutability": "nonpayable",
      "type": "function"
    }
  ],
  "bytecode": "0x60806040523480156200001157600080fd5b5060405162003cab38038062003cab833981810160405281019062000037919062000182565b33600860006101000a81548173ffffffffffffffffffffffffffffffffffffffff021916908373ffffffffffffffffffffffffffffffffffffffff1602179055506001600760003373ffffffffffffffffffffffffffffffffffffffff1673ffffffffffffffffffffffffffffffffffffffff16815260200190815260200160002060006101000a81548160ff02191690831515021790555080600660006101000a81548173ffffffffffffffffffffffffffffffffffffffff021916908373ffffffffffffffffffffffffffffffffffffffff16021790555050620001b4565b600080fd5b600073ffffffffffffffffffffffffffffffffffffffff82169050919050565b60006200014a826200011d565b9050919050565b6200015c816200013d565b81146200016857600080fd5b50565b6000815190506200017c8162000151565b92915050565b6000602082840312156200019b576200019a62000118565b5b6000620001ab848285016200016b565b91505092915050565b613ae780620001c46000396000f3fe608060405234801561001057600080fd5b50600436106101375760003560e01c8063704f1b94116100b8578063bb327cdf1161007c578063bb327cdf146103ab578063c3b8bbff146103c7578063c56e98ae146103fd578063ca2dfd0a14610419578063db99033614610435578063df8a0f9d1461046957610137565b8063704f1b9414610303578063866c6f151461031f5780638da5cb5b146103555780639000b3d614610373578063955693281461038f57610137565b80634e45aa52116100ff5780634e45aa521461022757806351862401146102575780635e1dcf2c1461027357806368e7b658146102a35780636c824487146102d357610137565b80630237dcbd1461013c578063181567ed146101585780631f227e481461018e57806323ed9ce4146101c15780632ef6081e146101f1575b600080fd5b61015660048036038101906101519190612a79565b61049d565b005b610172600480360381019061016d9190612a79565b6106ea565b6040516101859796959493929190612b82565b60405180910390f35b6101a860048036038101906101a39190612bff565b6109d6565b6040516101b89493929190612c2c565b60405180910390f35b6101db60048036038101906101d69190612bff565b610a06565b6040516101e89190612c71565b60405180910390f35b61020b60048036038101906102069190612a79565b610aa6565b60405161021e9796959493929190612b82565b60405180910390f35b610241600480360381019061023c9190612bff565b610d94565b60405161024e9190612c93565b60405180910390f35b610271600480360381019061026c9190612bff565b610ddf565b005b61028d60048036038101906102889190612de3565b610f22565b60405161029a9190612e3f565b60405180910390f35b6102bd60048036038101906102b89190612bff565b610f86565b6040516102ca9190612c93565b60405180910390f35b6102ed60048036038101906102e89190612bff565b610fd2565b6040516102fa9190612e5a565b60405180910390f35b61031d60048036038101906103189190612e75565b610ff2565b005b61033960048036038101906103349190612a79565b61148f565b60405161034c9796959493929190612b82565b60405180910390f35b61035d61162b565b60405161036a9190612e3f565b60405180910390f35b61038d60048036038101906103889190612bff565b611651565b005b6103a960048036038101906103a49190612ebe565b61187b565b005b6103c560048036038101906103c09190612a79565b611c92565b005b6103e160048036038101906103dc9190612a79565b611fc6565b6040516103f49796959493929190612b82565b60405180910390f35b61041760048036038101906104129190612f1a565b612162565b005b610433600480360381019061042e9190612bff565b612597565b005b61044f600480360381019061044a9190612e75565b6127e1565b604051610460959493929190612f89565b60405180910390f35b610483600480360381019061047e9190612e75565b6128b5565b604051610494959493929190612f89565b60405180910390f35b600760003373ffffffffffffffffffffffffffffffffffffffff1673ffffffffffffffffffffffffffffffffffffffff16815260200190815260200160002060009054906101000a900460ff16610529576040517f08c379a000000000000000000000000000000000000000000000000000000000815260040161052090613055565b60405180910390fd5b6000808373ffffffffffffffffffffffffffffffffffffffff1673ffffffffffffffffffffffffffffffffffffffff1681526020019081526020016000208054905081106105ac576040517f08c379a00000000000000000000000000000000000000000000000000000000081526004016105a3906130c1565b60405180910390fd5b60008060008473ffffffffffffffffffffffffffffffffffffffff1673ffffffffffffffffffffffffffffffffffffffff16815260200190815260200160002082815481106105fe576105fd6130e1565b5b906000526020600020906006020190508060050160149054906101000a900460ff1615610660576040517f08c379a00000000000000000000000000000000000000000000000000000000081526004016106579061315c565b60405180910390fd5b60018160050160146101000a81548160ff0219169083151502179055508273ffffffffffffffffffffffffffffffffffffffff163373ffffffffffffffffffffffffffffffffffffffff167f9c29074e4d3bc0617a608c203821789450b69228d23e82f9fa626a72f32362868460006040516106dd92919061317c565b60405180910390a3505050565b60008060608060008060008060008a73ffffffffffffffffffffffffffffffffffffffff1673ffffffffffffffffffffffffffffffffffffffff168152602001908152602001600020805490508810610778576040517f08c379a000000000000000000000000000000000000000000000000000000000815260040161076f906130c1565b60405180910390fd5b60008060008b73ffffffffffffffffffffffffffffffffffffffff1673ffffffffffffffffffffffffffffffffffffffff16815260200190815260200160002089815481106107ca576107c96130e1565b5b90600052602060002090600602016040518060e00160405290816000820154815260200160018201548152602001600282018054610807906131d4565b80601f0160208091040260200160405190810160405280929190818152602001828054610833906131d4565b80156108805780601f1061085557610100808354040283529160200191610880565b820191906000526020600020905b81548152906001019060200180831161086357829003601f168201915b50505050508152602001600382018054610899906131d4565b80601f01602080910402602001604051908101604052809291908181526020018280546108c5906131d4565b80156109125780601f106108e757610100808354040283529160200191610912565b820191906000526020600020905b8154815290600101906020018083116108f557829003601f168201915b50505050508152602001600482015481526020016005820160009054906101000a900473ffffffffffffffffffffffffffffffffffffffff1673ffffffffffffffffffffffffffffffffffffffff1673ffffffffffffffffffffffffffffffffffffffff1681526020016005820160149054906101000a900460ff1615151515815250509050806000015181602001518260400151836060015184608001518560a001518660c0015197509750975097509750975097505092959891949750929550565b60026020528060005260406000206000915090508060000154908060010154908060020154908060030154905084565b60056020528060005260406000206000915090508054610a25906131d4565b80601f0160208091040260200160405190810160405280929190818152602001828054610a51906131d4565b8015610a9e5780601f10610a7357610100808354040283529160200191610a9e565b820191906000526020600020905b815481529060010190602001808311610a8157829003601f168201915b505050505081565b6000806060806000806000600160008a73ffffffffffffffffffffffffffffffffffffffff1673ffffffffffffffffffffffffffffffffffffffff168152602001908152602001600020805490508810610b35576040517f08c379a0000000000000000000000000000000000000000000000000000000008152600401610b2c906130c1565b60405180910390fd5b6000600160008b73ffffffffffffffffffffffffffffffffffffffff1673ffffffffffffffffffffffffffffffffffffffff1681526020019081526020016000208981548110610b8857610b876130e1565b5b90600052602060002090600602016040518060e00160405290816000820154815260200160018201548152602001600282018054610bc5906131d4565b80601f0160208091040260200160405190810160405280929190818152602001828054610bf1906131d4565b8015610c3e5780601f10610c1357610100808354040283529160200191610c3e565b820191906000526020600020905b815481529060010190602001808311610c2157829003601f168201915b50505050508152602001600382018054610c57906131d4565b80601f0160208091040260200160405190810160405280929190818152602001828054610c83906131d4565b8015610cd05780601f10610ca557610100808354040283529160200191610cd0565b820191906000526020600020905b815481529060010190602001808311610cb357829003601f168201915b50505050508152602001600482015481526020016005820160009054906101000a900473ffffffffffffffffffffffffffffffffffffffff1673ffffffffffffffffffffffffffffffffffffffff1673ffffffffffffffffffffffffffffffffffffffff1681526020016005820160149054906101000a900460ff1615151515815250509050806000015181602001518260400151836060015184608001518560a001518660c0015197509750975097509750975097505092959891949750929550565b60008060008373ffffffffffffffffffffffffffffffffffffffff1673ffffffffffffffffffffffffffffffffffffffff168152602001908152602001600020805490509050919050565b600860009054906101000a900473ffffffffffffffffffffffffffffffffffffffff1673ffffffffffffffffffffffffffffffffffffffff163373ffffffffffffffffffffffffffffffffffffffff1614610e6f576040517f08c379a0000000000000000000000000000000000000000000000000000000008152600401610e6690613277565b60405180910390fd5b600073ffffffffffffffffffffffffffffffffffffffff168173ffffffffffffffffffffffffffffffffffffffff1603610ede576040517f08c379a0000000000000000000000000000000000000000000000000000000008152600401610ed590613309565b60405180910390fd5b80600660006101000a81548173ffffffffffffffffffffffffffffffffffffffff021916908373ffffffffffffffffffffffffffffffffffffffff16021790555050565b6004828051602081018201805184825260208301602085012081835280955050505050508181548110610f5457600080fd5b906000526020600020016000915091509054906101000a900473ffffffffffffffffffffffffffffffffffffffff1681565b6000600160008373ffffffffffffffffffffffffffffffffffffffff1673ffffffffffffffffffffffffffffffffffffffff168152602001908152602001600020805490509050919050565b60076020528060005260406000206000915054906101000a900460ff1681565b6000600560003373ffffffffffffffffffffffffffffffffffffffff1673ffffffffffffffffffffffffffffffffffffffff168152602001908152602001600020805461103e906131d4565b905011156112f5576000600560003373ffffffffffffffffffffffffffffffffffffffff1673ffffffffffffffffffffffffffffffffffffffff1681526020019081526020016000208054611092906131d4565b80601f01602080910402602001604051908101604052809291908181526020018280546110be906131d4565b801561110b5780601f106110e05761010080835404028352916020019161110b565b820191906000526020600020905b8154815290600101906020018083116110ee57829003601f168201915b5050505050905060006004826040516111249190613365565b9081526020016040518091039020905060005b81805490508110156112ba573373ffffffffffffffffffffffffffffffffffffffff1682828154811061116d5761116c6130e1565b5b9060005260206000200160009054906101000a900473ffffffffffffffffffffffffffffffffffffffff1673ffffffffffffffffffffffffffffffffffffffff16036112a75781600183805490506111c591906133ab565b815481106111d6576111d56130e1565b5b9060005260206000200160009054906101000a900473ffffffffffffffffffffffffffffffffffffffff16828281548110611214576112136130e1565b5b9060005260206000200160006101000a81548173ffffffffffffffffffffffffffffffffffffffff021916908373ffffffffffffffffffffffffffffffffffffffff1602179055508180548061126d5761126c6133df565b5b6001900381819060005260206000200160006101000a81549073ffffffffffffffffffffffffffffffffffffffff021916905590556112ba565b80806112b29061340e565b915050611137565b506003826040516112cb9190613365565b908152602001604051809103902060030160008154809291906112ed90613456565b919050555050505b80600560003373ffffffffffffffffffffffffffffffffffffffff1673ffffffffffffffffffffffffffffffffffffffff1681526020019081526020016000209081611341919061362b565b506004816040516113529190613365565b9081526020016040518091039020339080600181540180825580915050600190039060005260206000200160009091909190916101000a81548173ffffffffffffffffffffffffffffffffffffffff021916908373ffffffffffffffffffffffffffffffffffffffff16021790555060006003826040516113d39190613365565b9081526020016040518091039020905060008160030154036114195781816000019081611400919061362b565b506001816003018190555042816004018190555061143d565b80600301600081548092919061142e9061340e565b91905055504281600401819055505b3373ffffffffffffffffffffffffffffffffffffffff167f48cac28ad4dc618e15f4c2dd5e97751182f166de97b25618318b2112aa951a2f836040516114839190612c71565b60405180910390a25050565b600060205281600052604060002081815481106114ab57600080fd5b9060005260206000209060060201600091509150508060000154908060010154908060020180546114db906131d4565b80601f0160208091040260200160405190810160405280929190818152602001828054611507906131d4565b80156115545780601f1061152957610100808354040283529160200191611554565b820191906000526020600020905b81548152906001019060200180831161153757829003601f168201915b505050505090806003018054611569906131d4565b80601f0160208091040260200160405190810160405280929190818152602001828054611595906131d4565b80156115e25780601f106115b7576101008083540402835291602001916115e2565b820191906000526020600020905b8154815290600101906020018083116115c557829003601f168201915b5050505050908060040154908060050160009054906101000a900473ffffffffffffffffffffffffffffffffffffffff16908060050160149054906101000a900460ff16905087565b600860009054906101000a900473ffffffffffffffffffffffffffffffffffffffff1681565b600860009054906101000a900473ffffffffffffffffffffffffffffffffffffffff1673ffffffffffffffffffffffffffffffffffffffff163373ffffffffffffffffffffffffffffffffffffffff16146116e1576040517f08c379a00000000000000000000000000000000000000000000000000000000081526004016116d890613277565b60405180910390fd5b600073ffffffffffffffffffffffffffffffffffffffff168173ffffffffffffffffffffffffffffffffffffffff1603611750576040517f08c379a000000000000000000000000000000000000000000000000000000000815260040161174790613749565b60405180910390fd5b600760008273ffffffffffffffffffffffffffffffffffffffff1673ffffffffffffffffffffffffffffffffffffffff16815260200190815260200160002060009054906101000a900460ff16156117dd576040517f08c379a00000000000000000000000000000000000000000000000000000000081526004016117d4906137b5565b60405180910390fd5b6001600760008373ffffffffffffffffffffffffffffffffffffffff1673ffffffffffffffffffffffffffffffffffffffff16815260200190815260200160002060006101000a81548160ff0219169083151502179055508073ffffffffffffffffffffffffffffffffffffffff167f6d05492139c5ea989514a5d2150c028041e5c087e2a39967f67dc7d2655adb8160405160405180910390a250565b6000600560003373ffffffffffffffffffffffffffffffffffffffff1673ffffffffffffffffffffffffffffffffffffffff16815260200190815260200160002080546118c7906131d4565b905011611909576040517f08c379a000000000000000000000000000000000000000000000000000000000815260040161190090613847565b60405180910390fd5b60006040518060e001604052808481526020014281526020016040518060400160405280600b81526020017f636f6e73756d7074696f6e0000000000000000000000000000000000000000008152508152602001838152602001600081526020013373ffffffffffffffffffffffffffffffffffffffff1681526020016000151581525090506000803373ffffffffffffffffffffffffffffffffffffffff1673ffffffffffffffffffffffffffffffffffffffff16815260200190815260200160002081908060018154018082558091505060019003906000526020600020906006020160009091909190915060008201518160000155602082015181600101556040820151816002019081611a20919061362b565b506060820151816003019081611a36919061362b565b506080820151816004015560a08201518160050160006101000a81548173ffffffffffffffffffffffffffffffffffffffff021916908373ffffffffffffffffffffffffffffffffffffffff16021790555060c08201518160050160146101000a81548160ff02191690831515021790555050506000600260003373ffffffffffffffffffffffffffffffffffffffff1673ffffffffffffffffffffffffffffffffffffffff168152602001908152602001600020905083816001016000828254611b019190613867565b925050819055504281600301819055506000600560003373ffffffffffffffffffffffffffffffffffffffff1673ffffffffffffffffffffffffffffffffffffffff1681526020019081526020016000208054611b5d906131d4565b80601f0160208091040260200160405190810160405280929190818152602001828054611b89906131d4565b8015611bd65780601f10611bab57610100808354040283529160200191611bd6565b820191906000526020600020905b815481529060010190602001808311611bb957829003601f168201915b5050505050905084600382604051611bee9190613365565b90815260200160405180910390206002016000828254611c0e9190613867565b9250508190555042600382604051611c269190613365565b9081526020016040518091039020600401819055503373ffffffffffffffffffffffffffffffffffffffff167fd6fa2ce7ff43650968e35c33cabd02077ab38c64deb42cef2748c7da2db8c9878642604051611c8392919061389b565b60405180910390a25050505050565b600760003373ffffffffffffffffffffffffffffffffffffffff1673ffffffffffffffffffffffffffffffffffffffff16815260200190815260200160002060009054906101000a900460ff16611d1e576040517f08c379a0000000000000000000000000000000000000000000000000000000008152600401611d1590613055565b60405180910390fd5b600160008373ffffffffffffffffffffffffffffffffffffffff1673ffffffffffffffffffffffffffffffffffffffff168152602001908152602001600020805490508110611da2576040517f08c379a0000000000000000000000000000000000000000000000000000000008152600401611d99906130c1565b60405180910390fd5b6000600160008473ffffffffffffffffffffffffffffffffffffffff1673ffffffffffffffffffffffffffffffffffffffff1681526020019081526020016000208281548110611df557611df46130e1565b5b906000526020600020906006020190508060050160149054906101000a900460ff1615611e57576040517f08c379a0000000000000000000000000000000000000000000000000000000008152600401611e4e9061315c565b60405180910390fd5b60018160050160146101000a81548160ff0219169083151502179055506064816000015410611f5957600660009054906101000a900473ffffffffffffffffffffffffffffffffffffffff1673ffffffffffffffffffffffffffffffffffffffff16638fefd32b84836000015484600301600560008973ffffffffffffffffffffffffffffffffffffffff1673ffffffffffffffffffffffffffffffffffffffff1681526020019081526020016000206040518563ffffffff1660e01b8152600401611f269493929190613948565b600060405180830381600087803b158015611f4057600080fd5b505af1158015611f54573d6000803e3d6000fd5b505050505b8273ffffffffffffffffffffffffffffffffffffffff163373ffffffffffffffffffffffffffffffffffffffff167f9c29074e4d3bc0617a608c203821789450b69228d23e82f9fa626a72f3236286846001604051611fb992919061317c565b60405180910390a3505050565b60016020528160005260406000208181548110611fe257600080fd5b906000526020600020906006020160009150915050806000015490806001015490806002018054612012906131d4565b80601f016020809104026020016040519081016040528092919081815260200182805461203e906131d4565b801561208b5780601f106120605761010080835404028352916020019161208b565b820191906000526020600020905b81548152906001019060200180831161206e57829003601f168201915b5050505050908060030180546120a0906131d4565b80601f01602080910402602001604051908101604052809291908181526020018280546120cc906131d4565b80156121195780601f106120ee57610100808354040283529160200191612119565b820191906000526020600020905b8154815290600101906020018083116120fc57829003601f168201915b5050505050908060040154908060050160009054906101000a900473ffffffffffffffffffffffffffffffffffffffff16908060050160149054906101000a900460ff16905087565b6000600560003373ffffffffffffffffffffffffffffffffffffffff1673ffffffffffffffffffffffffffffffffffffffff16815260200190815260200160002080546121ae906131d4565b9050116121f0576040517f08c379a00000000000000000000000000000000000000000000000000000000081526004016121e790613847565b60405180910390fd5b60006040518060e001604052808581526020014281526020016040518060400160405280600a81526020017f70726f64756374696f6e0000000000000000000000000000000000000000000081525081526020018481526020018381526020013373ffffffffffffffffffffffffffffffffffffffff168152602001600015158152509050600160003373ffffffffffffffffffffffffffffffffffffffff1673ffffffffffffffffffffffffffffffffffffffff16815260200190815260200160002081908060018154018082558091505060019003906000526020600020906006020160009091909190915060008201518160000155602082015181600101556040820151816002019081612307919061362b565b50606082015181600301908161231d919061362b565b506080820151816004015560a08201518160050160006101000a81548173ffffffffffffffffffffffffffffffffffffffff021916908373ffffffffffffffffffffffffffffffffffffffff16021790555060c08201518160050160146101000a81548160ff02191690831515021790555050506000600260003373ffffffffffffffffffffffffffffffffffffffff1673ffffffffffffffffffffffffffffffffffffffff1681526020019081526020016000209050848160000160008282546123e89190613867565b92505081905550828160020160008282546124039190613867565b925050819055504281600301819055506000600560003373ffffffffffffffffffffffffffffffffffffffff1673ffffffffffffffffffffffffffffffffffffffff168152602001908152602001600020805461245f906131d4565b80601f016020809104026020016040519081016040528092919081815260200182805461248b906131d4565b80156124d85780601f106124ad576101008083540402835291602001916124d8565b820191906000526020600020905b8154815290600101906020018083116124bb57829003601f168201915b50505050509050856003826040516124f09190613365565b908152602001604051809103902060010160008282546125109190613867565b92505081905550426003826040516125289190613365565b9081526020016040518091039020600401819055503373ffffffffffffffffffffffffffffffffffffffff167f6479f1d66eca354769fe4c18d8631cd435e625fe69236c7c19adb2e5ce89180e8787426040516125879392919061399b565b60405180910390a2505050505050565b600860009054906101000a900473ffffffffffffffffffffffffffffffffffffffff1673ffffffffffffffffffffffffffffffffffffffff163373ffffffffffffffffffffffffffffffffffffffff1614612627576040517f08c379a000000000000000000000000000000000000000000000000000000000815260040161261e90613277565b60405180910390fd5b600760008273ffffffffffffffffffffffffffffffffffffffff1673ffffffffffffffffffffffffffffffffffffffff16815260200190815260200160002060009054906101000a900460ff166126b3576040517f08c379a00000000000000000000000000000000000000000000000000000000081526004016126aa90613a25565b60405180910390fd5b600860009054906101000a900473ffffffffffffffffffffffffffffffffffffffff1673ffffffffffffffffffffffffffffffffffffffff168173ffffffffffffffffffffffffffffffffffffffff1603612743576040517f08c379a000000000000000000000000000000000000000000000000000000000815260040161273a90613a91565b60405180910390fd5b6000600760008373ffffffffffffffffffffffffffffffffffffffff1673ffffffffffffffffffffffffffffffffffffffff16815260200190815260200160002060006101000a81548160ff0219169083151502179055508073ffffffffffffffffffffffffffffffffffffffff167f44a3cd4eb5cc5748f6169df057b1cb2ae4c383e87cd94663c430e095d4cba42460405160405180910390a250565b60038180516020810182018051848252602083016020850120818352809550505050505060009150905080600001805461281a906131d4565b80601f0160208091040260200160405190810160405280929190818152602001828054612846906131d4565b80156128935780601f1061286857610100808354040283529160200191612893565b820191906000526020600020905b81548152906001019060200180831161287657829003601f168201915b5050505050908060010154908060020154908060030154908060040154905085565b606060008060008060006003876040516128cf9190613365565b90815260200160405180910390206040518060a00160405290816000820180546128f8906131d4565b80601f0160208091040260200160405190810160405280929190818152602001828054612924906131d4565b80156129715780601f1061294657610100808354040283529160200191612971565b820191906000526020600020905b81548152906001019060200180831161295457829003601f168201915b50505050508152602001600182015481526020016002820154815260200160038201548152602001600482015481525050905080600001518160200151826040015183606001518460800151955095509550955095505091939590929450565b6000604051905090565b600080fd5b600080fd5b600073ffffffffffffffffffffffffffffffffffffffff82169050919050565b6000612a10826129e5565b9050919050565b612a2081612a05565b8114612a2b57600080fd5b50565b600081359050612a3d81612a17565b92915050565b6000819050919050565b612a5681612a43565b8114612a6157600080fd5b50565b600081359050612a7381612a4d565b92915050565b60008060408385031215612a9057612a8f6129db565b5b6000612a9e85828601612a2e565b9250506020612aaf85828601612a64565b9150509250929050565b612ac281612a43565b82525050565b600081519050919050565b600082825260208201905092915050565b60005b83811015612b02578082015181840152602081019050612ae7565b60008484015250505050565b6000601f19601f8301169050919050565b6000612b2a82612ac8565b612b348185612ad3565b9350612b44818560208601612ae4565b612b4d81612b0e565b840191505092915050565b612b6181612a05565b82525050565b60008115159050919050565b612b7c81612b67565b82525050565b600060e082019050612b97600083018a612ab9565b612ba46020830189612ab9565b8181036040830152612bb68188612b1f565b90508181036060830152612bca8187612b1f565b9050612bd96080830186612ab9565b612be660a0830185612b58565b612bf360c0830184612b73565b98975050505050505050565b600060208284031215612c1557612c146129db565b5b6000612c2384828501612a2e565b91505092915050565b6000608082019050612c416000830187612ab9565b612c4e6020830186612ab9565b612c5b6040830185612ab9565b612c686060830184612ab9565b95945050505050565b60006020820190508181036000830152612c8b8184612b1f565b905092915050565b6000602082019050612ca86000830184612ab9565b92915050565b600080fd5b600080fd5b7f4e487b7100000000000000000000000000000000000000000000000000000000600052604160045260246000fd5b612cf082612b0e565b810181811067ffffffffffffffff82111715612d0f57612d0e612cb8565b5b80604052505050565b6000612d226129d1565b9050612d2e8282612ce7565b919050565b600067ffffffffffffffff821115612d4e57612d4d612cb8565b5b612d5782612b0e565b9050602081019050919050565b82818337600083830152505050565b6000612d86612d8184612d33565b612d18565b905082815260208101848484011115612da257612da1612cb3565b5b612dad848285612d64565b509392505050565b600082601f830112612dca57612dc9612cae565b5b8135612dda848260208601612d73565b91505092915050565b60008060408385031215612dfa57612df96129db565b5b600083013567ffffffffffffffff811115612e1857612e176129e0565b5b612e2485828601612db5565b9250506020612e3585828601612a64565b9150509250929050565b6000602082019050612e546000830184612b58565b92915050565b6000602082019050612e6f6000830184612b73565b92915050565b600060208284031215612e8b57612e8a6129db565b5b600082013567ffffffffffffffff811115612ea957612ea86129e0565b5b612eb584828501612db5565b91505092915050565b60008060408385031215612ed557612ed46129db565b5b6000612ee385828601612a64565b925050602083013567ffffffffffffffff811115612f0457612f036129e0565b5b612f1085828601612db5565b9150509250929050565b600080600060608486031215612f3357612f326129db565b5b6000612f4186828701612a64565b935050602084013567ffffffffffffffff811115612f6257612f616129e0565b5b612f6e86828701612db5565b9250506040612f7f86828701612a64565b9150509250925092565b600060a0820190508181036000830152612fa38188612b1f565b9050612fb26020830187612ab9565b612fbf6040830186612ab9565b612fcc6060830185612ab9565b612fd96080830184612ab9565b9695505050505050565b7f4f6e6c79207665726966696572732063616e2063616c6c20746869732066756e60008201527f6374696f6e000000000000000000000000000000000000000000000000000000602082015250565b600061303f602583612ad3565b915061304a82612fe3565b604082019050919050565b6000602082019050818103600083015261306e81613032565b9050919050565b7f52656164696e6720696e646578206f7574206f6620626f756e64730000000000600082015250565b60006130ab601b83612ad3565b91506130b682613075565b602082019050919050565b600060208201905081810360008301526130da8161309e565b9050919050565b7f4e487b7100000000000000000000000000000000000000000000000000000000600052603260045260246000fd5b7f52656164696e6720616c72656164792076657269666965640000000000000000600082015250565b6000613146601883612ad3565b915061315182613110565b602082019050919050565b6000602082019050818103600083015261317581613139565b9050919050565b60006040820190506131916000830185612ab9565b61319e6020830184612b73565b9392505050565b7f4e487b7100000000000000000000000000000000000000000000000000000000600052602260045260246000fd5b600060028204905060018216806131ec57607f821691505b6020821081036131ff576131fe6131a5565b5b50919050565b7f4f6e6c79206f776e65722063616e2063616c6c20746869732066756e6374696f60008201527f6e00000000000000000000000000000000000000000000000000000000000000602082015250565b6000613261602183612ad3565b915061326c82613205565b604082019050919050565b6000602082019050818103600083015261329081613254565b9050919050565b7f496e76616c696420636572746966696361746520636f6e74726163742061646460008201527f7265737300000000000000000000000000000000000000000000000000000000602082015250565b60006132f3602483612ad3565b91506132fe82613297565b604082019050919050565b60006020820190508181036000830152613322816132e6565b9050919050565b600081905092915050565b600061333f82612ac8565b6133498185613329565b9350613359818560208601612ae4565b80840191505092915050565b60006133718284613334565b915081905092915050565b7f4e487b7100000000000000000000000000000000000000000000000000000000600052601160045260246000fd5b60006133b682612a43565b91506133c183612a43565b92508282039050818111156133d9576133d861337c565b5b92915050565b7f4e487b7100000000000000000000000000000000000000000000000000000000600052603160045260246000fd5b600061341982612a43565b91507fffffffffffffffffffffffffffffffffffffffffffffffffffffffffffffffff820361344b5761344a61337c565b5b600182019050919050565b600061346182612a43565b9150600082036134745761347361337c565b5b600182039050919050565b60008190508160005260206000209050919050565b60006020601f8301049050919050565b600082821b905092915050565b6000600883026134e17fffffffffffffffffffffffffffffffffffffffffffffffffffffffffffffffff826134a4565b6134eb86836134a4565b95508019841693508086168417925050509392505050565b6000819050919050565b600061352861352361351e84612a43565b613503565b612a43565b9050919050565b6000819050919050565b6135428361350d565b61355661354e8261352f565b8484546134b1565b825550505050565b600090565b61356b61355e565b613576818484613539565b505050565b5b8181101561359a5761358f600082613563565b60018101905061357c565b5050565b601f8211156135df576135b08161347f565b6135b984613494565b810160208510156135c8578190505b6135dc6135d485613494565b83018261357b565b50505b505050565b600082821c905092915050565b6000613602600019846008026135e4565b1980831691505092915050565b600061361b83836135f1565b9150826002028217905092915050565b61363482612ac8565b67ffffffffffffffff81111561364d5761364c612cb8565b5b61365782546131d4565b61366282828561359e565b600060209050601f8311600181146136955760008415613683578287015190505b61368d858261360f565b8655506136f5565b601f1984166136a38661347f565b60005b828110156136cb578489015182556001820191506020850194506020810190506136a6565b868310156136e857848901516136e4601f8916826135f1565b8355505b6001600288020188555050505b505050505050565b7f496e76616c696420766572696669657220616464726573730000000000000000600082015250565b6000613733601883612ad3565b915061373e826136fd565b602082019050919050565b6000602082019050818103600083015261376281613726565b9050919050565b7f4164647265737320697320616c72656164792061207665726966696572000000600082015250565b600061379f601d83612ad3565b91506137aa82613769565b602082019050919050565b600060208201905081810360008301526137ce81613792565b9050919050565b7f55736572206d757374206265207265676973746572656420746f20612072656760008201527f696f6e0000000000000000000000000000000000000000000000000000000000602082015250565b6000613831602383612ad3565b915061383c826137d5565b604082019050919050565b6000602082019050818103600083015261386081613824565b9050919050565b600061387282612a43565b915061387d83612a43565b92508282019050808211156138955761389461337c565b5b92915050565b60006040820190506138b06000830185612ab9565b6138bd6020830184612ab9565b9392505050565b600081546138d1816131d4565b6138db8186612ad3565b945060018216600081146138f6576001811461390c5761393f565b60ff19831686528115156020028601935061393f565b6139158561347f565b60005b8381101561393757815481890152600182019150602081019050613918565b808801955050505b50505092915050565b600060808201905061395d6000830187612b58565b61396a6020830186612ab9565b818103604083015261397c81856138c4565b9050818103606083015261399081846138c4565b905095945050505050565b60006060820190506139b06000830186612ab9565b81810360208301526139c28185612b1f565b90506139d16040830184612ab9565b949350505050565b7f41646472657373206973206e6f74206120766572696669657200000000000000600082015250565b6000613a0f601983612ad3565b9150613a1a826139d9565b602082019050919050565b60006020820190508181036000830152613a3e81613a02565b9050919050565b7f43616e6e6f742072656d6f7665206f776e657220617320766572696669657200600082015250565b6000613a7b601f83612ad3565b9150613a8682613a45565b602082019050919050565b60006020820190508181036000830152613aaa81613a6e565b905091905056fea264697066735822122043bb022394be682083d546711fc3a2251c840b35005d045a120fecb6494ea77b64736f6c63430008110033",
  "immutableReferences": {},
  "source": "// SPDX-License-Identifier: MIT\npragma solidity ^0.8.17;\n\nimport \"./Certificate.sol\";\n\n/**\n * @title EnergyLogger\n * @dev Contract for logging energy production and consumption with advanced metrics\n */\ncontract EnergyLogger {\n    // Reading struct to store energy data\n    struct Reading {\n        uint amount; // in kWh\n        uint timestamp;\n        string readingType; // \"production\" or \"consumption\"\n        string source; // For production: \"solar\", \"wind\", etc. For consumption: \"household\", \"commercial\", etc.\n        uint carbonOffset; // Estimated carbon offset in kg of CO2\n        address reporter; // Who reported this data\n        bool verified; // Whether this reading has been verified\n    }\n    \n    // User Metrics for aggregated data\n    struct UserMetrics {\n        uint totalProduction;\n        uint totalConsumption;\n        uint totalCarbonOffset;\n        uint lastUpdateTimestamp;\n    }\n    \n    // Grid Metrics for regional data\n    struct GridMetrics {\n        string region;\n        uint totalProduction;\n        uint totalConsumption;\n        uint participantCount;\n        uint lastUpdateTimestamp;\n    }\n    \n    // Mapping from address to consumption readings\n    mapping(address => Reading[]) public consumptionLogs;\n    \n    // Mapping from address to production readings\n    mapping(address => Reading[]) public productionLogs;\n    \n    // Mapping from address to user metrics\n    mapping(address => UserMetrics) public userMetrics;\n    \n    // Mapping from region to grid metrics\n    mapping(string => GridMetrics) public gridMetrics;\n    \n    // Mapping of users by region\n    mapping(string => address[]) public regionUsers;\n    \n    // User's region mapping\n    mapping(address => string) public userRegion;\n    \n    // Reference to the RenewableCertificate contract\n    RenewableCertificate private certificateContract;\n    \n    // Trusted verifiers that can validate readings\n    mapping(address => bool) public verifiers;\n    \n    // Owner of the contract\n    address public owner;\n    \n    // Events\n    event ConsumptionLogged(address indexed user, uint amount, uint timestamp);\n    event ProductionLogged(address indexed user, uint amount, string source, uint timestamp);\n    event ReadingVerified(address indexed verifier, address indexed user, uint readingIndex, bool isProduction);\n    event UserRegistered(address indexed user, string region);\n    event VerifierAdded(address indexed verifier);\n    event VerifierRemoved(address indexed verifier);\n    \n    modifier onlyOwner() {\n        require(msg.sender == owner, \"Only owner can call this function\");\n        _;\n    }\n    \n    modifier onlyVerifier() {\n        require(verifiers[msg.sender], \"Only verifiers can call this function\");\n        _;\n    }\n    \n    /**\n     * @dev Constructor sets the contract owner and certificate contract address\n     * @param _certificateContract Address of the RenewableCertificate contract\n     */\n    constructor(address _certificateContract) {\n        owner = msg.sender;\n        verifiers[msg.sender] = true;\n        certificateContract = RenewableCertificate(_certificateContract);\n    }\n    \n    /**\n     * @dev Registers a user to a specific region\n     * @param _region Geographic region of the user\n     */\n    function registerUser(string memory _region) external {\n        // If user already has a region, remove them from that region's list\n        if (bytes(userRegion[msg.sender]).length > 0) {\n            string memory oldRegion = userRegion[msg.sender];\n            \n            // Find and remove user from old region\n            address[] storage oldUsers = regionUsers[oldRegion];\n            for (uint i = 0; i < oldUsers.length; i++) {\n                if (oldUsers[i] == msg.sender) {\n                    oldUsers[i] = oldUsers[oldUsers.length - 1];\n                    oldUsers.pop();\n                    break;\n                }\n            }\n            \n            // Decrement participant count in old region\n            gridMetrics[oldRegion].participantCount--;\n        }\n        \n        // Set user's new region\n        userRegion[msg.sender] = _region;\n        \n        // Add user to new region's list\n        regionUsers[_region].push(msg.sender);\n        \n        // Initialize or update grid metrics for this region\n        GridMetrics storage metrics = gridMetrics[_region];\n        if (metrics.participantCount == 0) {\n            // First user in this region\n            metrics.region = _region;\n            metrics.participantCount = 1;\n            metrics.lastUpdateTimestamp = block.timestamp;\n        } else {\n            // Increment participant count\n            metrics.participantCount++;\n            metrics.lastUpdateTimestamp = block.timestamp;\n        }\n        \n        emit UserRegistered(msg.sender, _region);\n    }\n    \n    /**\n     * @dev Log energy consumption\n     * @param _amount Energy consumed in kWh\n     * @param _source Source of consumption (e.g., \"household\", \"commercial\")\n     */\n    function logConsumption(uint _amount, string memory _source) external {\n        require(bytes(userRegion[msg.sender]).length > 0, \"User must be registered to a region\");\n        \n        Reading memory reading = Reading({\n            amount: _amount,\n            timestamp: block.timestamp,\n            readingType: \"consumption\",\n            source: _source,\n            carbonOffset: 0, // No carbon offset for consumption\n            reporter: msg.sender,\n            verified: false\n        });\n        \n        consumptionLogs[msg.sender].push(reading);\n        \n        // Update user metrics\n        UserMetrics storage metrics = userMetrics[msg.sender];\n        metrics.totalConsumption += _amount;\n        metrics.lastUpdateTimestamp = block.timestamp;\n        \n        // Update grid metrics\n        string memory region = userRegion[msg.sender];\n        gridMetrics[region].totalConsumption += _amount;\n        gridMetrics[region].lastUpdateTimestamp = block.timestamp;\n        \n        emit ConsumptionLogged(msg.sender, _amount, block.timestamp);\n    }\n    \n    /**\n     * @dev Log energy production\n     * @param _amount Energy produced in kWh\n     * @param _source Source of production (e.g., \"solar\", \"wind\")\n     * @param _estimatedCarbonOffset Estimated carbon offset in kg of CO2\n     */\n    function logProduction(uint _amount, string memory _source, uint _estimatedCarbonOffset) external {\n        require(bytes(userRegion[msg.sender]).length > 0, \"User must be registered to a region\");\n        \n        Reading memory reading = Reading({\n            amount: _amount,\n            timestamp: block.timestamp,\n            readingType: \"production\",\n            source: _source,\n            carbonOffset: _estimatedCarbonOffset,\n            reporter: msg.sender,\n            verified: false\n        });\n        \n        productionLogs[msg.sender].push(reading);\n        \n        // Update user metrics\n        UserMetrics storage metrics = userMetrics[msg.sender];\n        metrics.totalProduction += _amount;\n        metrics.totalCarbonOffset += _estimatedCarbonOffset;\n        metrics.lastUpdateTimestamp = block.timestamp;\n        \n        // Update grid metrics\n        string memory region = userRegion[msg.sender];\n        gridMetrics[region].totalProduction += _amount;\n        gridMetrics[region].lastUpdateTimestamp = block.timestamp;\n        \n        emit ProductionLogged(msg.sender, _amount, _source, block.timestamp);\n    }\n    \n    /**\n     * @dev Verify a production reading and mint certificates\n     * @param _user Address of the user\n     * @param _readingIndex Index of the reading to verify\n     */\n    function verifyProductionAndMintCertificate(address _user, uint _readingIndex) external onlyVerifier {\n        require(_readingIndex < productionLogs[_user].length, \"Reading index out of bounds\");\n        \n        Reading storage reading = productionLogs[_user][_readingIndex];\n        require(!reading.verified, \"Reading already verified\");\n        \n        // Mark reading as verified\n        reading.verified = true;\n        \n        // Mint renewable certificates\n        if (reading.amount >= 100) {\n            certificateContract.mintCertificate(\n                _user,\n                reading.amount,\n                reading.source,\n                userRegion[_user]\n            );\n        }\n        \n        emit ReadingVerified(msg.sender, _user, _readingIndex, true);\n    }\n    \n    /**\n     * @dev Verify a consumption reading\n     * @param _user Address of the user\n     * @param _readingIndex Index of the reading to verify\n     */\n    function verifyConsumption(address _user, uint _readingIndex) external onlyVerifier {\n        require(_readingIndex < consumptionLogs[_user].length, \"Reading index out of bounds\");\n        \n        Reading storage reading = consumptionLogs[_user][_readingIndex];\n        require(!reading.verified, \"Reading already verified\");\n        \n        // Mark reading as verified\n        reading.verified = true;\n        \n        emit ReadingVerified(msg.sender, _user, _readingIndex, false);\n    }\n    \n    /**\n     * @dev Add a new verifier\n     * @param _verifier Address of the new verifier\n     */\n    function addVerifier(address _verifier) external onlyOwner {\n        require(_verifier != address(0), \"Invalid verifier address\");\n        require(!verifiers[_verifier], \"Address is already a verifier\");\n        \n        verifiers[_verifier] = true;\n        \n        emit VerifierAdded(_verifier);\n    }\n    \n    /**\n     * @dev Remove a verifier\n     * @param _verifier Address of the verifier to remove\n     */\n    function removeVerifier(address _verifier) external onlyOwner {\n        require(verifiers[_verifier], \"Address is not a verifier\");\n        require(_verifier != owner, \"Cannot remove owner as verifier\");\n        \n        verifiers[_verifier] = false;\n        \n        emit VerifierRemoved(_verifier);\n    }\n    \n    /**\n     * @dev Get consumption log details\n     * @param _user Address of the user\n     * @param _index Index of the reading\n     */\n    function getConsumptionLog(address _user, uint _index) external view returns (\n        uint amount,\n        uint timestamp,\n        string memory readingType,\n        string memory source,\n        uint carbonOffset,\n        address reporter,\n        bool verified\n    ) {\n        require(_index < consumptionLogs[_user].length, \"Reading index out of bounds\");\n        \n        Reading memory reading = consumptionLogs[_user][_index];\n        return (\n            reading.amount,\n            reading.timestamp,\n            reading.readingType,\n            reading.source,\n            reading.carbonOffset,\n            reading.reporter,\n            reading.verified\n        );\n    }\n    \n    /**\n     * @dev Get production log details\n     * @param _user Address of the user\n     * @param _index Index of the reading\n     */\n    function getProductionLog(address _user, uint _index) external view returns (\n        uint amount,\n        uint timestamp,\n        string memory readingType,\n        string memory source,\n        uint carbonOffset,\n        address reporter,\n        bool verified\n    ) {\n        require(_index < productionLogs[_user].length, \"Reading index out of bounds\");\n        \n        Reading memory reading = productionLogs[_user][_index];\n        return (\n            reading.amount,\n            reading.timestamp,\n            reading.readingType,\n            reading.source,\n            reading.carbonOffset,\n            reading.reporter,\n            reading.verified\n        );\n    }\n    \n    /**\n     * @dev Get the number of consumption logs for a user\n     * @param _user Address of the user\n     * @return Number of consumption logs\n     */\n    function getConsumptionLogsCount(address _user) external view returns (uint) {\n        return consumptionLogs[_user].length;\n    }\n    \n    /**\n     * @dev Get the number of production logs for a user\n     * @param _user Address of the user\n     * @return Number of production logs\n     */\n    function getProductionLogsCount(address _user) external view returns (uint) {\n        return productionLogs[_user].length;\n    }\n    \n    /**\n     * @dev Get region metrics\n     * @param _region Region name\n     */\n    function getRegionMetrics(string memory _region) external view returns (\n        string memory region,\n        uint totalProduction,\n        uint totalConsumption,\n        uint participantCount,\n        uint lastUpdateTimestamp\n    ) {\n        GridMetrics memory metrics = gridMetrics[_region];\n        return (\n            metrics.region,\n            metrics.totalProduction,\n            metrics.totalConsumption,\n            metrics.participantCount,\n            metrics.lastUpdateTimestamp\n        );\n    }\n    \n    /**\n     * @dev Set the certificate contract address\n     * @param _certificateContract New certificate contract address\n     */\n    function setCertificateContract(address _certificateContract) external onlyOwner {\n        require(_certificateContract != address(0), \"Invalid certificate contract address\");\n        certificateContract = RenewableCertificate(_certificateContract);\n    }\n}\n",
  "sourcePath": "/Users/sluzhba/Downloads/power-dapp/contracts/EnergyLogger.sol",
  "compiler": {
    "name": "solc",
    "version": "0.8.17+commit.8df45f5f.Emscripten.clang"
  },
  "schemaVersion": "3.4.16",
  "updatedAt": "2025-04-28T17:04:19.851Z",
  "networkType": "ethereum",
  "devdoc": {
    "details": "Contract for logging energy production and consumption with advanced metrics",
    "kind": "dev",
    "methods": {
      "addVerifier(address)": {
        "details": "Add a new verifier",
        "params": {
          "_verifier": "Address of the new verifier"
        }
      },
      "constructor": {
        "details": "Constructor sets the contract owner and certificate contract address",
        "params": {
          "_certificateContract": "Address of the RenewableCertificate contract"
        }
      },
      "getConsumptionLog(address,uint256)": {
        "details": "Get consumption log details",
        "params": {
          "_index": "Index of the reading",
          "_user": "Address of the user"
        }
      },
      "getConsumptionLogsCount(address)": {
        "details": "Get the number of consumption logs for a user",
        "params": {
          "_user": "Address of the user"
        },
        "returns": {
          "_0": "Number of consumption logs"
        }
      },
      "getProductionLog(address,uint256)": {
        "details": "Get production log details",
        "params": {
          "_index": "Index of the reading",
          "_user": "Address of the user"
        }
      },
      "getProductionLogsCount(address)": {
        "details": "Get the number of production logs for a user",
        "params": {
          "_user": "Address of the user"
        },
        "returns": {
          "_0": "Number of production logs"
        }
      },
      "getRegionMetrics(string)": {
        "details": "Get region metrics",
        "params": {
          "_region": "Region name"
        }
      },
      "logConsumption(uint256,string)": {
        "details": "Log energy consumption",
        "params": {
          "_amount": "Energy consumed in kWh",
          "_source": "Source of consumption (e.g., \"household\", \"commercial\")"
        }
      },
      "logProduction(uint256,string,uint256)": {
        "details": "Log energy production",
        "params": {
          "_amount": "Energy produced in kWh",
          "_estimatedCarbonOffset": "Estimated carbon offset in kg of CO2",
          "_source": "Source of production (e.g., \"solar\", \"wind\")"
        }
      },
      "registerUser(string)": {
        "details": "Registers a user to a specific region",
        "params": {
          "_region": "Geographic region of the user"
        }
      },
      "removeVerifier(address)": {
        "details": "Remove a verifier",
        "params": {
          "_verifier": "Address of the verifier to remove"
        }
      },
      "setCertificateContract(address)": {
        "details": "Set the certificate contract address",
        "params": {
          "_certificateContract": "New certificate contract address"
        }
      },
      "verifyConsumption(address,uint256)": {
        "details": "Verify a consumption reading",
        "params": {
          "_readingIndex": "Index of the reading to verify",
          "_user": "Address of the user"
        }
      },
      "verifyProductionAndMintCertificate(address,uint256)": {
        "details": "Verify a production reading and mint certificates",
        "params": {
          "_readingIndex": "Index of the reading to verify",
          "_user": "Address of the user"
        }
      }
    },
    "title": "EnergyLogger",
    "version": 1
  },
  "userdoc": {
    "kind": "user",
    "methods": {},
    "version": 1
  }
}