{
  "contractName": "EnergyTradeLedger",
  "abi": [
    {
      "inputs": [
        {
          "internalType": "address",
          "name": "_certificateContract",
          "type": "address"
        },
        {
          "internalType": "address",
          "name": "_loggerContract",
          "type": "address"
        }
      ],
      "stateMutability": "nonpayable",
      "type": "constructor"
    },
    {
      "anonymous": false,
      "inputs": [
        {
          "indexed": true,
          "internalType": "uint256",
          "name": "offerId",
          "type": "uint256"
        },
        {
          "indexed": true,
          "internalType": "address",
          "name": "buyer",
          "type": "address"
        },
        {
          "indexed": false,
          "internalType": "uint256",
          "name": "energyAmount",
          "type": "uint256"
        },
        {
          "indexed": false,
          "internalType": "uint256",
          "name": "totalPrice",
          "type": "uint256"
        }
      ],
      "name": "OfferAccepted",
      "type": "event"
    },
    {
      "anonymous": false,
      "inputs": [
        {
          "indexed": true,
          "internalType": "uint256",
          "name": "offerId",
          "type": "uint256"
        }
      ],
      "name": "OfferCancelled",
      "type": "event"
    },
    {
      "anonymous": false,
      "inputs": [
        {
          "indexed": true,
          "internalType": "uint256",
          "name": "offerId",
          "type": "uint256"
        },
        {
          "indexed": true,
          "internalType": "address",
          "name": "seller",
          "type": "address"
        },
        {
          "indexed": false,
          "internalType": "uint256",
          "name": "energyAmount",
          "type": "uint256"
        },
        {
          "indexed": false,
          "internalType": "uint256",
          "name": "pricePerUnit",
          "type": "uint256"
        },
        {
          "indexed": false,
          "internalType": "string",
          "name": "region",
          "type": "string"
        }
      ],
      "name": "OfferCreated",
      "type": "event"
    },
    {
      "anonymous": false,
      "inputs": [
        {
          "indexed": true,
          "internalType": "uint256",
          "name": "offerId",
          "type": "uint256"
        },
        {
          "indexed": false,
          "internalType": "uint256",
          "name": "energyAmount",
          "type": "uint256"
        },
        {
          "indexed": false,
          "internalType": "uint256",
          "name": "pricePerUnit",
          "type": "uint256"
        }
      ],
      "name": "OfferUpdated",
      "type": "event"
    },
    {
      "anonymous": false,
      "inputs": [
        {
          "indexed": false,
          "internalType": "uint256",
          "name": "amount",
          "type": "uint256"
        },
        {
          "indexed": false,
          "internalType": "address",
          "name": "recipient",
          "type": "address"
        }
      ],
      "name": "PlatformFeeCollected",
      "type": "event"
    },
    {
      "anonymous": false,
      "inputs": [
        {
          "indexed": true,
          "internalType": "uint256",
          "name": "tradeId",
          "type": "uint256"
        }
      ],
      "name": "TradeCancelled",
      "type": "event"
    },
    {
      "anonymous": false,
      "inputs": [
        {
          "indexed": true,
          "internalType": "uint256",
          "name": "tradeId",
          "type": "uint256"
        }
      ],
      "name": "TradeCompleted",
      "type": "event"
    },
    {
      "anonymous": false,
      "inputs": [
        {
          "indexed": true,
          "internalType": "uint256",
          "name": "tradeId",
          "type": "uint256"
        },
        {
          "indexed": true,
          "internalType": "address",
          "name": "seller",
          "type": "address"
        },
        {
          "indexed": true,
          "internalType": "address",
          "name": "buyer",
          "type": "address"
        },
        {
          "indexed": false,
          "internalType": "uint256",
          "name": "energyAmount",
          "type": "uint256"
        },
        {
          "indexed": false,
          "internalType": "uint256",
          "name": "totalPrice",
          "type": "uint256"
        }
      ],
      "name": "TradeCreated",
      "type": "event"
    },
    {
      "inputs": [
        {
          "internalType": "address",
          "name": "",
          "type": "address"
        },
        {
          "internalType": "uint256",
          "name": "",
          "type": "uint256"
        }
      ],
      "name": "buyerTrades",
      "outputs": [
        {
          "internalType": "uint256",
          "name": "",
          "type": "uint256"
        }
      ],
      "stateMutability": "view",
      "type": "function",
      "constant": true
    },
    {
      "inputs": [],
      "name": "feeRecipient",
      "outputs": [
        {
          "internalType": "address",
          "name": "",
          "type": "address"
        }
      ],
      "stateMutability": "view",
      "type": "function",
      "constant": true
    },
    {
      "inputs": [
        {
          "internalType": "uint256",
          "name": "",
          "type": "uint256"
        }
      ],
      "name": "offers",
      "outputs": [
        {
          "internalType": "uint256",
          "name": "id",
          "type": "uint256"
        },
        {
          "internalType": "address",
          "name": "seller",
          "type": "address"
        },
        {
          "internalType": "uint256",
          "name": "energyAmount",
          "type": "uint256"
        },
        {
          "internalType": "uint256",
          "name": "pricePerUnit",
          "type": "uint256"
        },
        {
          "internalType": "uint256",
          "name": "minPurchaseAmount",
          "type": "uint256"
        },
        {
          "internalType": "uint256",
          "name": "expirationTime",
          "type": "uint256"
        },
        {
          "internalType": "string",
          "name": "region",
          "type": "string"
        },
        {
          "internalType": "bool",
          "name": "isCertified",
          "type": "bool"
        },
        {
          "internalType": "bool",
          "name": "isActive",
          "type": "bool"
        }
      ],
      "stateMutability": "view",
      "type": "function",
      "constant": true
    },
    {
      "inputs": [],
      "name": "owner",
      "outputs": [
        {
          "internalType": "address",
          "name": "",
          "type": "address"
        }
      ],
      "stateMutability": "view",
      "type": "function",
      "constant": true
    },
    {
      "inputs": [],
      "name": "platformFeeRate",
      "outputs": [
        {
          "internalType": "uint256",
          "name": "",
          "type": "uint256"
        }
      ],
      "stateMutability": "view",
      "type": "function",
      "constant": true
    },
    {
      "inputs": [
        {
          "internalType": "string",
          "name": "",
          "type": "string"
        },
        {
          "internalType": "uint256",
          "name": "",
          "type": "uint256"
        }
      ],
      "name": "regionOffers",
      "outputs": [
        {
          "internalType": "uint256",
          "name": "",
          "type": "uint256"
        }
      ],
      "stateMutability": "view",
      "type": "function",
      "constant": true
    },
    {
      "inputs": [
        {
          "internalType": "address",
          "name": "",
          "type": "address"
        },
        {
          "internalType": "uint256",
          "name": "",
          "type": "uint256"
        }
      ],
      "name": "sellerOffers",
      "outputs": [
        {
          "internalType": "uint256",
          "name": "",
          "type": "uint256"
        }
      ],
      "stateMutability": "view",
      "type": "function",
      "constant": true
    },
    {
      "inputs": [
        {
          "internalType": "address",
          "name": "",
          "type": "address"
        },
        {
          "internalType": "uint256",
          "name": "",
          "type": "uint256"
        }
      ],
      "name": "sellerTrades",
      "outputs": [
        {
          "internalType": "uint256",
          "name": "",
          "type": "uint256"
        }
      ],
      "stateMutability": "view",
      "type": "function",
      "constant": true
    },
    {
      "inputs": [
        {
          "internalType": "uint256",
          "name": "",
          "type": "uint256"
        }
      ],
      "name": "trades",
      "outputs": [
        {
          "internalType": "uint256",
          "name": "id",
          "type": "uint256"
        },
        {
          "internalType": "address",
          "name": "seller",
          "type": "address"
        },
        {
          "internalType": "address",
          "name": "buyer",
          "type": "address"
        },
        {
          "internalType": "uint256",
          "name": "energyAmount",
          "type": "uint256"
        },
        {
          "internalType": "uint256",
          "name": "pricePerUnit",
          "type": "uint256"
        },
        {
          "internalType": "uint256",
          "name": "totalPrice",
          "type": "uint256"
        },
        {
          "internalType": "uint256",
          "name": "timestamp",
          "type": "uint256"
        },
        {
          "internalType": "uint256",
          "name": "deliveryTime",
          "type": "uint256"
        },
        {
          "internalType": "string",
          "name": "region",
          "type": "string"
        },
        {
          "internalType": "enum EnergyTradeLedger.TradeStatus",
          "name": "status",
          "type": "uint8"
        },
        {
          "internalType": "bool",
          "name": "isCertified",
          "type": "bool"
        },
        {
          "internalType": "uint256",
          "name": "certificateId",
          "type": "uint256"
        }
      ],
      "stateMutability": "view",
      "type": "function",
      "constant": true
    },
    {
      "stateMutability": "payable",
      "type": "receive",
      "payable": true
    },
    {
      "inputs": [
        {
          "internalType": "uint256",
          "name": "_energyAmount",
          "type": "uint256"
        },
        {
          "internalType": "uint256",
          "name": "_pricePerUnit",
          "type": "uint256"
        },
        {
          "internalType": "uint256",
          "name": "_minPurchaseAmount",
          "type": "uint256"
        },
        {
          "internalType": "uint256",
          "name": "_expirationTime",
          "type": "uint256"
        },
        {
          "internalType": "string",
          "name": "_region",
          "type": "string"
        },
        {
          "internalType": "bool",
          "name": "_isCertified",
          "type": "bool"
        }
      ],
      "name": "createOffer",
      "outputs": [
        {
          "internalType": "uint256",
          "name": "",
          "type": "uint256"
        }
      ],
      "stateMutability": "nonpayable",
      "type": "function"
    },
    {
      "inputs": [
        {
          "internalType": "uint256",
          "name": "_offerId",
          "type": "uint256"
        },
        {
          "internalType": "uint256",
          "name": "_energyAmount",
          "type": "uint256"
        },
        {
          "internalType": "uint256",
          "name": "_pricePerUnit",
          "type": "uint256"
        },
        {
          "internalType": "uint256",
          "name": "_minPurchaseAmount",
          "type": "uint256"
        },
        {
          "internalType": "uint256",
          "name": "_expirationTime",
          "type": "uint256"
        }
      ],
      "name": "updateOffer",
      "outputs": [],
      "stateMutability": "nonpayable",
      "type": "function"
    },
    {
      "inputs": [
        {
          "internalType": "uint256",
          "name": "_offerId",
          "type": "uint256"
        }
      ],
      "name": "cancelOffer",
      "outputs": [],
      "stateMutability": "nonpayable",
      "type": "function"
    },
    {
      "inputs": [
        {
          "internalType": "uint256",
          "name": "_offerId",
          "type": "uint256"
        },
        {
          "internalType": "uint256",
          "name": "_energyAmount",
          "type": "uint256"
        }
      ],
      "name": "acceptOffer",
      "outputs": [],
      "stateMutability": "payable",
      "type": "function",
      "payable": true
    },
    {
      "inputs": [
        {
          "internalType": "uint256",
          "name": "_tradeId",
          "type": "uint256"
        }
      ],
      "name": "completeTrade",
      "outputs": [],
      "stateMutability": "nonpayable",
      "type": "function"
    },
    {
      "inputs": [
        {
          "internalType": "uint256",
          "name": "_tradeId",
          "type": "uint256"
        }
      ],
      "name": "cancelTrade",
      "outputs": [],
      "stateMutability": "nonpayable",
      "type": "function"
    },
    {
      "inputs": [
        {
          "internalType": "address",
          "name": "_seller",
          "type": "address"
        },
        {
          "internalType": "address",
          "name": "_buyer",
          "type": "address"
        },
        {
          "internalType": "uint256",
          "name": "_energyAmount",
          "type": "uint256"
        },
        {
          "internalType": "uint256",
          "name": "_pricePerUnit",
          "type": "uint256"
        },
        {
          "internalType": "string",
          "name": "_region",
          "type": "string"
        }
      ],
      "name": "recordTrade",
      "outputs": [
        {
          "internalType": "uint256",
          "name": "",
          "type": "uint256"
        }
      ],
      "stateMutability": "nonpayable",
      "type": "function"
    },
    {
      "inputs": [
        {
          "internalType": "uint256",
          "name": "_tradeId",
          "type": "uint256"
        }
      ],
      "name": "getTrade",
      "outputs": [
        {
          "internalType": "uint256",
          "name": "id",
          "type": "uint256"
        },
        {
          "internalType": "address",
          "name": "seller",
          "type": "address"
        },
        {
          "internalType": "address",
          "name": "buyer",
          "type": "address"
        },
        {
          "internalType": "uint256",
          "name": "energyAmount",
          "type": "uint256"
        },
        {
          "internalType": "uint256",
          "name": "pricePerUnit",
          "type": "uint256"
        },
        {
          "internalType": "uint256",
          "name": "totalPrice",
          "type": "uint256"
        },
        {
          "internalType": "uint256",
          "name": "timestamp",
          "type": "uint256"
        },
        {
          "internalType": "uint256",
          "name": "deliveryTime",
          "type": "uint256"
        },
        {
          "internalType": "string",
          "name": "region",
          "type": "string"
        },
        {
          "internalType": "uint256",
          "name": "status",
          "type": "uint256"
        },
        {
          "internalType": "bool",
          "name": "isCertified",
          "type": "bool"
        },
        {
          "internalType": "uint256",
          "name": "certificateId",
          "type": "uint256"
        }
      ],
      "stateMutability": "view",
      "type": "function",
      "constant": true
    },
    {
      "inputs": [
        {
          "internalType": "uint256",
          "name": "_offerId",
          "type": "uint256"
        }
      ],
      "name": "getOffer",
      "outputs": [
        {
          "internalType": "uint256",
          "name": "id",
          "type": "uint256"
        },
        {
          "internalType": "address",
          "name": "seller",
          "type": "address"
        },
        {
          "internalType": "uint256",
          "name": "energyAmount",
          "type": "uint256"
        },
        {
          "internalType": "uint256",
          "name": "pricePerUnit",
          "type": "uint256"
        },
        {
          "internalType": "uint256",
          "name": "minPurchaseAmount",
          "type": "uint256"
        },
        {
          "internalType": "uint256",
          "name": "expirationTime",
          "type": "uint256"
        },
        {
          "internalType": "string",
          "name": "region",
          "type": "string"
        },
        {
          "internalType": "bool",
          "name": "isCertified",
          "type": "bool"
        },
        {
          "internalType": "bool",
          "name": "isActive",
          "type": "bool"
        }
      ],
      "stateMutability": "view",
      "type": "function",
      "constant": true
    },
    {
      "inputs": [
        {
          "internalType": "string",
          "name": "_region",
          "type": "string"
        }
      ],
      "name": "getRegionOffers",
      "outputs": [
        {
          "internalType": "uint256[]",
          "name": "",
          "type": "uint256[]"
        }
      ],
      "stateMutability": "view",
      "type": "function",
      "constant": true
    },
    {
      "inputs": [
        {
          "internalType": "address",
          "name": "_seller",
          "type": "address"
        }
      ],
      "name": "getSellerOffers",
      "outputs": [
        {
          "internalType": "uint256[]",
          "name": "",
          "type": "uint256[]"
        }
      ],
      "stateMutability": "view",
      "type": "function",
      "constant": true
    },
    {
      "inputs": [
        {
          "internalType": "address",
          "name": "_seller",
          "type": "address"
        }
      ],
      "name": "getSellerTrades",
      "outputs": [
        {
          "internalType": "uint256[]",
          "name": "",
          "type": "uint256[]"
        }
      ],
      "stateMutability": "view",
      "type": "function",
      "constant": true
    },
    {
      "inputs": [
        {
          "internalType": "address",
          "name": "_buyer",
          "type": "address"
        }
      ],
      "name": "getBuyerTrades",
      "outputs": [
        {
          "internalType": "uint256[]",
          "name": "",
          "type": "uint256[]"
        }
      ],
      "stateMutability": "view",
      "type": "function",
      "constant": true
    },
    {
      "inputs": [],
      "name": "getMarketMetrics",
      "outputs": [
        {
          "internalType": "uint256",
          "name": "totalTrades",
          "type": "uint256"
        },
        {
          "internalType": "uint256",
          "name": "totalVolumeTraded",
          "type": "uint256"
        },
        {
          "internalType": "uint256",
          "name": "totalValueTraded",
          "type": "uint256"
        },
        {
          "internalType": "uint256",
          "name": "averagePrice",
          "type": "uint256"
        }
      ],
      "stateMutability": "view",
      "type": "function",
      "constant": true
    },
    {
      "inputs": [
        {
          "internalType": "string",
          "name": "_region",
          "type": "string"
        }
      ],
      "name": "getRegionMarketMetrics",
      "outputs": [
        {
          "internalType": "uint256",
          "name": "volume",
          "type": "uint256"
        },
        {
          "internalType": "uint256",
          "name": "value",
          "type": "uint256"
        },
        {
          "internalType": "uint256",
          "name": "averagePrice",
          "type": "uint256"
        }
      ],
      "stateMutability": "view",
      "type": "function",
      "constant": true
    },
    {
      "inputs": [
        {
          "internalType": "uint256",
          "name": "_newFeeRate",
          "type": "uint256"
        }
      ],
      "name": "setPlatformFeeRate",
      "outputs": [],
      "stateMutability": "nonpayable",
      "type": "function"
    },
    {
      "inputs": [
        {
          "internalType": "address",
          "name": "_newFeeRecipient",
          "type": "address"
        }
      ],
      "name": "setFeeRecipient",
      "outputs": [],
      "stateMutability": "nonpayable",
      "type": "function"
    },
    {
      "inputs": [
        {
          "internalType": "address",
          "name": "_certificateContract",
          "type": "address"
        }
      ],
      "name": "setCertificateContract",
      "outputs": [],
      "stateMutability": "nonpayable",
      "type": "function"
    },
    {
      "inputs": [
        {
          "internalType": "address",
          "name": "_loggerContract",
          "type": "address"
        }
      ],
      "name": "setLoggerContract",
      "outputs": [],
      "stateMutability": "nonpayable",
      "type": "function"
    },
    {
      "inputs": [],
      "name": "withdrawETH",
      "outputs": [],
      "stateMutability": "nonpayable",
      "type": "function"
    }
  ],
  "bytecode": "0x608060405260fa6010553480156200001657600080fd5b506040516200580a3803806200580a83398181016040528101906200003c9190620001b2565b33600f60006101000a81548173ffffffffffffffffffffffffffffffffffffffff021916908373ffffffffffffffffffffffffffffffffffffffff16021790555033601160006101000a81548173ffffffffffffffffffffffffffffffffffffffff021916908373ffffffffffffffffffffffffffffffffffffffff16021790555081600d60006101000a81548173ffffffffffffffffffffffffffffffffffffffff021916908373ffffffffffffffffffffffffffffffffffffffff16021790555080600e60006101000a81548173ffffffffffffffffffffffffffffffffffffffff021916908373ffffffffffffffffffffffffffffffffffffffff1602179055505050620001f9565b600080fd5b600073ffffffffffffffffffffffffffffffffffffffff82169050919050565b60006200017a826200014d565b9050919050565b6200018c816200016d565b81146200019857600080fd5b50565b600081519050620001ac8162000181565b92915050565b60008060408385031215620001cc57620001cb62000148565b5b6000620001dc858286016200019b565b9250506020620001ef858286016200019b565b9150509250929050565b61560180620002096000396000f3fe6080604052600436106101c65760003560e01c806372470ea7116100f7578063927fef2e11610095578063e460112a11610064578063e460112a1461070c578063e74b981b1461073a578063eeca08f014610763578063ef706adf1461078e576101cd565b8063927fef2e14610666578063ad2215511461068f578063d03dcc6c146106b8578063e086e5ec146106f5576101cd565b80638436460b116100d15780638436460b1461057c578063892fa5d6146105b95780638a72ea6a146105f65780638da5cb5b1461063b576101cd565b806372470ea7146104e65780637e930a5c1461052357806381257bd514610560576101cd565b80632db25e0511610164578063469048401161013e57806346904840146104185780634f18f54b146104435780635186240114610480578063678234b8146104a9576101cd565b80632db25e051461034c5780634430e77f146103945780634579268a146103d3576101cd565b80631e6c598e116101a05780631e6c598e146102615780632644c05c146102a9578063276fe712146102d25780632bce352a1461030f576101cd565b806307061a94146101d257806309ec6cc7146101fb5780631354072b14610224576101cd565b366101cd57005b600080fd5b3480156101de57600080fd5b506101f960048036038101906101f491906138f1565b6107b7565b005b34801561020757600080fd5b50610222600480360381019061021d9190613954565b6108fa565b005b34801561023057600080fd5b5061024b600480360381019061024691906138f1565b610b80565b6040516102589190613a3f565b60405180910390f35b34801561026d57600080fd5b5061028860048036038101906102839190613954565b610c17565b6040516102a09c9b9a99989796959493929190613ba1565b60405180910390f35b3480156102b557600080fd5b506102d060048036038101906102cb9190613c62565b610d69565b005b3480156102de57600080fd5b506102f960048036038101906102f49190613cdd565b611036565b6040516103069190613d1d565b60405180910390f35b34801561031b57600080fd5b50610336600480360381019061033191906138f1565b611067565b6040516103439190613a3f565b60405180910390f35b34801561035857600080fd5b50610373600480360381019061036e9190613954565b6110fe565b60405161038b9c9b9a99989796959493929190613d38565b60405180910390f35b3480156103a057600080fd5b506103bb60048036038101906103b69190613f2e565b6113dc565b6040516103ca93929190613f77565b60405180910390f35b3480156103df57600080fd5b506103fa60048036038101906103f59190613954565b611464565b60405161040f99989796959493929190613fae565b60405180910390f35b34801561042457600080fd5b5061042d611689565b60405161043a9190614042565b60405180910390f35b34801561044f57600080fd5b5061046a60048036038101906104659190613cdd565b6116af565b6040516104779190613d1d565b60405180910390f35b34801561048c57600080fd5b506104a760048036038101906104a291906138f1565b6116e0565b005b3480156104b557600080fd5b506104d060048036038101906104cb9190613f2e565b611823565b6040516104dd9190613a3f565b60405180910390f35b3480156104f257600080fd5b5061050d6004803603810190610508919061405d565b611899565b60405161051a9190613d1d565b60405180910390f35b34801561052f57600080fd5b5061054a60048036038101906105459190613cdd565b611e93565b6040516105579190613d1d565b60405180910390f35b61057a600480360381019061057591906140f4565b611ec4565b005b34801561058857600080fd5b506105a3600480360381019061059e9190614160565b612a45565b6040516105b09190613d1d565b60405180910390f35b3480156105c557600080fd5b506105e060048036038101906105db91906138f1565b612ec8565b6040516105ed9190613a3f565b60405180910390f35b34801561060257600080fd5b5061061d60048036038101906106189190613954565b612f5f565b60405161063299989796959493929190613fae565b60405180910390f35b34801561064757600080fd5b5061065061307f565b60405161065d9190614042565b60405180910390f35b34801561067257600080fd5b5061068d60048036038101906106889190613954565b6130a5565b005b34801561069b57600080fd5b506106b660048036038101906106b19190613954565b613184565b005b3480156106c457600080fd5b506106df60048036038101906106da9190614209565b61337b565b6040516106ec9190613d1d565b60405180910390f35b34801561070157600080fd5b5061070a6133c2565b005b34801561071857600080fd5b5061072161356c565b6040516107319493929190614265565b60405180910390f35b34801561074657600080fd5b50610761600480360381019061075c91906138f1565b613598565b005b34801561076f57600080fd5b506107786136db565b6040516107859190613d1d565b60405180910390f35b34801561079a57600080fd5b506107b560048036038101906107b09190613954565b6136e1565b005b600f60009054906101000a900473ffffffffffffffffffffffffffffffffffffffff1673ffffffffffffffffffffffffffffffffffffffff163373ffffffffffffffffffffffffffffffffffffffff1614610847576040517f08c379a000000000000000000000000000000000000000000000000000000000815260040161083e9061431c565b60405180910390fd5b600073ffffffffffffffffffffffffffffffffffffffff168173ffffffffffffffffffffffffffffffffffffffff16036108b6576040517f08c379a00000000000000000000000000000000000000000000000000000000081526004016108ad90614388565b60405180910390fd5b80600e60006101000a81548173ffffffffffffffffffffffffffffffffffffffff021916908373ffffffffffffffffffffffffffffffffffffffff16021790555050565b6000805490508110610941576040517f08c379a0000000000000000000000000000000000000000000000000000000008152600401610938906143f4565b60405180910390fd5b600080828154811061095657610955614414565b5b90600052602060002090600b020190506000600281111561097a57610979613b0f565b5b8160090160009054906101000a900460ff16600281111561099e5761099d613b0f565b5b146109de576040517f08c379a00000000000000000000000000000000000000000000000000000000081526004016109d59061448f565b60405180910390fd5b8060010160009054906101000a900473ffffffffffffffffffffffffffffffffffffffff1673ffffffffffffffffffffffffffffffffffffffff163373ffffffffffffffffffffffffffffffffffffffff161480610a8b57508060020160009054906101000a900473ffffffffffffffffffffffffffffffffffffffff1673ffffffffffffffffffffffffffffffffffffffff163373ffffffffffffffffffffffffffffffffffffffff16145b80610ae35750600f60009054906101000a900473ffffffffffffffffffffffffffffffffffffffff1673ffffffffffffffffffffffffffffffffffffffff163373ffffffffffffffffffffffffffffffffffffffff16145b610b22576040517f08c379a0000000000000000000000000000000000000000000000000000000008152600401610b19906144fb565b60405180910390fd5b60028160090160006101000a81548160ff02191690836002811115610b4a57610b49613b0f565b5b0217905550817f4e02dcf02d8510f6c8a6878a3c54ae6e2bfbf552df29221d7a1eed173a6b1ae760405160405180910390a25050565b6060600260008373ffffffffffffffffffffffffffffffffffffffff1673ffffffffffffffffffffffffffffffffffffffff168152602001908152602001600020805480602002602001604051908101604052809291908181526020018280548015610c0b57602002820191906000526020600020905b815481526020019060010190808311610bf7575b50505050509050919050565b60008181548110610c2757600080fd5b90600052602060002090600b02016000915090508060000154908060010160009054906101000a900473ffffffffffffffffffffffffffffffffffffffff16908060020160009054906101000a900473ffffffffffffffffffffffffffffffffffffffff1690806003015490806004015490806005015490806006015490806007015490806008018054610cba9061454a565b80601f0160208091040260200160405190810160405280929190818152602001828054610ce69061454a565b8015610d335780601f10610d0857610100808354040283529160200191610d33565b820191906000526020600020905b815481529060010190602001808311610d1657829003601f168201915b5050505050908060090160009054906101000a900460ff16908060090160019054906101000a900460ff169080600a015490508c565b6001805490508510610db0576040517f08c379a0000000000000000000000000000000000000000000000000000000008152600401610da7906145c7565b60405180910390fd5b600060018681548110610dc657610dc5614414565b5b906000526020600020906008020190503373ffffffffffffffffffffffffffffffffffffffff168160010160009054906101000a900473ffffffffffffffffffffffffffffffffffffffff1673ffffffffffffffffffffffffffffffffffffffff1614610e68576040517f08c379a0000000000000000000000000000000000000000000000000000000008152600401610e5f90614633565b60405180910390fd5b8060070160019054906101000a900460ff16610eb9576040517f08c379a0000000000000000000000000000000000000000000000000000000008152600401610eb09061469f565b60405180910390fd5b60008511610efc576040517f08c379a0000000000000000000000000000000000000000000000000000000008152600401610ef39061470b565b60405180910390fd5b60008411610f3f576040517f08c379a0000000000000000000000000000000000000000000000000000000008152600401610f3690614777565b60405180910390fd5b600083118015610f4f5750848311155b610f8e576040517f08c379a0000000000000000000000000000000000000000000000000000000008152600401610f85906147e3565b60405180910390fd5b428211610fd0576040517f08c379a0000000000000000000000000000000000000000000000000000000008152600401610fc790614875565b60405180910390fd5b848160020181905550838160030181905550828160040181905550818160050181905550857f67a06c25c70c62c9e84b7fd26a70b3766b7aa7e05a6dd71267eeb737344db4508686604051611026929190614895565b60405180910390a2505050505050565b6003602052816000526040600020818154811061105257600080fd5b90600052602060002001600091509150505481565b6060600460008373ffffffffffffffffffffffffffffffffffffffff1673ffffffffffffffffffffffffffffffffffffffff1681526020019081526020016000208054806020026020016040519081016040528092919081815260200182805480156110f257602002820191906000526020600020905b8154815260200190600101908083116110de575b50505050509050919050565b6000806000806000806000806060600080600080805490508d10611157576040517f08c379a000000000000000000000000000000000000000000000000000000000815260040161114e906143f4565b60405180910390fd5b6000808e8154811061116c5761116b614414565b5b90600052602060002090600b020160405180610180016040529081600082015481526020016001820160009054906101000a900473ffffffffffffffffffffffffffffffffffffffff1673ffffffffffffffffffffffffffffffffffffffff1673ffffffffffffffffffffffffffffffffffffffff1681526020016002820160009054906101000a900473ffffffffffffffffffffffffffffffffffffffff1673ffffffffffffffffffffffffffffffffffffffff1673ffffffffffffffffffffffffffffffffffffffff168152602001600382015481526020016004820154815260200160058201548152602001600682015481526020016007820154815260200160088201805461127e9061454a565b80601f01602080910402602001604051908101604052809291908181526020018280546112aa9061454a565b80156112f75780601f106112cc576101008083540402835291602001916112f7565b820191906000526020600020905b8154815290600101906020018083116112da57829003601f168201915b505050505081526020016009820160009054906101000a900460ff16600281111561132557611324613b0f565b5b600281111561133757611336613b0f565b5b81526020016009820160019054906101000a900460ff16151515158152602001600a820154815250509050806000015181602001518260400151836060015184608001518560a001518660c001518760e0015188610100015189610120015160028111156113a8576113a7613b0f565b5b8a61014001518b61016001519c509c509c509c509c509c509c509c509c509c509c509c505091939597999b5091939597999b565b6000806000806006600401856040516113f591906148fa565b9081526020016040518091039020549050600060066005018660405161141b91906148fa565b90815260200160405180910390205490506000600680018760405161144091906148fa565b90815260200160405180910390205490508282829550955095505050509193909250565b60008060008060008060606000806001805490508a106114b9576040517f08c379a00000000000000000000000000000000000000000000000000000000081526004016114b0906145c7565b60405180910390fd5b600060018b815481106114cf576114ce614414565b5b906000526020600020906008020160405180610120016040529081600082015481526020016001820160009054906101000a900473ffffffffffffffffffffffffffffffffffffffff1673ffffffffffffffffffffffffffffffffffffffff1673ffffffffffffffffffffffffffffffffffffffff168152602001600282015481526020016003820154815260200160048201548152602001600582015481526020016006820180546115819061454a565b80601f01602080910402602001604051908101604052809291908181526020018280546115ad9061454a565b80156115fa5780601f106115cf576101008083540402835291602001916115fa565b820191906000526020600020905b8154815290600101906020018083116115dd57829003601f168201915b505050505081526020016007820160009054906101000a900460ff161515151581526020016007820160019054906101000a900460ff1615151515815250509050806000015181602001518260400151836060015184608001518560a001518660c001518760e00151886101000151995099509950995099509950995099509950509193959799909294969850565b601160009054906101000a900473ffffffffffffffffffffffffffffffffffffffff1681565b600260205281600052604060002081815481106116cb57600080fd5b90600052602060002001600091509150505481565b600f60009054906101000a900473ffffffffffffffffffffffffffffffffffffffff1673ffffffffffffffffffffffffffffffffffffffff163373ffffffffffffffffffffffffffffffffffffffff1614611770576040517f08c379a00000000000000000000000000000000000000000000000000000000081526004016117679061431c565b60405180910390fd5b600073ffffffffffffffffffffffffffffffffffffffff168173ffffffffffffffffffffffffffffffffffffffff16036117df576040517f08c379a00000000000000000000000000000000000000000000000000000000081526004016117d690614983565b60405180910390fd5b80600d60006101000a81548173ffffffffffffffffffffffffffffffffffffffff021916908373ffffffffffffffffffffffffffffffffffffffff16021790555050565b606060058260405161183591906148fa565b908152602001604051809103902080548060200260200160405190810160405280929190818152602001828054801561188d57602002820191906000526020600020905b815481526020019060010190808311611879575b50505050509050919050565b60008073ffffffffffffffffffffffffffffffffffffffff168673ffffffffffffffffffffffffffffffffffffffff16141580156119045750600073ffffffffffffffffffffffffffffffffffffffff168573ffffffffffffffffffffffffffffffffffffffff1614155b611943576040517f08c379a000000000000000000000000000000000000000000000000000000000815260040161193a906149ef565b60405180910390fd5b60008411611986576040517f08c379a000000000000000000000000000000000000000000000000000000000815260040161197d9061470b565b60405180910390fd5b600083856119949190614a3e565b905060008080549050905060006040518061018001604052808381526020018a73ffffffffffffffffffffffffffffffffffffffff1681526020018973ffffffffffffffffffffffffffffffffffffffff16815260200188815260200187815260200184815260200142815260200142815260200186815260200160016002811115611a2357611a22613b0f565b5b81526020016000151581526020016000815250905060008190806001815401808255809150506001900390600052602060002090600b02016000909190919091506000820151816000015560208201518160010160006101000a81548173ffffffffffffffffffffffffffffffffffffffff021916908373ffffffffffffffffffffffffffffffffffffffff16021790555060408201518160020160006101000a81548173ffffffffffffffffffffffffffffffffffffffff021916908373ffffffffffffffffffffffffffffffffffffffff160217905550606082015181600301556080820151816004015560a0820151816005015560c0820151816006015560e08201518160070155610100820151816008019081611b449190614c2c565b506101208201518160090160006101000a81548160ff02191690836002811115611b7157611b70613b0f565b5b02179055506101408201518160090160016101000a81548160ff02191690831515021790555061016082015181600a01555050600260008a73ffffffffffffffffffffffffffffffffffffffff1673ffffffffffffffffffffffffffffffffffffffff168152602001908152602001600020829080600181540180825580915050600190039060005260206000200160009091909190915055600360008973ffffffffffffffffffffffffffffffffffffffff1673ffffffffffffffffffffffffffffffffffffffff16815260200190815260200160002082908060018154018082558091505060019003906000526020600020016000909190919091505560066000016000815480929190611c8690614cfe565b91905055508660066001016000828254611ca09190614d46565b925050819055508260066002016000828254611cbc9190614d46565b92505081905550600660010154600660020154611cd99190614da9565b60066003018190555086600660040186604051611cf691906148fa565b90815260200160405180910390206000828254611d139190614d46565b9250508190555082600660050186604051611d2e91906148fa565b90815260200160405180910390206000828254611d4b9190614d46565b925050819055506000600660040186604051611d6791906148fa565b9081526020016040518091039020541115611def57600660040185604051611d8f91906148fa565b908152602001604051809103902054600660050186604051611db191906148fa565b908152602001604051809103902054611dca9190614da9565b6006800186604051611ddc91906148fa565b9081526020016040518091039020819055505b8773ffffffffffffffffffffffffffffffffffffffff168973ffffffffffffffffffffffffffffffffffffffff16837ff7cdeae600171136f77d3df848176c47ce8102a3be1a47edcfda2b7b892fe3018a87604051611e4f929190614895565b60405180910390a4817f60f91a26281f20fb528663f4da55773c83e2ee8a7a5dddb6d1753749e81dc49b60405160405180910390a281935050505095945050505050565b60046020528160005260406000208181548110611eaf57600080fd5b90600052602060002001600091509150505481565b6001805490508210611f0b576040517f08c379a0000000000000000000000000000000000000000000000000000000008152600401611f02906145c7565b60405180910390fd5b600060018381548110611f2157611f20614414565b5b906000526020600020906008020190508060070160019054906101000a900460ff16611f82576040517f08c379a0000000000000000000000000000000000000000000000000000000008152600401611f799061469f565b60405180910390fd5b80600501544210611fc8576040517f08c379a0000000000000000000000000000000000000000000000000000000008152600401611fbf90614e26565b60405180910390fd5b806004015482101561200f576040517f08c379a000000000000000000000000000000000000000000000000000000000815260040161200690614e92565b60405180910390fd5b8060020154821115612056576040517f08c379a000000000000000000000000000000000000000000000000000000000815260040161204d90614f24565b60405180910390fd5b60008160030154836120689190614a3e565b9050803410156120ad576040517f08c379a00000000000000000000000000000000000000000000000000000000081526004016120a490614f90565b60405180910390fd5b60008260070160009054906101000a90505060008080549050905060006040518061018001604052808381526020018660010160009054906101000a900473ffffffffffffffffffffffffffffffffffffffff1673ffffffffffffffffffffffffffffffffffffffff1681526020013373ffffffffffffffffffffffffffffffffffffffff1681526020018781526020018660030154815260200185815260200142815260200162015180426121639190614d46565b81526020018660060180546121779061454a565b80601f01602080910402602001604051908101604052809291908181526020018280546121a39061454a565b80156121f05780601f106121c5576101008083540402835291602001916121f0565b820191906000526020600020905b8154815290600101906020018083116121d357829003601f168201915b505050505081526020016000600281111561220e5761220d613b0f565b5b81526020018660070160009054906101000a900460ff161515815260200184815250905060008190806001815401808255809150506001900390600052602060002090600b02016000909190919091506000820151816000015560208201518160010160006101000a81548173ffffffffffffffffffffffffffffffffffffffff021916908373ffffffffffffffffffffffffffffffffffffffff16021790555060408201518160020160006101000a81548173ffffffffffffffffffffffffffffffffffffffff021916908373ffffffffffffffffffffffffffffffffffffffff160217905550606082015181600301556080820151816004015560a0820151816005015560c0820151816006015560e0820151816007015561010082015181600801908161233e9190614c2c565b506101208201518160090160006101000a81548160ff0219169083600281111561236b5761236a613b0f565b5b02179055506101408201518160090160016101000a81548160ff02191690831515021790555061016082015181600a01555050600260008660010160009054906101000a900473ffffffffffffffffffffffffffffffffffffffff1673ffffffffffffffffffffffffffffffffffffffff1673ffffffffffffffffffffffffffffffffffffffff168152602001908152602001600020829080600181540180825580915050600190039060005260206000200160009091909190915055600360003373ffffffffffffffffffffffffffffffffffffffff1673ffffffffffffffffffffffffffffffffffffffff168152602001908152602001600020829080600181540180825580915050600190039060005260206000200160009091909190915055858560020160008282546124a29190614fb0565b925050819055508460040154856002015410156124d75760008560070160016101000a81548160ff0219169083151502179055505b600660000160008154809291906124ed90614cfe565b919050555085600660010160008282546125079190614d46565b9250508190555083600660020160008282546125239190614d46565b925050819055506006600101546006600201546125409190614da9565b600660030181905550856006600401866006016040516125609190615067565b9081526020016040518091039020600082825461257d9190614d46565b925050819055508360066005018660060160405161259b9190615067565b908152602001604051809103902060008282546125b89190614d46565b9250508190555060006006600401866006016040516125d79190615067565b9081526020016040518091039020541115612668576006600401856006016040516126029190615067565b9081526020016040518091039020546006600501866006016040516126279190615067565b9081526020016040518091039020546126409190614da9565b60068001866006016040516126559190615067565b9081526020016040518091039020819055505b60006127106010548661267b9190614a3e565b6126859190614da9565b9050600081866126959190614fb0565b905060008211156127cb576000601160009054906101000a900473ffffffffffffffffffffffffffffffffffffffff1673ffffffffffffffffffffffffffffffffffffffff16836040516126e8906150af565b60006040518083038185875af1925050503d8060008114612725576040519150601f19603f3d011682016040523d82523d6000602084013e61272a565b606091505b505090508061276e576040517f08c379a000000000000000000000000000000000000000000000000000000000815260040161276590615110565b60405180910390fd5b7fcf1bd34e586f4e12ef1c4c84c337b05dd3f7fc5409e16c5fea9063524eb7702283601160009054906101000a900473ffffffffffffffffffffffffffffffffffffffff166040516127c1929190615130565b60405180910390a1505b60008760010160009054906101000a900473ffffffffffffffffffffffffffffffffffffffff1673ffffffffffffffffffffffffffffffffffffffff1682604051612815906150af565b60006040518083038185875af1925050503d8060008114612852576040519150601f19603f3d011682016040523d82523d6000602084013e612857565b606091505b505090508061289b576040517f08c379a0000000000000000000000000000000000000000000000000000000008152600401612892906151a5565b60405180910390fd5b8634111561295c5760003373ffffffffffffffffffffffffffffffffffffffff1688346128c89190614fb0565b6040516128d4906150af565b60006040518083038185875af1925050503d8060008114612911576040519150601f19603f3d011682016040523d82523d6000602084013e612916565b606091505b505090508061295a576040517f08c379a000000000000000000000000000000000000000000000000000000000815260040161295190615211565b60405180910390fd5b505b3373ffffffffffffffffffffffffffffffffffffffff168a7f1af0dda70fa313a26fdffb3d1ad4e70836d36fedc4a635c8064748e893ea5d198b8a6040516129a5929190614895565b60405180910390a33373ffffffffffffffffffffffffffffffffffffffff168860010160009054906101000a900473ffffffffffffffffffffffffffffffffffffffff1673ffffffffffffffffffffffffffffffffffffffff16867ff7cdeae600171136f77d3df848176c47ce8102a3be1a47edcfda2b7b892fe3018c8b604051612a31929190614895565b60405180910390a450505050505050505050565b6000808711612a89576040517f08c379a0000000000000000000000000000000000000000000000000000000008152600401612a809061470b565b60405180910390fd5b60008611612acc576040517f08c379a0000000000000000000000000000000000000000000000000000000008152600401612ac390614777565b60405180910390fd5b600085118015612adc5750868511155b612b1b576040517f08c379a0000000000000000000000000000000000000000000000000000000008152600401612b12906147e3565b60405180910390fd5b428411612b5d576040517f08c379a0000000000000000000000000000000000000000000000000000000008152600401612b5490614875565b60405180910390fd5b8115612c54576000600d60009054906101000a900473ffffffffffffffffffffffffffffffffffffffff1673ffffffffffffffffffffffffffffffffffffffff1663f1c49c62336040518263ffffffff1660e01b8152600401612bc09190614042565b602060405180830381865afa158015612bdd573d6000803e3d6000fd5b505050506040513d601f19601f82011682018060405250810190612c019190615246565b905087606482612c119190614a3e565b1015612c52576040517f08c379a0000000000000000000000000000000000000000000000000000000008152600401612c49906152e5565b60405180910390fd5b505b6000600180549050905060006040518061012001604052808381526020013373ffffffffffffffffffffffffffffffffffffffff1681526020018a8152602001898152602001888152602001878152602001868152602001851515815260200160011515815250905060018190806001815401808255809150506001900390600052602060002090600802016000909190919091506000820151816000015560208201518160010160006101000a81548173ffffffffffffffffffffffffffffffffffffffff021916908373ffffffffffffffffffffffffffffffffffffffff16021790555060408201518160020155606082015181600301556080820151816004015560a0820151816005015560c0820151816006019081612d779190614c2c565b5060e08201518160070160006101000a81548160ff0219169083151502179055506101008201518160070160016101000a81548160ff0219169083151502179055505050600460003373ffffffffffffffffffffffffffffffffffffffff1673ffffffffffffffffffffffffffffffffffffffff168152602001908152602001600020829080600181540180825580915050600190039060005260206000200160009091909190915055600585604051612e3191906148fa565b90815260200160405180910390208290806001815401808255809150506001900390600052602060002001600090919091909150553373ffffffffffffffffffffffffffffffffffffffff16827febe4ebb6a404e3d9e9e522c58a44c4a08464c7d3a93611e6e53bbd421b60dd608b8b89604051612eb193929190615305565b60405180910390a381925050509695505050505050565b6060600360008373ffffffffffffffffffffffffffffffffffffffff1673ffffffffffffffffffffffffffffffffffffffff168152602001908152602001600020805480602002602001604051908101604052809291908181526020018280548015612f5357602002820191906000526020600020905b815481526020019060010190808311612f3f575b50505050509050919050565b60018181548110612f6f57600080fd5b90600052602060002090600802016000915090508060000154908060010160009054906101000a900473ffffffffffffffffffffffffffffffffffffffff1690806002015490806003015490806004015490806005015490806006018054612fd69061454a565b80601f01602080910402602001604051908101604052809291908181526020018280546130029061454a565b801561304f5780601f106130245761010080835404028352916020019161304f565b820191906000526020600020905b81548152906001019060200180831161303257829003601f168201915b5050505050908060070160009054906101000a900460ff16908060070160019054906101000a900460ff16905089565b600f60009054906101000a900473ffffffffffffffffffffffffffffffffffffffff1681565b600f60009054906101000a900473ffffffffffffffffffffffffffffffffffffffff1673ffffffffffffffffffffffffffffffffffffffff163373ffffffffffffffffffffffffffffffffffffffff1614613135576040517f08c379a000000000000000000000000000000000000000000000000000000000815260040161312c9061431c565b60405180910390fd5b6103e881111561317a576040517f08c379a00000000000000000000000000000000000000000000000000000000081526004016131719061538f565b60405180910390fd5b8060108190555050565b60008054905081106131cb576040517f08c379a00000000000000000000000000000000000000000000000000000000081526004016131c2906143f4565b60405180910390fd5b60008082815481106131e0576131df614414565b5b90600052602060002090600b020190503373ffffffffffffffffffffffffffffffffffffffff168160020160009054906101000a900473ffffffffffffffffffffffffffffffffffffffff1673ffffffffffffffffffffffffffffffffffffffff1614613282576040517f08c379a0000000000000000000000000000000000000000000000000000000008152600401613279906153fb565b60405180910390fd5b6000600281111561329657613295613b0f565b5b8160090160009054906101000a900460ff1660028111156132ba576132b9613b0f565b5b146132fa576040517f08c379a00000000000000000000000000000000000000000000000000000000081526004016132f19061448f565b60405180910390fd5b60018160090160006101000a81548160ff0219169083600281111561332257613321613b0f565b5b02179055508060090160019054906101000a900460ff1680156133495750600081600a0154115b50817f60f91a26281f20fb528663f4da55773c83e2ee8a7a5dddb6d1753749e81dc49b60405160405180910390a25050565b60058280516020810182018051848252602083016020850120818352809550505050505081815481106133ad57600080fd5b90600052602060002001600091509150505481565b600f60009054906101000a900473ffffffffffffffffffffffffffffffffffffffff1673ffffffffffffffffffffffffffffffffffffffff163373ffffffffffffffffffffffffffffffffffffffff1614613452576040517f08c379a00000000000000000000000000000000000000000000000000000000081526004016134499061431c565b60405180910390fd5b60004790506000811161349a576040517f08c379a000000000000000000000000000000000000000000000000000000000815260040161349190615467565b60405180910390fd5b6000600f60009054906101000a900473ffffffffffffffffffffffffffffffffffffffff1673ffffffffffffffffffffffffffffffffffffffff16826040516134e2906150af565b60006040518083038185875af1925050503d806000811461351f576040519150601f19603f3d011682016040523d82523d6000602084013e613524565b606091505b5050905080613568576040517f08c379a000000000000000000000000000000000000000000000000000000000815260040161355f906154d3565b60405180910390fd5b5050565b600080600080600660000154600660010154600660020154600660030154935093509350935090919293565b600f60009054906101000a900473ffffffffffffffffffffffffffffffffffffffff1673ffffffffffffffffffffffffffffffffffffffff163373ffffffffffffffffffffffffffffffffffffffff1614613628576040517f08c379a000000000000000000000000000000000000000000000000000000000815260040161361f9061431c565b60405180910390fd5b600073ffffffffffffffffffffffffffffffffffffffff168173ffffffffffffffffffffffffffffffffffffffff1603613697576040517f08c379a000000000000000000000000000000000000000000000000000000000815260040161368e9061553f565b60405180910390fd5b80601160006101000a81548173ffffffffffffffffffffffffffffffffffffffff021916908373ffffffffffffffffffffffffffffffffffffffff16021790555050565b60105481565b6001805490508110613728576040517f08c379a000000000000000000000000000000000000000000000000000000000815260040161371f906145c7565b60405180910390fd5b60006001828154811061373e5761373d614414565b5b906000526020600020906008020190503373ffffffffffffffffffffffffffffffffffffffff168160010160009054906101000a900473ffffffffffffffffffffffffffffffffffffffff1673ffffffffffffffffffffffffffffffffffffffff16146137e0576040517f08c379a00000000000000000000000000000000000000000000000000000000081526004016137d7906155ab565b60405180910390fd5b8060070160019054906101000a900460ff16613831576040517f08c379a00000000000000000000000000000000000000000000000000000000081526004016138289061469f565b60405180910390fd5b60008160070160016101000a81548160ff021916908315150217905550817fc28b4aed030bfacc245c0501326e1beb8c0ef0d60e4edc21067fdeb52da2a7aa60405160405180910390a25050565b6000604051905090565b600080fd5b600080fd5b600073ffffffffffffffffffffffffffffffffffffffff82169050919050565b60006138be82613893565b9050919050565b6138ce816138b3565b81146138d957600080fd5b50565b6000813590506138eb816138c5565b92915050565b60006020828403121561390757613906613889565b5b6000613915848285016138dc565b91505092915050565b6000819050919050565b6139318161391e565b811461393c57600080fd5b50565b60008135905061394e81613928565b92915050565b60006020828403121561396a57613969613889565b5b60006139788482850161393f565b91505092915050565b600081519050919050565b600082825260208201905092915050565b6000819050602082019050919050565b6139b68161391e565b82525050565b60006139c883836139ad565b60208301905092915050565b6000602082019050919050565b60006139ec82613981565b6139f6818561398c565b9350613a018361399d565b8060005b83811015613a32578151613a1988826139bc565b9750613a24836139d4565b925050600181019050613a05565b5085935050505092915050565b60006020820190508181036000830152613a5981846139e1565b905092915050565b613a6a8161391e565b82525050565b613a79816138b3565b82525050565b600081519050919050565b600082825260208201905092915050565b60005b83811015613ab9578082015181840152602081019050613a9e565b60008484015250505050565b6000601f19601f8301169050919050565b6000613ae182613a7f565b613aeb8185613a8a565b9350613afb818560208601613a9b565b613b0481613ac5565b840191505092915050565b7f4e487b7100000000000000000000000000000000000000000000000000000000600052602160045260246000fd5b60038110613b4f57613b4e613b0f565b5b50565b6000819050613b6082613b3e565b919050565b6000613b7082613b52565b9050919050565b613b8081613b65565b82525050565b60008115159050919050565b613b9b81613b86565b82525050565b600061018082019050613bb7600083018f613a61565b613bc4602083018e613a70565b613bd1604083018d613a70565b613bde606083018c613a61565b613beb608083018b613a61565b613bf860a083018a613a61565b613c0560c0830189613a61565b613c1260e0830188613a61565b818103610100830152613c258187613ad6565b9050613c35610120830186613b77565b613c43610140830185613b92565b613c51610160830184613a61565b9d9c50505050505050505050505050565b600080600080600060a08688031215613c7e57613c7d613889565b5b6000613c8c8882890161393f565b9550506020613c9d8882890161393f565b9450506040613cae8882890161393f565b9350506060613cbf8882890161393f565b9250506080613cd08882890161393f565b9150509295509295909350565b60008060408385031215613cf457613cf3613889565b5b6000613d02858286016138dc565b9250506020613d138582860161393f565b9150509250929050565b6000602082019050613d326000830184613a61565b92915050565b600061018082019050613d4e600083018f613a61565b613d5b602083018e613a70565b613d68604083018d613a70565b613d75606083018c613a61565b613d82608083018b613a61565b613d8f60a083018a613a61565b613d9c60c0830189613a61565b613da960e0830188613a61565b818103610100830152613dbc8187613ad6565b9050613dcc610120830186613a61565b613dda610140830185613b92565b613de8610160830184613a61565b9d9c50505050505050505050505050565b600080fd5b600080fd5b7f4e487b7100000000000000000000000000000000000000000000000000000000600052604160045260246000fd5b613e3b82613ac5565b810181811067ffffffffffffffff82111715613e5a57613e59613e03565b5b80604052505050565b6000613e6d61387f565b9050613e798282613e32565b919050565b600067ffffffffffffffff821115613e9957613e98613e03565b5b613ea282613ac5565b9050602081019050919050565b82818337600083830152505050565b6000613ed1613ecc84613e7e565b613e63565b905082815260208101848484011115613eed57613eec613dfe565b5b613ef8848285613eaf565b509392505050565b600082601f830112613f1557613f14613df9565b5b8135613f25848260208601613ebe565b91505092915050565b600060208284031215613f4457613f43613889565b5b600082013567ffffffffffffffff811115613f6257613f6161388e565b5b613f6e84828501613f00565b91505092915050565b6000606082019050613f8c6000830186613a61565b613f996020830185613a61565b613fa66040830184613a61565b949350505050565b600061012082019050613fc4600083018c613a61565b613fd1602083018b613a70565b613fde604083018a613a61565b613feb6060830189613a61565b613ff86080830188613a61565b61400560a0830187613a61565b81810360c08301526140178186613ad6565b905061402660e0830185613b92565b614034610100830184613b92565b9a9950505050505050505050565b60006020820190506140576000830184613a70565b92915050565b600080600080600060a0868803121561407957614078613889565b5b6000614087888289016138dc565b9550506020614098888289016138dc565b94505060406140a98882890161393f565b93505060606140ba8882890161393f565b925050608086013567ffffffffffffffff8111156140db576140da61388e565b5b6140e788828901613f00565b9150509295509295909350565b6000806040838503121561410b5761410a613889565b5b60006141198582860161393f565b925050602061412a8582860161393f565b9150509250929050565b61413d81613b86565b811461414857600080fd5b50565b60008135905061415a81614134565b92915050565b60008060008060008060c0878903121561417d5761417c613889565b5b600061418b89828a0161393f565b965050602061419c89828a0161393f565b95505060406141ad89828a0161393f565b94505060606141be89828a0161393f565b935050608087013567ffffffffffffffff8111156141df576141de61388e565b5b6141eb89828a01613f00565b92505060a06141fc89828a0161414b565b9150509295509295509295565b600080604083850312156142205761421f613889565b5b600083013567ffffffffffffffff81111561423e5761423d61388e565b5b61424a85828601613f00565b925050602061425b8582860161393f565b9150509250929050565b600060808201905061427a6000830187613a61565b6142876020830186613a61565b6142946040830185613a61565b6142a16060830184613a61565b95945050505050565b7f4f6e6c79206f776e65722063616e2063616c6c20746869732066756e6374696f60008201527f6e00000000000000000000000000000000000000000000000000000000000000602082015250565b6000614306602183613a8a565b9150614311826142aa565b604082019050919050565b60006020820190508181036000830152614335816142f9565b9050919050565b7f496e76616c6964206c6f6767657220636f6e7472616374206164647265737300600082015250565b6000614372601f83613a8a565b915061437d8261433c565b602082019050919050565b600060208201905081810360008301526143a181614365565b9050919050565b7f547261646520646f6573206e6f74206578697374000000000000000000000000600082015250565b60006143de601483613a8a565b91506143e9826143a8565b602082019050919050565b6000602082019050818103600083015261440d816143d1565b9050919050565b7f4e487b7100000000000000000000000000000000000000000000000000000000600052603260045260246000fd5b7f5472616465206973206e6f74206f70656e000000000000000000000000000000600082015250565b6000614479601183613a8a565b915061448482614443565b602082019050919050565b600060208201905081810360008301526144a88161446c565b9050919050565b7f556e617574686f72697a65640000000000000000000000000000000000000000600082015250565b60006144e5600c83613a8a565b91506144f0826144af565b602082019050919050565b60006020820190508181036000830152614514816144d8565b9050919050565b7f4e487b7100000000000000000000000000000000000000000000000000000000600052602260045260246000fd5b6000600282049050600182168061456257607f821691505b6020821081036145755761457461451b565b5b50919050565b7f4f6666657220646f6573206e6f74206578697374000000000000000000000000600082015250565b60006145b1601483613a8a565b91506145bc8261457b565b602082019050919050565b600060208201905081810360008301526145e0816145a4565b9050919050565b7f4f6e6c792073656c6c65722063616e20757064617465206f6666657200000000600082015250565b600061461d601c83613a8a565b9150614628826145e7565b602082019050919050565b6000602082019050818103600083015261464c81614610565b9050919050565b7f4f66666572206973206e6f742061637469766500000000000000000000000000600082015250565b6000614689601383613a8a565b915061469482614653565b602082019050919050565b600060208201905081810360008301526146b88161467c565b9050919050565b7f456e6572677920616d6f756e74206d75737420626520706f7369746976650000600082015250565b60006146f5601e83613a8a565b9150614700826146bf565b602082019050919050565b60006020820190508181036000830152614724816146e8565b9050919050565b7f5072696365206d75737420626520706f73697469766500000000000000000000600082015250565b6000614761601683613a8a565b915061476c8261472b565b602082019050919050565b6000602082019050818103600083015261479081614754565b9050919050565b7f496e76616c6964206d696e696d756d20707572636861736520616d6f756e7400600082015250565b60006147cd601f83613a8a565b91506147d882614797565b602082019050919050565b600060208201905081810360008301526147fc816147c0565b9050919050565b7f45787069726174696f6e2074696d65206d75737420626520696e20746865206660008201527f7574757265000000000000000000000000000000000000000000000000000000602082015250565b600061485f602583613a8a565b915061486a82614803565b604082019050919050565b6000602082019050818103600083015261488e81614852565b9050919050565b60006040820190506148aa6000830185613a61565b6148b76020830184613a61565b9392505050565b600081905092915050565b60006148d482613a7f565b6148de81856148be565b93506148ee818560208601613a9b565b80840191505092915050565b600061490682846148c9565b915081905092915050565b7f496e76616c696420636572746966696361746520636f6e74726163742061646460008201527f7265737300000000000000000000000000000000000000000000000000000000602082015250565b600061496d602483613a8a565b915061497882614911565b604082019050919050565b6000602082019050818103600083015261499c81614960565b9050919050565b7f496e76616c696420616464726573736573000000000000000000000000000000600082015250565b60006149d9601183613a8a565b91506149e4826149a3565b602082019050919050565b60006020820190508181036000830152614a08816149cc565b9050919050565b7f4e487b7100000000000000000000000000000000000000000000000000000000600052601160045260246000fd5b6000614a498261391e565b9150614a548361391e565b9250828202614a628161391e565b91508282048414831517614a7957614a78614a0f565b5b5092915050565b60008190508160005260206000209050919050565b60006020601f8301049050919050565b600082821b905092915050565b600060088302614ae27fffffffffffffffffffffffffffffffffffffffffffffffffffffffffffffffff82614aa5565b614aec8683614aa5565b95508019841693508086168417925050509392505050565b6000819050919050565b6000614b29614b24614b1f8461391e565b614b04565b61391e565b9050919050565b6000819050919050565b614b4383614b0e565b614b57614b4f82614b30565b848454614ab2565b825550505050565b600090565b614b6c614b5f565b614b77818484614b3a565b505050565b5b81811015614b9b57614b90600082614b64565b600181019050614b7d565b5050565b601f821115614be057614bb181614a80565b614bba84614a95565b81016020851015614bc9578190505b614bdd614bd585614a95565b830182614b7c565b50505b505050565b600082821c905092915050565b6000614c0360001984600802614be5565b1980831691505092915050565b6000614c1c8383614bf2565b9150826002028217905092915050565b614c3582613a7f565b67ffffffffffffffff811115614c4e57614c4d613e03565b5b614c58825461454a565b614c63828285614b9f565b600060209050601f831160018114614c965760008415614c84578287015190505b614c8e8582614c10565b865550614cf6565b601f198416614ca486614a80565b60005b82811015614ccc57848901518255600182019150602085019450602081019050614ca7565b86831015614ce95784890151614ce5601f891682614bf2565b8355505b6001600288020188555050505b505050505050565b6000614d098261391e565b91507fffffffffffffffffffffffffffffffffffffffffffffffffffffffffffffffff8203614d3b57614d3a614a0f565b5b600182019050919050565b6000614d518261391e565b9150614d5c8361391e565b9250828201905080821115614d7457614d73614a0f565b5b92915050565b7f4e487b7100000000000000000000000000000000000000000000000000000000600052601260045260246000fd5b6000614db48261391e565b9150614dbf8361391e565b925082614dcf57614dce614d7a565b5b828204905092915050565b7f4f66666572206861732065787069726564000000000000000000000000000000600082015250565b6000614e10601183613a8a565b9150614e1b82614dda565b602082019050919050565b60006020820190508181036000830152614e3f81614e03565b9050919050565b7f507572636861736520616d6f756e742062656c6f77206d696e696d756d000000600082015250565b6000614e7c601d83613a8a565b9150614e8782614e46565b602082019050919050565b60006020820190508181036000830152614eab81614e6f565b9050919050565b7f507572636861736520616d6f756e74206578636565647320617661696c61626c60008201527f6520656e65726779000000000000000000000000000000000000000000000000602082015250565b6000614f0e602883613a8a565b9150614f1982614eb2565b604082019050919050565b60006020820190508181036000830152614f3d81614f01565b9050919050565b7f496e73756666696369656e74207061796d656e74000000000000000000000000600082015250565b6000614f7a601483613a8a565b9150614f8582614f44565b602082019050919050565b60006020820190508181036000830152614fa981614f6d565b9050919050565b6000614fbb8261391e565b9150614fc68361391e565b9250828203905081811115614fde57614fdd614a0f565b5b92915050565b60008154614ff18161454a565b614ffb81866148be565b94506001821660008114615016576001811461502b5761505e565b60ff198316865281151582028601935061505e565b61503485614a80565b60005b8381101561505657815481890152600182019150602081019050615037565b838801955050505b50505092915050565b60006150738284614fe4565b915081905092915050565b600081905092915050565b50565b600061509960008361507e565b91506150a482615089565b600082019050919050565b60006150ba8261508c565b9150819050919050565b7f466565207472616e73666572206661696c656400000000000000000000000000600082015250565b60006150fa601383613a8a565b9150615105826150c4565b602082019050919050565b60006020820190508181036000830152615129816150ed565b9050919050565b60006040820190506151456000830185613a61565b6151526020830184613a70565b9392505050565b7f53656c6c6572207472616e73666572206661696c656400000000000000000000600082015250565b600061518f601683613a8a565b915061519a82615159565b602082019050919050565b600060208201905081810360008301526151be81615182565b9050919050565b7f526566756e64207472616e73666572206661696c656400000000000000000000600082015250565b60006151fb601683613a8a565b9150615206826151c5565b602082019050919050565b6000602082019050818103600083015261522a816151ee565b9050919050565b60008151905061524081613928565b92915050565b60006020828403121561525c5761525b613889565b5b600061526a84828501615231565b91505092915050565b7f496e73756666696369656e742063657274696669636174657320666f7220636560008201527f7274696669656420656e65726779206f66666572000000000000000000000000602082015250565b60006152cf603483613a8a565b91506152da82615273565b604082019050919050565b600060208201905081810360008301526152fe816152c2565b9050919050565b600060608201905061531a6000830186613a61565b6153276020830185613a61565b81810360408301526153398184613ad6565b9050949350505050565b7f46656520726174652063616e6e6f742065786365656420313025000000000000600082015250565b6000615379601a83613a8a565b915061538482615343565b602082019050919050565b600060208201905081810360008301526153a88161536c565b9050919050565b7f4f6e6c792062757965722063616e20636f6d706c657465207472616465000000600082015250565b60006153e5601d83613a8a565b91506153f0826153af565b602082019050919050565b60006020820190508181036000830152615414816153d8565b9050919050565b7f4e6f2045544820746f2077697468647261770000000000000000000000000000600082015250565b6000615451601283613a8a565b915061545c8261541b565b602082019050919050565b6000602082019050818103600083015261548081615444565b9050919050565b7f5769746864726177616c206661696c6564000000000000000000000000000000600082015250565b60006154bd601183613a8a565b91506154c882615487565b602082019050919050565b600060208201905081810360008301526154ec816154b0565b9050919050565b7f496e76616c696420616464726573730000000000000000000000000000000000600082015250565b6000615529600f83613a8a565b9150615534826154f3565b602082019050919050565b600060208201905081810360008301526155588161551c565b9050919050565b7f4f6e6c792073656c6c65722063616e2063616e63656c206f6666657200000000600082015250565b6000615595601c83613a8a565b91506155a08261555f565b602082019050919050565b600060208201905081810360008301526155c481615588565b905091905056fea26469706673582212200aa24a4931512767497de627ffeac17371e2fe8ab99f36e7d89a1aa7dce5b7ab64736f6c63430008110033",
  "immutableReferences": {},
  "source": "// SPDX-License-Identifier: MIT\npragma solidity ^0.8.17;\n\nimport \"./Certificate.sol\";\nimport \"./EnergyLogger.sol\";\n\n/**\n * @title EnergyTradeLedger\n * @dev Advanced smart contract for peer-to-peer energy trading\n * with built-in market mechanisms, pricing, and renewable energy certificate integration\n */\ncontract EnergyTradeLedger {\n    // Trade status enum\n    enum TradeStatus { Open, Completed, Cancelled }\n    \n    // Trade struct with expanded details\n    struct Trade {\n        uint id;\n        address seller;\n        address buyer;\n        uint energyAmount; // in kWh\n        uint pricePerUnit; // price in wei per kWh\n        uint totalPrice; // total price in wei\n        uint timestamp;\n        uint deliveryTime; // when energy will be delivered\n        string region; // geographic region where trade occurs\n        TradeStatus status;\n        bool isCertified; // whether this trade includes renewable certificates\n        uint certificateId; // ID of the associated certificate, if any\n    }\n    \n    // Energy offer struct for the marketplace\n    struct EnergyOffer {\n        uint id;\n        address seller;\n        uint energyAmount;\n        uint pricePerUnit;\n        uint minPurchaseAmount;\n        uint expirationTime;\n        string region;\n        bool isCertified;\n        bool isActive;\n    }\n    \n    // Marketplace activity tracking\n    struct MarketMetrics {\n        uint totalTrades;\n        uint totalVolumeTraded;\n        uint totalValueTraded;\n        uint averagePrice;\n        mapping(string => uint) regionVolumes;\n        mapping(string => uint) regionValues;\n        mapping(string => uint) regionPrices;\n    }\n    \n    // All trades that have occurred\n    Trade[] public trades;\n    \n    // Active energy offers\n    EnergyOffer[] public offers;\n    \n    // Mapping from address to trades as seller\n    mapping(address => uint[]) public sellerTrades;\n    \n    // Mapping from address to trades as buyer\n    mapping(address => uint[]) public buyerTrades;\n    \n    // Mapping from address to offers\n    mapping(address => uint[]) public sellerOffers;\n    \n    // Mapping from region to active offers\n    mapping(string => uint[]) public regionOffers;\n    \n    // Market metrics\n    MarketMetrics private marketMetrics;\n    \n    // References to other contracts\n    RenewableCertificate private certificateContract;\n    EnergyLogger private loggerContract;\n    \n    // Contract owner\n    address public owner;\n    \n    // Platform fee percentage (in basis points, 100 = 1%)\n    uint public platformFeeRate = 250; // 2.5% by default\n    \n    // Platform fee recipient\n    address public feeRecipient;\n    \n    // Events\n    event TradeCreated(uint indexed tradeId, address indexed seller, address indexed buyer, uint energyAmount, uint totalPrice);\n    event TradeCompleted(uint indexed tradeId);\n    event TradeCancelled(uint indexed tradeId);\n    event OfferCreated(uint indexed offerId, address indexed seller, uint energyAmount, uint pricePerUnit, string region);\n    event OfferUpdated(uint indexed offerId, uint energyAmount, uint pricePerUnit);\n    event OfferCancelled(uint indexed offerId);\n    event OfferAccepted(uint indexed offerId, address indexed buyer, uint energyAmount, uint totalPrice);\n    event PlatformFeeCollected(uint amount, address recipient);\n    \n    // Modifiers\n    modifier onlyOwner() {\n        require(msg.sender == owner, \"Only owner can call this function\");\n        _;\n    }\n    \n    /**\n     * @dev Constructor sets the contract owner and references to other contracts\n     * @param _certificateContract Address of the RenewableCertificate contract\n     * @param _loggerContract Address of the EnergyLogger contract\n     */\n    constructor(address _certificateContract, address _loggerContract) {\n        owner = msg.sender;\n        feeRecipient = msg.sender;\n        certificateContract = RenewableCertificate(_certificateContract);\n        loggerContract = EnergyLogger(_loggerContract);\n    }\n    \n    /**\n     * @dev Create a new energy offer for the marketplace\n     * @param _energyAmount Amount of energy being offered (kWh)\n     * @param _pricePerUnit Price per kWh in wei\n     * @param _minPurchaseAmount Minimum amount that can be purchased (kWh)\n     * @param _expirationTime Time when offer expires (Unix timestamp)\n     * @param _region Geographic region where energy is available\n     * @param _isCertified Whether the energy comes with renewable certificates\n     * @return Offer ID\n     */\n    function createOffer(\n        uint _energyAmount,\n        uint _pricePerUnit,\n        uint _minPurchaseAmount,\n        uint _expirationTime,\n        string memory _region,\n        bool _isCertified\n    ) external returns (uint) {\n        require(_energyAmount > 0, \"Energy amount must be positive\");\n        require(_pricePerUnit > 0, \"Price must be positive\");\n        require(_minPurchaseAmount > 0 && _minPurchaseAmount <= _energyAmount, \"Invalid minimum purchase amount\");\n        require(_expirationTime > block.timestamp, \"Expiration time must be in the future\");\n        \n        // Check if seller has certificates if offering certified energy\n        if (_isCertified) {\n            uint certificateCount = certificateContract.getCertificates(msg.sender);\n            require(certificateCount * 100 >= _energyAmount, \"Insufficient certificates for certified energy offer\");\n        }\n        \n        uint offerId = offers.length;\n        \n        EnergyOffer memory newOffer = EnergyOffer({\n            id: offerId,\n            seller: msg.sender,\n            energyAmount: _energyAmount,\n            pricePerUnit: _pricePerUnit,\n            minPurchaseAmount: _minPurchaseAmount,\n            expirationTime: _expirationTime,\n            region: _region,\n            isCertified: _isCertified,\n            isActive: true\n        });\n        \n        offers.push(newOffer);\n        sellerOffers[msg.sender].push(offerId);\n        regionOffers[_region].push(offerId);\n        \n        emit OfferCreated(offerId, msg.sender, _energyAmount, _pricePerUnit, _region);\n        \n        return offerId;\n    }\n    \n    /**\n     * @dev Update an existing energy offer\n     * @param _offerId ID of the offer to update\n     * @param _energyAmount New energy amount\n     * @param _pricePerUnit New price per unit\n     * @param _minPurchaseAmount New minimum purchase amount\n     * @param _expirationTime New expiration time\n     */\n    function updateOffer(\n        uint _offerId,\n        uint _energyAmount,\n        uint _pricePerUnit,\n        uint _minPurchaseAmount,\n        uint _expirationTime\n    ) external {\n        require(_offerId < offers.length, \"Offer does not exist\");\n        EnergyOffer storage offer = offers[_offerId];\n        \n        require(offer.seller == msg.sender, \"Only seller can update offer\");\n        require(offer.isActive, \"Offer is not active\");\n        require(_energyAmount > 0, \"Energy amount must be positive\");\n        require(_pricePerUnit > 0, \"Price must be positive\");\n        require(_minPurchaseAmount > 0 && _minPurchaseAmount <= _energyAmount, \"Invalid minimum purchase amount\");\n        require(_expirationTime > block.timestamp, \"Expiration time must be in the future\");\n        \n        // Update offer details\n        offer.energyAmount = _energyAmount;\n        offer.pricePerUnit = _pricePerUnit;\n        offer.minPurchaseAmount = _minPurchaseAmount;\n        offer.expirationTime = _expirationTime;\n        \n        emit OfferUpdated(_offerId, _energyAmount, _pricePerUnit);\n    }\n    \n    /**\n     * @dev Cancel an existing energy offer\n     * @param _offerId ID of the offer to cancel\n     */\n    function cancelOffer(uint _offerId) external {\n        require(_offerId < offers.length, \"Offer does not exist\");\n        EnergyOffer storage offer = offers[_offerId];\n        \n        require(offer.seller == msg.sender, \"Only seller can cancel offer\");\n        require(offer.isActive, \"Offer is not active\");\n        \n        offer.isActive = false;\n        \n        emit OfferCancelled(_offerId);\n    }\n    \n    /**\n     * @dev Accept an energy offer and create a trade\n     * @param _offerId ID of the offer to accept\n     * @param _energyAmount Amount of energy to purchase\n     */\n    function acceptOffer(uint _offerId, uint _energyAmount) external payable {\n        require(_offerId < offers.length, \"Offer does not exist\");\n        EnergyOffer storage offer = offers[_offerId];\n        \n        require(offer.isActive, \"Offer is not active\");\n        require(block.timestamp < offer.expirationTime, \"Offer has expired\");\n        require(_energyAmount >= offer.minPurchaseAmount, \"Purchase amount below minimum\");\n        require(_energyAmount <= offer.energyAmount, \"Purchase amount exceeds available energy\");\n        \n        // Calculate total price\n        uint totalPrice = _energyAmount * offer.pricePerUnit;\n        require(msg.value >= totalPrice, \"Insufficient payment\");\n        \n        // Determine if certificates are involved\n        uint certificateId = 0;\n        if (offer.isCertified) {\n            // Logic would be here to select a specific certificate\n            // This is simplified for now\n        }\n        \n        // Create trade record\n        uint tradeId = trades.length;\n        \n        Trade memory newTrade = Trade({\n            id: tradeId,\n            seller: offer.seller,\n            buyer: msg.sender,\n            energyAmount: _energyAmount,\n            pricePerUnit: offer.pricePerUnit,\n            totalPrice: totalPrice,\n            timestamp: block.timestamp,\n            deliveryTime: block.timestamp + 1 days, // Arbitrary delivery time\n            region: offer.region,\n            status: TradeStatus.Open,\n            isCertified: offer.isCertified,\n            certificateId: certificateId\n        });\n        \n        trades.push(newTrade);\n        sellerTrades[offer.seller].push(tradeId);\n        buyerTrades[msg.sender].push(tradeId);\n        \n        // Update offer\n        offer.energyAmount -= _energyAmount;\n        if (offer.energyAmount < offer.minPurchaseAmount) {\n            offer.isActive = false;\n        }\n        \n        // Update market metrics\n        marketMetrics.totalTrades++;\n        marketMetrics.totalVolumeTraded += _energyAmount;\n        marketMetrics.totalValueTraded += totalPrice;\n        marketMetrics.averagePrice = marketMetrics.totalValueTraded / marketMetrics.totalVolumeTraded;\n        marketMetrics.regionVolumes[offer.region] += _energyAmount;\n        marketMetrics.regionValues[offer.region] += totalPrice;\n        \n        if (marketMetrics.regionVolumes[offer.region] > 0) {\n            marketMetrics.regionPrices[offer.region] = marketMetrics.regionValues[offer.region] / marketMetrics.regionVolumes[offer.region];\n        }\n        \n        // Calculate and transfer platform fee\n        uint feeAmount = (totalPrice * platformFeeRate) / 10000;\n        uint sellerAmount = totalPrice - feeAmount;\n        \n        // Transfer fee to fee recipient\n        if (feeAmount > 0) {\n            (bool feeSuccess, ) = feeRecipient.call{value: feeAmount}(\"\");\n            require(feeSuccess, \"Fee transfer failed\");\n            emit PlatformFeeCollected(feeAmount, feeRecipient);\n        }\n        \n        // Transfer remaining amount to seller\n        (bool sellerSuccess, ) = offer.seller.call{value: sellerAmount}(\"\");\n        require(sellerSuccess, \"Seller transfer failed\");\n        \n        // Refund excess payment to buyer\n        if (msg.value > totalPrice) {\n            (bool refundSuccess, ) = msg.sender.call{value: msg.value - totalPrice}(\"\");\n            require(refundSuccess, \"Refund transfer failed\");\n        }\n        \n        emit OfferAccepted(_offerId, msg.sender, _energyAmount, totalPrice);\n        emit TradeCreated(tradeId, offer.seller, msg.sender, _energyAmount, totalPrice);\n    }\n    \n    /**\n     * @dev Complete a trade (confirm energy delivery)\n     * @param _tradeId ID of the trade to complete\n     */\n    function completeTrade(uint _tradeId) external {\n        require(_tradeId < trades.length, \"Trade does not exist\");\n        Trade storage trade = trades[_tradeId];\n        \n        require(trade.buyer == msg.sender, \"Only buyer can complete trade\");\n        require(trade.status == TradeStatus.Open, \"Trade is not open\");\n        \n        trade.status = TradeStatus.Completed;\n        \n        // If the trade involves certificates, transfer them\n        if (trade.isCertified && trade.certificateId > 0) {\n            // Logic to transfer certificates would be here\n        }\n        \n        emit TradeCompleted(_tradeId);\n    }\n    \n    /**\n     * @dev Cancel a trade\n     * @param _tradeId ID of the trade to cancel\n     */\n    function cancelTrade(uint _tradeId) external {\n        require(_tradeId < trades.length, \"Trade does not exist\");\n        Trade storage trade = trades[_tradeId];\n        \n        require(trade.status == TradeStatus.Open, \"Trade is not open\");\n        require(msg.sender == trade.seller || msg.sender == trade.buyer || msg.sender == owner, \"Unauthorized\");\n        \n        trade.status = TradeStatus.Cancelled;\n        \n        // In a real implementation, this would include refund logic\n        \n        emit TradeCancelled(_tradeId);\n    }\n    \n    /**\n     * @dev Record a direct trade between buyer and seller\n     * @param _seller Address of the seller\n     * @param _buyer Address of the buyer\n     * @param _energyAmount Amount of energy traded\n     * @param _pricePerUnit Price per unit\n     * @param _region Region where trade occurred\n     * @return Trade ID\n     */\n    function recordTrade(\n        address _seller,\n        address _buyer,\n        uint _energyAmount,\n        uint _pricePerUnit,\n        string memory _region\n    ) external returns (uint) {\n        require(_seller != address(0) && _buyer != address(0), \"Invalid addresses\");\n        require(_energyAmount > 0, \"Energy amount must be positive\");\n        \n        uint totalPrice = _energyAmount * _pricePerUnit;\n        uint tradeId = trades.length;\n        \n        Trade memory newTrade = Trade({\n            id: tradeId,\n            seller: _seller,\n            buyer: _buyer,\n            energyAmount: _energyAmount,\n            pricePerUnit: _pricePerUnit,\n            totalPrice: totalPrice,\n            timestamp: block.timestamp,\n            deliveryTime: block.timestamp, // Immediate delivery for recorded trades\n            region: _region,\n            status: TradeStatus.Completed, // Already completed\n            isCertified: false,\n            certificateId: 0\n        });\n        \n        trades.push(newTrade);\n        sellerTrades[_seller].push(tradeId);\n        buyerTrades[_buyer].push(tradeId);\n        \n        // Update market metrics\n        marketMetrics.totalTrades++;\n        marketMetrics.totalVolumeTraded += _energyAmount;\n        marketMetrics.totalValueTraded += totalPrice;\n        marketMetrics.averagePrice = marketMetrics.totalValueTraded / marketMetrics.totalVolumeTraded;\n        marketMetrics.regionVolumes[_region] += _energyAmount;\n        marketMetrics.regionValues[_region] += totalPrice;\n        \n        if (marketMetrics.regionVolumes[_region] > 0) {\n            marketMetrics.regionPrices[_region] = marketMetrics.regionValues[_region] / marketMetrics.regionVolumes[_region];\n        }\n        \n        emit TradeCreated(tradeId, _seller, _buyer, _energyAmount, totalPrice);\n        emit TradeCompleted(tradeId);\n        \n        return tradeId;\n    }\n    \n    /**\n     * @dev Get a trade by ID\n     * @param _tradeId ID of the trade\n     */\n    function getTrade(uint _tradeId) external view returns (\n        uint id,\n        address seller,\n        address buyer,\n        uint energyAmount,\n        uint pricePerUnit,\n        uint totalPrice,\n        uint timestamp,\n        uint deliveryTime,\n        string memory region,\n        uint status,\n        bool isCertified,\n        uint certificateId\n    ) {\n        require(_tradeId < trades.length, \"Trade does not exist\");\n        \n        Trade memory trade = trades[_tradeId];\n        return (\n            trade.id,\n            trade.seller,\n            trade.buyer,\n            trade.energyAmount,\n            trade.pricePerUnit,\n            trade.totalPrice,\n            trade.timestamp,\n            trade.deliveryTime,\n            trade.region,\n            uint(trade.status),\n            trade.isCertified,\n            trade.certificateId\n        );\n    }\n    \n    /**\n     * @dev Get an offer by ID\n     * @param _offerId ID of the offer\n     */\n    function getOffer(uint _offerId) external view returns (\n        uint id,\n        address seller,\n        uint energyAmount,\n        uint pricePerUnit,\n        uint minPurchaseAmount,\n        uint expirationTime,\n        string memory region,\n        bool isCertified,\n        bool isActive\n    ) {\n        require(_offerId < offers.length, \"Offer does not exist\");\n        \n        EnergyOffer memory offer = offers[_offerId];\n        return (\n            offer.id,\n            offer.seller,\n            offer.energyAmount,\n            offer.pricePerUnit,\n            offer.minPurchaseAmount,\n            offer.expirationTime,\n            offer.region,\n            offer.isCertified,\n            offer.isActive\n        );\n    }\n    \n    /**\n     * @dev Get all offers in a specific region\n     * @param _region Region to query\n     * @return Array of offer IDs\n     */\n    function getRegionOffers(string memory _region) external view returns (uint[] memory) {\n        return regionOffers[_region];\n    }\n    \n    /**\n     * @dev Get all offers from a specific seller\n     * @param _seller Seller address\n     * @return Array of offer IDs\n     */\n    function getSellerOffers(address _seller) external view returns (uint[] memory) {\n        return sellerOffers[_seller];\n    }\n    \n    /**\n     * @dev Get trades where address is the seller\n     * @param _seller Seller address\n     * @return Array of trade IDs\n     */\n    function getSellerTrades(address _seller) external view returns (uint[] memory) {\n        return sellerTrades[_seller];\n    }\n    \n    /**\n     * @dev Get trades where address is the buyer\n     * @param _buyer Buyer address\n     * @return Array of trade IDs\n     */\n    function getBuyerTrades(address _buyer) external view returns (uint[] memory) {\n        return buyerTrades[_buyer];\n    }\n    \n    /**\n     * @dev Get market metrics\n     * @return totalTrades Total number of trades\n     * @return totalVolumeTraded Total energy volume traded\n     * @return totalValueTraded Total value traded\n     * @return averagePrice Average price per kWh\n     */\n    function getMarketMetrics() external view returns (\n        uint totalTrades,\n        uint totalVolumeTraded,\n        uint totalValueTraded,\n        uint averagePrice\n    ) {\n        return (\n            marketMetrics.totalTrades,\n            marketMetrics.totalVolumeTraded,\n            marketMetrics.totalValueTraded,\n            marketMetrics.averagePrice\n        );\n    }\n    \n    /**\n     * @dev Get market metrics for a specific region\n     * @param _region Region to query\n     * @return volume Total energy volume traded in the region\n     * @return value Total value traded in the region\n     * @return averagePrice Average price per kWh in the region\n     */\n    function getRegionMarketMetrics(string memory _region) external view returns (\n        uint volume,\n        uint value,\n        uint averagePrice\n    ) {\n        uint vol = marketMetrics.regionVolumes[_region];\n        uint val = marketMetrics.regionValues[_region];\n        uint price = marketMetrics.regionPrices[_region];\n        \n        return (vol, val, price);\n    }\n    \n    /**\n     * @dev Set the platform fee rate\n     * @param _newFeeRate New fee rate in basis points (100 = 1%)\n     */\n    function setPlatformFeeRate(uint _newFeeRate) external onlyOwner {\n        require(_newFeeRate <= 1000, \"Fee rate cannot exceed 10%\");\n        platformFeeRate = _newFeeRate;\n    }\n    \n    /**\n     * @dev Set the fee recipient address\n     * @param _newFeeRecipient New fee recipient address\n     */\n    function setFeeRecipient(address _newFeeRecipient) external onlyOwner {\n        require(_newFeeRecipient != address(0), \"Invalid address\");\n        feeRecipient = _newFeeRecipient;\n    }\n    \n    /**\n     * @dev Set the certificate contract address\n     * @param _certificateContract New certificate contract address\n     */\n    function setCertificateContract(address _certificateContract) external onlyOwner {\n        require(_certificateContract != address(0), \"Invalid certificate contract address\");\n        certificateContract = RenewableCertificate(_certificateContract);\n    }\n    \n    /**\n     * @dev Set the logger contract address\n     * @param _loggerContract New logger contract address\n     */\n    function setLoggerContract(address _loggerContract) external onlyOwner {\n        require(_loggerContract != address(0), \"Invalid logger contract address\");\n        loggerContract = EnergyLogger(_loggerContract);\n    }\n    \n    /**\n     * @dev Withdraw any ETH accidentally sent to the contract\n     */\n    function withdrawETH() external onlyOwner {\n        uint balance = address(this).balance;\n        require(balance > 0, \"No ETH to withdraw\");\n        \n        (bool success, ) = owner.call{value: balance}(\"\");\n        require(success, \"Withdrawal failed\");\n    }\n    \n    // Fallback function to receive ETH\n    receive() external payable {}\n}\n",
  "sourcePath": "/Users/sluzhba/Downloads/power-dapp/contracts/EnergyTrader.sol",
  "compiler": {
    "name": "solc",
    "version": "0.8.17+commit.8df45f5f.Emscripten.clang"
  },
  "schemaVersion": "3.4.16",
  "updatedAt": "2025-04-28T17:04:19.875Z",
  "networkType": "ethereum",
  "devdoc": {
    "details": "Advanced smart contract for peer-to-peer energy trading with built-in market mechanisms, pricing, and renewable energy certificate integration",
    "kind": "dev",
    "methods": {
      "acceptOffer(uint256,uint256)": {
        "details": "Accept an energy offer and create a trade",
        "params": {
          "_energyAmount": "Amount of energy to purchase",
          "_offerId": "ID of the offer to accept"
        }
      },
      "cancelOffer(uint256)": {
        "details": "Cancel an existing energy offer",
        "params": {
          "_offerId": "ID of the offer to cancel"
        }
      },
      "cancelTrade(uint256)": {
        "details": "Cancel a trade",
        "params": {
          "_tradeId": "ID of the trade to cancel"
        }
      },
      "completeTrade(uint256)": {
        "details": "Complete a trade (confirm energy delivery)",
        "params": {
          "_tradeId": "ID of the trade to complete"
        }
      },
      "constructor": {
        "details": "Constructor sets the contract owner and references to other contracts",
        "params": {
          "_certificateContract": "Address of the RenewableCertificate contract",
          "_loggerContract": "Address of the EnergyLogger contract"
        }
      },
      "createOffer(uint256,uint256,uint256,uint256,string,bool)": {
        "details": "Create a new energy offer for the marketplace",
        "params": {
          "_energyAmount": "Amount of energy being offered (kWh)",
          "_expirationTime": "Time when offer expires (Unix timestamp)",
          "_isCertified": "Whether the energy comes with renewable certificates",
          "_minPurchaseAmount": "Minimum amount that can be purchased (kWh)",
          "_pricePerUnit": "Price per kWh in wei",
          "_region": "Geographic region where energy is available"
        },
        "returns": {
          "_0": "Offer ID"
        }
      },
      "getBuyerTrades(address)": {
        "details": "Get trades where address is the buyer",
        "params": {
          "_buyer": "Buyer address"
        },
        "returns": {
          "_0": "Array of trade IDs"
        }
      },
      "getMarketMetrics()": {
        "details": "Get market metrics",
        "returns": {
          "averagePrice": "Average price per kWh",
          "totalTrades": "Total number of trades",
          "totalValueTraded": "Total value traded",
          "totalVolumeTraded": "Total energy volume traded"
        }
      },
      "getOffer(uint256)": {
        "details": "Get an offer by ID",
        "params": {
          "_offerId": "ID of the offer"
        }
      },
      "getRegionMarketMetrics(string)": {
        "details": "Get market metrics for a specific region",
        "params": {
          "_region": "Region to query"
        },
        "returns": {
          "averagePrice": "Average price per kWh in the region",
          "value": "Total value traded in the region",
          "volume": "Total energy volume traded in the region"
        }
      },
      "getRegionOffers(string)": {
        "details": "Get all offers in a specific region",
        "params": {
          "_region": "Region to query"
        },
        "returns": {
          "_0": "Array of offer IDs"
        }
      },
      "getSellerOffers(address)": {
        "details": "Get all offers from a specific seller",
        "params": {
          "_seller": "Seller address"
        },
        "returns": {
          "_0": "Array of offer IDs"
        }
      },
      "getSellerTrades(address)": {
        "details": "Get trades where address is the seller",
        "params": {
          "_seller": "Seller address"
        },
        "returns": {
          "_0": "Array of trade IDs"
        }
      },
      "getTrade(uint256)": {
        "details": "Get a trade by ID",
        "params": {
          "_tradeId": "ID of the trade"
        }
      },
      "recordTrade(address,address,uint256,uint256,string)": {
        "details": "Record a direct trade between buyer and seller",
        "params": {
          "_buyer": "Address of the buyer",
          "_energyAmount": "Amount of energy traded",
          "_pricePerUnit": "Price per unit",
          "_region": "Region where trade occurred",
          "_seller": "Address of the seller"
        },
        "returns": {
          "_0": "Trade ID"
        }
      },
      "setCertificateContract(address)": {
        "details": "Set the certificate contract address",
        "params": {
          "_certificateContract": "New certificate contract address"
        }
      },
      "setFeeRecipient(address)": {
        "details": "Set the fee recipient address",
        "params": {
          "_newFeeRecipient": "New fee recipient address"
        }
      },
      "setLoggerContract(address)": {
        "details": "Set the logger contract address",
        "params": {
          "_loggerContract": "New logger contract address"
        }
      },
      "setPlatformFeeRate(uint256)": {
        "details": "Set the platform fee rate",
        "params": {
          "_newFeeRate": "New fee rate in basis points (100 = 1%)"
        }
      },
      "updateOffer(uint256,uint256,uint256,uint256,uint256)": {
        "details": "Update an existing energy offer",
        "params": {
          "_energyAmount": "New energy amount",
          "_expirationTime": "New expiration time",
          "_minPurchaseAmount": "New minimum purchase amount",
          "_offerId": "ID of the offer to update",
          "_pricePerUnit": "New price per unit"
        }
      },
      "withdrawETH()": {
        "details": "Withdraw any ETH accidentally sent to the contract"
      }
    },
    "title": "EnergyTradeLedger",
    "version": 1
  },
  "userdoc": {
    "kind": "user",
    "methods": {},
    "version": 1
  }
}