{
  "contractName": "RenewableCertificate",
  "abi": [
    {
      "inputs": [],
      "stateMutability": "nonpayable",
      "type": "constructor"
    },
    {
      "anonymous": false,
      "inputs": [
        {
          "indexed": true,
          "internalType": "address",
          "name": "generator",
          "type": "address"
        },
        {
          "indexed": true,
          "internalType": "uint256",
          "name": "certificateId",
          "type": "uint256"
        },
        {
          "indexed": false,
          "internalType": "uint256",
          "name": "energyAmount",
          "type": "uint256"
        },
        {
          "indexed": false,
          "internalType": "string",
          "name": "energySource",
          "type": "string"
        }
      ],
      "name": "CertificateMinted",
      "type": "event"
    },
    {
      "anonymous": false,
      "inputs": [
        {
          "indexed": true,
          "internalType": "address",
          "name": "redeemer",
          "type": "address"
        },
        {
          "indexed": true,
          "internalType": "uint256",
          "name": "certificateId",
          "type": "uint256"
        }
      ],
      "name": "CertificateRedeemed",
      "type": "event"
    },
    {
      "anonymous": false,
      "inputs": [
        {
          "indexed": true,
          "internalType": "address",
          "name": "from",
          "type": "address"
        },
        {
          "indexed": true,
          "internalType": "address",
          "name": "to",
          "type": "address"
        },
        {
          "indexed": true,
          "internalType": "uint256",
          "name": "certificateId",
          "type": "uint256"
        }
      ],
      "name": "CertificateTransferred",
      "type": "event"
    },
    {
      "inputs": [],
      "name": "ENERGY_THRESHOLD",
      "outputs": [
        {
          "internalType": "uint256",
          "name": "",
          "type": "uint256"
        }
      ],
      "stateMutability": "view",
      "type": "function"
    },
    {
      "inputs": [
        {
          "internalType": "address",
          "name": "",
          "type": "address"
        }
      ],
      "name": "certificateCount",
      "outputs": [
        {
          "internalType": "uint256",
          "name": "",
          "type": "uint256"
        }
      ],
      "stateMutability": "view",
      "type": "function"
    },
    {
      "inputs": [
        {
          "internalType": "uint256",
          "name": "",
          "type": "uint256"
        }
      ],
      "name": "certificateToOwner",
      "outputs": [
        {
          "internalType": "address",
          "name": "",
          "type": "address"
        }
      ],
      "stateMutability": "view",
      "type": "function"
    },
    {
      "inputs": [
        {
          "internalType": "uint256",
          "name": "",
          "type": "uint256"
        }
      ],
      "name": "certificates",
      "outputs": [
        {
          "internalType": "uint256",
          "name": "id",
          "type": "uint256"
        },
        {
          "internalType": "uint256",
          "name": "energyAmount",
          "type": "uint256"
        },
        {
          "internalType": "uint256",
          "name": "issuanceDate",
          "type": "uint256"
        },
        {
          "internalType": "string",
          "name": "energySource",
          "type": "string"
        },
        {
          "internalType": "string",
          "name": "location",
          "type": "string"
        },
        {
          "internalType": "bool",
          "name": "isValid",
          "type": "bool"
        }
      ],
      "stateMutability": "view",
      "type": "function"
    },
    {
      "inputs": [
        {
          "internalType": "address",
          "name": "",
          "type": "address"
        },
        {
          "internalType": "uint256",
          "name": "",
          "type": "uint256"
        }
      ],
      "name": "ownedCertificates",
      "outputs": [
        {
          "internalType": "uint256",
          "name": "",
          "type": "uint256"
        }
      ],
      "stateMutability": "view",
      "type": "function"
    },
    {
      "inputs": [
        {
          "internalType": "string",
          "name": "",
          "type": "string"
        }
      ],
      "name": "validEnergySources",
      "outputs": [
        {
          "internalType": "bool",
          "name": "",
          "type": "bool"
        }
      ],
      "stateMutability": "view",
      "type": "function"
    },
    {
      "inputs": [
        {
          "internalType": "address",
          "name": "_generator",
          "type": "address"
        },
        {
          "internalType": "uint256",
          "name": "_energyProduced",
          "type": "uint256"
        },
        {
          "internalType": "string",
          "name": "_energySource",
          "type": "string"
        },
        {
          "internalType": "string",
          "name": "_location",
          "type": "string"
        }
      ],
      "name": "mintCertificate",
      "outputs": [],
      "stateMutability": "nonpayable",
      "type": "function"
    },
    {
      "inputs": [
        {
          "internalType": "address",
          "name": "_to",
          "type": "address"
        },
        {
          "internalType": "uint256",
          "name": "_certificateId",
          "type": "uint256"
        }
      ],
      "name": "transferCertificate",
      "outputs": [],
      "stateMutability": "nonpayable",
      "type": "function"
    },
    {
      "inputs": [
        {
          "internalType": "uint256",
          "name": "_certificateId",
          "type": "uint256"
        }
      ],
      "name": "redeemCertificate",
      "outputs": [],
      "stateMutability": "nonpayable",
      "type": "function"
    },
    {
      "inputs": [
        {
          "internalType": "address",
          "name": "_owner",
          "type": "address"
        }
      ],
      "name": "getCertificates",
      "outputs": [
        {
          "internalType": "uint256",
          "name": "",
          "type": "uint256"
        }
      ],
      "stateMutability": "view",
      "type": "function"
    },
    {
      "inputs": [
        {
          "internalType": "address",
          "name": "_owner",
          "type": "address"
        }
      ],
      "name": "getOwnedCertificateIds",
      "outputs": [
        {
          "internalType": "uint256[]",
          "name": "",
          "type": "uint256[]"
        }
      ],
      "stateMutability": "view",
      "type": "function"
    },
    {
      "inputs": [
        {
          "internalType": "uint256",
          "name": "_certificateId",
          "type": "uint256"
        }
      ],
      "name": "getCertificateDetails",
      "outputs": [
        {
          "internalType": "uint256",
          "name": "id",
          "type": "uint256"
        },
        {
          "internalType": "uint256",
          "name": "energyAmount",
          "type": "uint256"
        },
        {
          "internalType": "uint256",
          "name": "issuanceDate",
          "type": "uint256"
        },
        {
          "internalType": "string",
          "name": "energySource",
          "type": "string"
        },
        {
          "internalType": "string",
          "name": "location",
          "type": "string"
        },
        {
          "internalType": "bool",
          "name": "isValid",
          "type": "bool"
        },
        {
          "internalType": "address",
          "name": "owner",
          "type": "address"
        }
      ],
      "stateMutability": "view",
      "type": "function"
    },
    {
      "inputs": [
        {
          "internalType": "string",
          "name": "_energySource",
          "type": "string"
        }
      ],
      "name": "addEnergySource",
      "outputs": [],
      "stateMutability": "nonpayable",
      "type": "function"
    },
    {
      "inputs": [
        {
          "internalType": "string",
          "name": "_energySource",
          "type": "string"
        }
      ],
      "name": "removeEnergySource",
      "outputs": [],
      "stateMutability": "nonpayable",
      "type": "function"
    }
  ],
  "bytecode": "0x608060405260016004553480156200001657600080fd5b506001600560405162000029906200018b565b908152602001604051809103902060006101000a81548160ff021916908315150217905550600160056040516200006090620001f2565b908152602001604051809103902060006101000a81548160ff02191690831515021790555060016005604051620000979062000259565b908152602001604051809103902060006101000a81548160ff02191690831515021790555060016005604051620000ce90620002c0565b908152602001604051809103902060006101000a81548160ff02191690831515021790555060016005604051620001059062000327565b908152602001604051809103902060006101000a81548160ff0219169083151502179055506200033e565b600081905092915050565b7f736f6c6172000000000000000000000000000000000000000000000000000000600082015250565b60006200017360058362000130565b915062000180826200013b565b600582019050919050565b6000620001988262000164565b9150819050919050565b7f77696e6400000000000000000000000000000000000000000000000000000000600082015250565b6000620001da60048362000130565b9150620001e782620001a2565b600482019050919050565b6000620001ff82620001cb565b9150819050919050565b7f687964726f000000000000000000000000000000000000000000000000000000600082015250565b60006200024160058362000130565b91506200024e8262000209565b600582019050919050565b6000620002668262000232565b9150819050919050565b7f62696f6d61737300000000000000000000000000000000000000000000000000600082015250565b6000620002a860078362000130565b9150620002b58262000270565b600782019050919050565b6000620002cd8262000299565b9150819050919050565b7f67656f746865726d616c00000000000000000000000000000000000000000000600082015250565b60006200030f600a8362000130565b91506200031c82620002d7565b600a82019050919050565b6000620003348262000300565b9150819050919050565b61201a806200034e6000396000f3fe608060405234801561001057600080fd5b50600436106100ea5760003560e01c8063ad0340b81161008c578063eb1bba5811610066578063eb1bba5814610278578063f1c49c62146102a8578063f72bfd07146102d8578063ff2e2994146102f4576100ea565b8063ad0340b814610222578063c9241a5a14610240578063df6a10c21461025c576100ea565b80638f00f610116100c85780638f00f610146101845780638fefd32b146101b457806390e4db61146101d0578063a901fe5e146101ec576100ea565b8063102dc8cc146100ef578063531a8bb21461011f578063663b3e221461014f575b600080fd5b6101096004803603810190610104919061123c565b610324565b6040516101169190611331565b60405180910390f35b6101396004803603810190610134919061137f565b6103bb565b60405161014691906113bb565b60405180910390f35b6101696004803603810190610164919061137f565b6103ee565b60405161017b96959493929190611490565b60405180910390f35b61019e6004803603810190610199919061123c565b610547565b6040516101ab91906114ff565b60405180910390f35b6101ce60048036038101906101c9919061164f565b61055f565b005b6101ea60048036038101906101e591906116ee565b6108a6565b005b6102066004803603810190610201919061137f565b6108e0565b6040516102199796959493929190611737565b60405180910390f35b61022a610ad6565b60405161023791906114ff565b60405180910390f35b61025a6004803603810190610255919061137f565b610adb565b005b610276600480360381019061027191906116ee565b610ca9565b005b610292600480360381019061028d91906116ee565b610ce3565b60405161029f91906117b4565b60405180910390f35b6102c260048036038101906102bd919061123c565b610d19565b6040516102cf91906114ff565b60405180910390f35b6102f260048036038101906102ed91906117cf565b610d61565b005b61030e600480360381019061030991906117cf565b611199565b60405161031b91906114ff565b60405180910390f35b6060600160008373ffffffffffffffffffffffffffffffffffffffff1673ffffffffffffffffffffffffffffffffffffffff1681526020019081526020016000208054806020026020016040519081016040528092919081815260200182805480156103af57602002820191906000526020600020905b81548152602001906001019080831161039b575b50505050509050919050565b60036020528060005260406000206000915054906101000a900473ffffffffffffffffffffffffffffffffffffffff1681565b60026020528060005260406000206000915090508060000154908060010154908060020154908060030180546104239061183e565b80601f016020809104026020016040519081016040528092919081815260200182805461044f9061183e565b801561049c5780601f106104715761010080835404028352916020019161049c565b820191906000526020600020905b81548152906001019060200180831161047f57829003601f168201915b5050505050908060040180546104b19061183e565b80601f01602080910402602001604051908101604052809291908181526020018280546104dd9061183e565b801561052a5780601f106104ff5761010080835404028352916020019161052a565b820191906000526020600020905b81548152906001019060200180831161050d57829003601f168201915b5050505050908060050160009054906101000a900460ff16905086565b60006020528060005260406000206000915090505481565b60058260405161056f91906118ab565b908152602001604051809103902060009054906101000a900460ff166105ca576040517f08c379a00000000000000000000000000000000000000000000000000000000081526004016105c19061190e565b60405180910390fd5b606483101561060e576040517f08c379a0000000000000000000000000000000000000000000000000000000008152600401610605906119a0565b60405180910390fd5b600060648461061d9190611a1e565b9050600084905060005b8281101561084857600060648310156106405782610643565b60645b905080836106519190611a4f565b925060006040518060c0016040528060045481526020018381526020014281526020018881526020018781526020016001151581525090508060026000600454815260200190815260200160002060008201518160000155602082015181600101556040820151816002015560608201518160030190816106d29190611c2f565b5060808201518160040190816106e89190611c2f565b5060a08201518160050160006101000a81548160ff0219169083151502179055509050508860036000600454815260200190815260200160002060006101000a81548173ffffffffffffffffffffffffffffffffffffffff021916908373ffffffffffffffffffffffffffffffffffffffff160217905550600160008a73ffffffffffffffffffffffffffffffffffffffff1673ffffffffffffffffffffffffffffffffffffffff16815260200190815260200160002060045490806001815401808255809150506001900390600052602060002001600090919091909150556004548973ffffffffffffffffffffffffffffffffffffffff167fc54c7ef12eff8d20c7f387ef3dd8fb555d40e92c7faa7a200d3c5a4da6e2a7ed848a604051610813929190611d01565b60405180910390a36004600081548092919061082e90611d31565b91905055505050808061084090611d31565b915050610627565b50816000808873ffffffffffffffffffffffffffffffffffffffff1673ffffffffffffffffffffffffffffffffffffffff16815260200190815260200160002060008282546108979190611d79565b92505081905550505050505050565b60016005826040516108b891906118ab565b908152602001604051809103902060006101000a81548160ff02191690831515021790555050565b60008060006060806000806000600260008a81526020019081526020016000206040518060c00160405290816000820154815260200160018201548152602001600282015481526020016003820180546109399061183e565b80601f01602080910402602001604051908101604052809291908181526020018280546109659061183e565b80156109b25780601f10610987576101008083540402835291602001916109b2565b820191906000526020600020905b81548152906001019060200180831161099557829003601f168201915b505050505081526020016004820180546109cb9061183e565b80601f01602080910402602001604051908101604052809291908181526020018280546109f79061183e565b8015610a445780601f10610a1957610100808354040283529160200191610a44565b820191906000526020600020905b815481529060010190602001808311610a2757829003601f168201915b505050505081526020016005820160009054906101000a900460ff161515151581525050905080600001519750806020015196508060400151955080606001519450806080015193508060a001519250600360008a815260200190815260200160002060009054906101000a900473ffffffffffffffffffffffffffffffffffffffff16915050919395979092949650565b606481565b3373ffffffffffffffffffffffffffffffffffffffff166003600083815260200190815260200160002060009054906101000a900473ffffffffffffffffffffffffffffffffffffffff1673ffffffffffffffffffffffffffffffffffffffff1614610b7c576040517f08c379a0000000000000000000000000000000000000000000000000000000008152600401610b7390611df9565b60405180910390fd5b6002600082815260200190815260200160002060050160009054906101000a900460ff16610bdf576040517f08c379a0000000000000000000000000000000000000000000000000000000008152600401610bd690611e65565b60405180910390fd5b60006002600083815260200190815260200160002060050160006101000a81548160ff0219169083151502179055506000803373ffffffffffffffffffffffffffffffffffffffff1673ffffffffffffffffffffffffffffffffffffffff1681526020019081526020016000206000815480929190610c5d90611e85565b9190505550803373ffffffffffffffffffffffffffffffffffffffff167f9963bf82c2ad7a71e5e7e95a3c92b3ac80d24dcc68345bbd6f6d13aa07ed182460405160405180910390a350565b6000600582604051610cbb91906118ab565b908152602001604051809103902060006101000a81548160ff02191690831515021790555050565b6005818051602081018201805184825260208301602085012081835280955050505050506000915054906101000a900460ff1681565b60008060008373ffffffffffffffffffffffffffffffffffffffff1673ffffffffffffffffffffffffffffffffffffffff168152602001908152602001600020549050919050565b600073ffffffffffffffffffffffffffffffffffffffff168273ffffffffffffffffffffffffffffffffffffffff1603610dd0576040517f08c379a0000000000000000000000000000000000000000000000000000000008152600401610dc790611efa565b60405180910390fd5b3373ffffffffffffffffffffffffffffffffffffffff166003600083815260200190815260200160002060009054906101000a900473ffffffffffffffffffffffffffffffffffffffff1673ffffffffffffffffffffffffffffffffffffffff1614610e71576040517f08c379a0000000000000000000000000000000000000000000000000000000008152600401610e6890611df9565b60405180910390fd5b6002600082815260200190815260200160002060050160009054906101000a900460ff16610ed4576040517f08c379a0000000000000000000000000000000000000000000000000000000008152600401610ecb90611f66565b60405180910390fd5b6000600160003373ffffffffffffffffffffffffffffffffffffffff1673ffffffffffffffffffffffffffffffffffffffff168152602001908152602001600020905060005b8180549050811015610fd85782828281548110610f3a57610f39611f86565b5b906000526020600020015403610fc5578160018380549050610f5c9190611a4f565b81548110610f6d57610f6c611f86565b5b9060005260206000200154828281548110610f8b57610f8a611f86565b5b906000526020600020018190555081805480610faa57610fa9611fb5565b5b60019003818190600052602060002001600090559055610fd8565b8080610fd090611d31565b915050610f1a565b50600160008473ffffffffffffffffffffffffffffffffffffffff1673ffffffffffffffffffffffffffffffffffffffff168152602001908152602001600020829080600181540180825580915050600190039060005260206000200160009091909190915055826003600084815260200190815260200160002060006101000a81548173ffffffffffffffffffffffffffffffffffffffff021916908373ffffffffffffffffffffffffffffffffffffffff1602179055506000803373ffffffffffffffffffffffffffffffffffffffff1673ffffffffffffffffffffffffffffffffffffffff16815260200190815260200160002060008154809291906110e090611e85565b91905055506000808473ffffffffffffffffffffffffffffffffffffffff1673ffffffffffffffffffffffffffffffffffffffff168152602001908152602001600020600081548092919061113490611d31565b9190505550818373ffffffffffffffffffffffffffffffffffffffff163373ffffffffffffffffffffffffffffffffffffffff167f6401a46471bceda420a9ab424e1bf99b5fbb54fa029d6276d5af0e26fe64f68960405160405180910390a4505050565b600160205281600052604060002081815481106111b557600080fd5b90600052602060002001600091509150505481565b6000604051905090565b600080fd5b600080fd5b600073ffffffffffffffffffffffffffffffffffffffff82169050919050565b6000611209826111de565b9050919050565b611219816111fe565b811461122457600080fd5b50565b60008135905061123681611210565b92915050565b600060208284031215611252576112516111d4565b5b600061126084828501611227565b91505092915050565b600081519050919050565b600082825260208201905092915050565b6000819050602082019050919050565b6000819050919050565b6112a881611295565b82525050565b60006112ba838361129f565b60208301905092915050565b6000602082019050919050565b60006112de82611269565b6112e88185611274565b93506112f383611285565b8060005b8381101561132457815161130b88826112ae565b9750611316836112c6565b9250506001810190506112f7565b5085935050505092915050565b6000602082019050818103600083015261134b81846112d3565b905092915050565b61135c81611295565b811461136757600080fd5b50565b60008135905061137981611353565b92915050565b600060208284031215611395576113946111d4565b5b60006113a38482850161136a565b91505092915050565b6113b5816111fe565b82525050565b60006020820190506113d060008301846113ac565b92915050565b6113df81611295565b82525050565b600081519050919050565b600082825260208201905092915050565b60005b8381101561141f578082015181840152602081019050611404565b60008484015250505050565b6000601f19601f8301169050919050565b6000611447826113e5565b61145181856113f0565b9350611461818560208601611401565b61146a8161142b565b840191505092915050565b60008115159050919050565b61148a81611475565b82525050565b600060c0820190506114a560008301896113d6565b6114b260208301886113d6565b6114bf60408301876113d6565b81810360608301526114d1818661143c565b905081810360808301526114e5818561143c565b90506114f460a0830184611481565b979650505050505050565b600060208201905061151460008301846113d6565b92915050565b600080fd5b600080fd5b7f4e487b7100000000000000000000000000000000000000000000000000000000600052604160045260246000fd5b61155c8261142b565b810181811067ffffffffffffffff8211171561157b5761157a611524565b5b80604052505050565b600061158e6111ca565b905061159a8282611553565b919050565b600067ffffffffffffffff8211156115ba576115b9611524565b5b6115c38261142b565b9050602081019050919050565b82818337600083830152505050565b60006115f26115ed8461159f565b611584565b90508281526020810184848401111561160e5761160d61151f565b5b6116198482856115d0565b509392505050565b600082601f8301126116365761163561151a565b5b81356116468482602086016115df565b91505092915050565b60008060008060808587031215611669576116686111d4565b5b600061167787828801611227565b94505060206116888782880161136a565b935050604085013567ffffffffffffffff8111156116a9576116a86111d9565b5b6116b587828801611621565b925050606085013567ffffffffffffffff8111156116d6576116d56111d9565b5b6116e287828801611621565b91505092959194509250565b600060208284031215611704576117036111d4565b5b600082013567ffffffffffffffff811115611722576117216111d9565b5b61172e84828501611621565b91505092915050565b600060e08201905061174c600083018a6113d6565b61175960208301896113d6565b61176660408301886113d6565b8181036060830152611778818761143c565b9050818103608083015261178c818661143c565b905061179b60a0830185611481565b6117a860c08301846113ac565b98975050505050505050565b60006020820190506117c96000830184611481565b92915050565b600080604083850312156117e6576117e56111d4565b5b60006117f485828601611227565b92505060206118058582860161136a565b9150509250929050565b7f4e487b7100000000000000000000000000000000000000000000000000000000600052602260045260246000fd5b6000600282049050600182168061185657607f821691505b6020821081036118695761186861180f565b5b50919050565b600081905092915050565b6000611885826113e5565b61188f818561186f565b935061189f818560208601611401565b80840191505092915050565b60006118b7828461187a565b915081905092915050565b7f496e76616c696420656e6572677920736f757263650000000000000000000000600082015250565b60006118f86015836113f0565b9150611903826118c2565b602082019050919050565b60006020820190508181036000830152611927816118eb565b9050919050565b7f456e657267792070726f64756374696f6e2062656c6f77207468726573686f6c60008201527f6400000000000000000000000000000000000000000000000000000000000000602082015250565b600061198a6021836113f0565b91506119958261192e565b604082019050919050565b600060208201905081810360008301526119b98161197d565b9050919050565b7f4e487b7100000000000000000000000000000000000000000000000000000000600052601260045260246000fd5b7f4e487b7100000000000000000000000000000000000000000000000000000000600052601160045260246000fd5b6000611a2982611295565b9150611a3483611295565b925082611a4457611a436119c0565b5b828204905092915050565b6000611a5a82611295565b9150611a6583611295565b9250828203905081811115611a7d57611a7c6119ef565b5b92915050565b60008190508160005260206000209050919050565b60006020601f8301049050919050565b600082821b905092915050565b600060088302611ae57fffffffffffffffffffffffffffffffffffffffffffffffffffffffffffffffff82611aa8565b611aef8683611aa8565b95508019841693508086168417925050509392505050565b6000819050919050565b6000611b2c611b27611b2284611295565b611b07565b611295565b9050919050565b6000819050919050565b611b4683611b11565b611b5a611b5282611b33565b848454611ab5565b825550505050565b600090565b611b6f611b62565b611b7a818484611b3d565b505050565b5b81811015611b9e57611b93600082611b67565b600181019050611b80565b5050565b601f821115611be357611bb481611a83565b611bbd84611a98565b81016020851015611bcc578190505b611be0611bd885611a98565b830182611b7f565b50505b505050565b600082821c905092915050565b6000611c0660001984600802611be8565b1980831691505092915050565b6000611c1f8383611bf5565b9150826002028217905092915050565b611c38826113e5565b67ffffffffffffffff811115611c5157611c50611524565b5b611c5b825461183e565b611c66828285611ba2565b600060209050601f831160018114611c995760008415611c87578287015190505b611c918582611c13565b865550611cf9565b601f198416611ca786611a83565b60005b82811015611ccf57848901518255600182019150602085019450602081019050611caa565b86831015611cec5784890151611ce8601f891682611bf5565b8355505b6001600288020188555050505b505050505050565b6000604082019050611d1660008301856113d6565b8181036020830152611d28818461143c565b90509392505050565b6000611d3c82611295565b91507fffffffffffffffffffffffffffffffffffffffffffffffffffffffffffffffff8203611d6e57611d6d6119ef565b5b600182019050919050565b6000611d8482611295565b9150611d8f83611295565b9250828201905080821115611da757611da66119ef565b5b92915050565b7f596f7520646f6e2774206f776e20746869732063657274696669636174650000600082015250565b6000611de3601e836113f0565b9150611dee82611dad565b602082019050919050565b60006020820190508181036000830152611e1281611dd6565b9050919050565b7f436572746966696361746520697320616c72656164792072656465656d656400600082015250565b6000611e4f601f836113f0565b9150611e5a82611e19565b602082019050919050565b60006020820190508181036000830152611e7e81611e42565b9050919050565b6000611e9082611295565b915060008203611ea357611ea26119ef565b5b600182039050919050565b7f496e76616c696420726563697069656e74206164647265737300000000000000600082015250565b6000611ee46019836113f0565b9150611eef82611eae565b602082019050919050565b60006020820190508181036000830152611f1381611ed7565b9050919050565b7f4365727469666963617465206973206e6f206c6f6e6765722076616c69640000600082015250565b6000611f50601e836113f0565b9150611f5b82611f1a565b602082019050919050565b60006020820190508181036000830152611f7f81611f43565b9050919050565b7f4e487b7100000000000000000000000000000000000000000000000000000000600052603260045260246000fd5b7f4e487b7100000000000000000000000000000000000000000000000000000000600052603160045260246000fdfea264697066735822122012bc5d89570261864dc834e7b46878fd63f480c3cb94fe41ec600d9a4734eb1864736f6c63430008110033",
  "immutableReferences": {},
  "source": "// SPDX-License-Identifier: MIT\npragma solidity ^0.8.17;\n\n/**\n * @title RenewableCertificate\n * @dev Contract for managing Renewable Energy Certificates (RECs)\n * This contract allows for minting, transferring, and trading renewable energy certificates\n */\ncontract RenewableCertificate {\n    uint public constant ENERGY_THRESHOLD = 100; // 100 kWh = 1 certificate\n    \n    struct Certificate {\n        uint id;\n        uint energyAmount;\n        uint issuanceDate;\n        string energySource; // e.g., \"solar\", \"wind\", \"hydro\"\n        string location;\n        bool isValid;\n    }\n    \n    // Mapping from address to certificate count\n    mapping(address => uint) public certificateCount;\n    \n    // Mapping from address to certificate IDs owned\n    mapping(address => uint[]) public ownedCertificates;\n    \n    // Mapping from certificate ID to Certificate details\n    mapping(uint => Certificate) public certificates;\n    \n    // Mapping from certificate ID to owner\n    mapping(uint => address) public certificateToOwner;\n    \n    // Certificate ID counter\n    uint private _nextCertificateId = 1;\n    \n    // Events\n    event CertificateMinted(address indexed generator, uint indexed certificateId, uint energyAmount, string energySource);\n    event CertificateTransferred(address indexed from, address indexed to, uint indexed certificateId);\n    event CertificateRedeemed(address indexed redeemer, uint indexed certificateId);\n    \n    // Allowed energy sources\n    mapping(string => bool) public validEnergySources;\n    \n    constructor() {\n        // Initialize valid energy sources\n        validEnergySources[\"solar\"] = true;\n        validEnergySources[\"wind\"] = true;\n        validEnergySources[\"hydro\"] = true;\n        validEnergySources[\"biomass\"] = true;\n        validEnergySources[\"geothermal\"] = true;\n    }\n    \n    /**\n     * @dev Mint new renewable energy certificates\n     */\n    function mintCertificate(\n        address _generator, \n        uint _energyProduced, \n        string memory _energySource,\n        string memory _location\n    ) external {\n        require(validEnergySources[_energySource], \"Invalid energy source\");\n        require(_energyProduced >= ENERGY_THRESHOLD, \"Energy production below threshold\");\n        \n        uint numCerts = _energyProduced / ENERGY_THRESHOLD;\n        uint remainingEnergy = _energyProduced;\n        \n        for (uint i = 0; i < numCerts; i++) {\n            uint energyAmountForCert = remainingEnergy >= ENERGY_THRESHOLD ? \n                                      ENERGY_THRESHOLD : \n                                      remainingEnergy;\n            \n            remainingEnergy -= energyAmountForCert;\n            \n            Certificate memory newCert = Certificate({\n                id: _nextCertificateId,\n                energyAmount: energyAmountForCert,\n                issuanceDate: block.timestamp,\n                energySource: _energySource,\n                location: _location,\n                isValid: true\n            });\n            \n            certificates[_nextCertificateId] = newCert;\n            certificateToOwner[_nextCertificateId] = _generator;\n            ownedCertificates[_generator].push(_nextCertificateId);\n            \n            emit CertificateMinted(_generator, _nextCertificateId, energyAmountForCert, _energySource);\n            \n            _nextCertificateId++;\n        }\n        \n        certificateCount[_generator] += numCerts;\n    }\n    \n    /**\n     * @dev Transfer a certificate from one address to another\n     * @param _to Recipient address\n     * @param _certificateId ID of the certificate to transfer\n     */\n    function transferCertificate(address _to, uint _certificateId) external {\n        require(_to != address(0), \"Invalid recipient address\");\n        require(certificateToOwner[_certificateId] == msg.sender, \"You don't own this certificate\");\n        require(certificates[_certificateId].isValid, \"Certificate is no longer valid\");\n        \n        // Remove certificate from sender's owned certificates\n        uint[] storage senderCerts = ownedCertificates[msg.sender];\n        for (uint i = 0; i < senderCerts.length; i++) {\n            if (senderCerts[i] == _certificateId) {\n                // Replace with last element and pop\n                senderCerts[i] = senderCerts[senderCerts.length - 1];\n                senderCerts.pop();\n                break;\n            }\n        }\n        \n        // Add certificate to recipient's owned certificates\n        ownedCertificates[_to].push(_certificateId);\n        \n        // Update owner mapping\n        certificateToOwner[_certificateId] = _to;\n        \n        // Update certificate counts\n        certificateCount[msg.sender]--;\n        certificateCount[_to]++;\n        \n        emit CertificateTransferred(msg.sender, _to, _certificateId);\n    }\n    \n    /**\n     * @dev Redeem a certificate (mark as used)\n     * @param _certificateId ID of the certificate to redeem\n     */\n    function redeemCertificate(uint _certificateId) external {\n        require(certificateToOwner[_certificateId] == msg.sender, \"You don't own this certificate\");\n        require(certificates[_certificateId].isValid, \"Certificate is already redeemed\");\n        \n        certificates[_certificateId].isValid = false;\n        certificateCount[msg.sender]--;\n        \n        emit CertificateRedeemed(msg.sender, _certificateId);\n    }\n    \n    /**\n     * @dev Get the number of valid certificates owned by an address\n     * @param _owner Address to check\n     * @return Number of valid certificates\n     */\n    function getCertificates(address _owner) external view returns (uint) {\n        return certificateCount[_owner];\n    }\n    \n    /**\n     * @dev Get all certificate IDs owned by an address\n     * @param _owner Address to check\n     * @return Array of certificate IDs\n     */\n    function getOwnedCertificateIds(address _owner) external view returns (uint[] memory) {\n        return ownedCertificates[_owner];\n    }\n    \n    /**\n     * @dev Get certificate details by ID\n     * @param _certificateId Certificate ID\n     */\n    function getCertificateDetails(uint _certificateId) external view returns (\n        uint id,\n        uint energyAmount,\n        uint issuanceDate,\n        string memory energySource,\n        string memory location,\n        bool isValid,\n        address owner\n    ) {\n        Certificate memory cert = certificates[_certificateId];\n\n        id = cert.id;\n        energyAmount = cert.energyAmount;\n        issuanceDate = cert.issuanceDate;\n        energySource = cert.energySource;\n        location = cert.location;\n        isValid = cert.isValid;\n        owner = certificateToOwner[_certificateId];\n    }\n    \n    /**\n     * @dev Add a new valid energy source (admin function)\n     * @param _energySource Energy source to add\n     */\n    function addEnergySource(string memory _energySource) external {\n        // In a real implementation, this would have access control\n        validEnergySources[_energySource] = true;\n    }\n    \n    /**\n     * @dev Remove a valid energy source (admin function)\n     * @param _energySource Energy source to remove\n     */\n    function removeEnergySource(string memory _energySource) external {\n        // In a real implementation, this would have access control\n        validEnergySources[_energySource] = false;\n    }\n}\n",
  "sourcePath": "/Users/sluzhba/Downloads/power-dapp/contracts/Certificate.sol",
  "compiler": {
    "name": "solc",
    "version": "0.8.17+commit.8df45f5f.Emscripten.clang"
  },
  "schemaVersion": "3.4.16",
  "updatedAt": "2025-04-28T16:56:34.408Z",
  "devdoc": {
    "details": "Contract for managing Renewable Energy Certificates (RECs) This contract allows for minting, transferring, and trading renewable energy certificates",
    "kind": "dev",
    "methods": {
      "addEnergySource(string)": {
        "details": "Add a new valid energy source (admin function)",
        "params": {
          "_energySource": "Energy source to add"
        }
      },
      "getCertificateDetails(uint256)": {
        "details": "Get certificate details by ID",
        "params": {
          "_certificateId": "Certificate ID"
        }
      },
      "getCertificates(address)": {
        "details": "Get the number of valid certificates owned by an address",
        "params": {
          "_owner": "Address to check"
        },
        "returns": {
          "_0": "Number of valid certificates"
        }
      },
      "getOwnedCertificateIds(address)": {
        "details": "Get all certificate IDs owned by an address",
        "params": {
          "_owner": "Address to check"
        },
        "returns": {
          "_0": "Array of certificate IDs"
        }
      },
      "mintCertificate(address,uint256,string,string)": {
        "details": "Mint new renewable energy certificates"
      },
      "redeemCertificate(uint256)": {
        "details": "Redeem a certificate (mark as used)",
        "params": {
          "_certificateId": "ID of the certificate to redeem"
        }
      },
      "removeEnergySource(string)": {
        "details": "Remove a valid energy source (admin function)",
        "params": {
          "_energySource": "Energy source to remove"
        }
      },
      "transferCertificate(address,uint256)": {
        "details": "Transfer a certificate from one address to another",
        "params": {
          "_certificateId": "ID of the certificate to transfer",
          "_to": "Recipient address"
        }
      }
    },
    "title": "RenewableCertificate",
    "version": 1
  },
  "userdoc": {
    "kind": "user",
    "methods": {},
    "version": 1
  }
}