{
  "contractName": "EnergyLogger",
  "abi": [
    {
      "inputs": [
        {
          "internalType": "address",
          "name": "",
          "type": "address"
        },
        {
          "internalType": "uint256",
          "name": "",
          "type": "uint256"
        }
      ],
      "name": "consumptionLogs",
      "outputs": [
        {
          "internalType": "uint256",
          "name": "amount",
          "type": "uint256"
        },
        {
          "internalType": "uint256",
          "name": "timestamp",
          "type": "uint256"
        }
      ],
      "stateMutability": "view",
      "type": "function",
      "constant": true
    },
    {
      "inputs": [
        {
          "internalType": "uint256",
          "name": "_amount",
          "type": "uint256"
        }
      ],
      "name": "logConsumption",
      "outputs": [],
      "stateMutability": "nonpayable",
      "type": "function"
    },
    {
      "inputs": [
        {
          "internalType": "address",
          "name": "_user",
          "type": "address"
        },
        {
          "internalType": "uint256",
          "name": "_index",
          "type": "uint256"
        }
      ],
      "name": "getConsumptionLog",
      "outputs": [
        {
          "internalType": "uint256",
          "name": "",
          "type": "uint256"
        },
        {
          "internalType": "uint256",
          "name": "",
          "type": "uint256"
        }
      ],
      "stateMutability": "view",
      "type": "function",
      "constant": true
    }
  ],
  "bytecode": "0x608060405234801561000f575f80fd5b506103ad8061001d5f395ff3fe608060405234801561000f575f80fd5b506004361061003f575f3560e01c8063181567ed146100435780634615e03614610074578063866c6f1514610090575b5f80fd5b61005d600480360381019061005891906102ab565b6100c1565b60405161006b9291906102f8565b60405180910390f35b61008e6004803603810190610089919061031f565b610153565b005b6100aa60048036038101906100a591906102ab565b6101e1565b6040516100b89291906102f8565b60405180910390f35b5f805f805f8673ffffffffffffffffffffffffffffffffffffffff1673ffffffffffffffffffffffffffffffffffffffff1681526020019081526020015f2084815481106101125761011161034a565b5b905f5260205f2090600202016040518060400160405290815f82015481526020016001820154815250509050805f0151816020015192509250509250929050565b5f803373ffffffffffffffffffffffffffffffffffffffff1673ffffffffffffffffffffffffffffffffffffffff1681526020019081526020015f20604051806040016040528083815260200142815250908060018154018082558091505060019003905f5260205f2090600202015f909190919091505f820151815f015560208201518160010155505050565b5f602052815f5260405f2081815481106101f9575f80fd5b905f5260205f2090600202015f9150915050805f0154908060010154905082565b5f80fd5b5f73ffffffffffffffffffffffffffffffffffffffff82169050919050565b5f6102478261021e565b9050919050565b6102578161023d565b8114610261575f80fd5b50565b5f813590506102728161024e565b92915050565b5f819050919050565b61028a81610278565b8114610294575f80fd5b50565b5f813590506102a581610281565b92915050565b5f80604083850312156102c1576102c061021a565b5b5f6102ce85828601610264565b92505060206102df85828601610297565b9150509250929050565b6102f281610278565b82525050565b5f60408201905061030b5f8301856102e9565b61031860208301846102e9565b9392505050565b5f602082840312156103345761033361021a565b5b5f61034184828501610297565b91505092915050565b7f4e487b71000000000000000000000000000000000000000000000000000000005f52603260045260245ffdfea26469706673582212200d40c0ad9bc137134fb09ed35a7985e0135412b08b46495ae51b597fe9cc080264736f6c63430008150033",
  "immutableReferences": {},
  "source": "// SPDX-License-Identifier: MIT\npragma solidity ^0.8.0;\n\ncontract EnergyLogger {\n    struct Reading {\n        uint amount; // in kWh\n        uint timestamp;\n    }\n\n    mapping(address => Reading[]) public consumptionLogs;\n\n    function logConsumption(uint _amount) external {\n        consumptionLogs[msg.sender].push(Reading(_amount, block.timestamp));\n    }\n\n    function getConsumptionLog(address _user, uint _index) external view returns (uint, uint) {\n        Reading memory r = consumptionLogs[_user][_index];\n        return (r.amount, r.timestamp);\n    }\n}\n",
  "sourcePath": "/Users/kiranrajpurohit/Downloads/bclab/please-work/contracts/EnergyLogger.sol",
  "compiler": {
    "name": "solc",
    "version": "0.8.21+commit.d9974bed.Emscripten.clang"
  },
  "schemaVersion": "3.4.16",
  "updatedAt": "2025-04-28T13:40:38.963Z",
  "networkType": "ethereum",
  "devdoc": {
    "kind": "dev",
    "methods": {},
    "version": 1
  },
  "userdoc": {
    "kind": "user",
    "methods": {},
    "version": 1
  }
}