{
  "contractName": "EnergyTradeLedger",
  "abi": [
    {
      "inputs": [
        {
          "internalType": "uint256",
          "name": "",
          "type": "uint256"
        }
      ],
      "name": "trades",
      "outputs": [
        {
          "internalType": "address",
          "name": "seller",
          "type": "address"
        },
        {
          "internalType": "address",
          "name": "buyer",
          "type": "address"
        },
        {
          "internalType": "uint256",
          "name": "energyAmount",
          "type": "uint256"
        },
        {
          "internalType": "uint256",
          "name": "timestamp",
          "type": "uint256"
        }
      ],
      "stateMutability": "view",
      "type": "function",
      "constant": true
    },
    {
      "inputs": [
        {
          "internalType": "address",
          "name": "_seller",
          "type": "address"
        },
        {
          "internalType": "address",
          "name": "_buyer",
          "type": "address"
        },
        {
          "internalType": "uint256",
          "name": "_energyAmount",
          "type": "uint256"
        }
      ],
      "name": "recordTrade",
      "outputs": [],
      "stateMutability": "nonpayable",
      "type": "function"
    },
    {
      "inputs": [
        {
          "internalType": "uint256",
          "name": "index",
          "type": "uint256"
        }
      ],
      "name": "getTrade",
      "outputs": [
        {
          "internalType": "address",
          "name": "",
          "type": "address"
        },
        {
          "internalType": "address",
          "name": "",
          "type": "address"
        },
        {
          "internalType": "uint256",
          "name": "",
          "type": "uint256"
        },
        {
          "internalType": "uint256",
          "name": "",
          "type": "uint256"
        }
      ],
      "stateMutability": "view",
      "type": "function",
      "constant": true
    }
  ],
  "bytecode": "0x608060405234801561000f575f80fd5b506105378061001d5f395ff3fe608060405234801561000f575f80fd5b506004361061003f575f3560e01c80631e6c598e146100435780632db25e05146100765780635786ed07146100a9575b5f80fd5b61005d6004803603810190610058919061039e565b6100c5565b60405161006d9493929190610417565b60405180910390f35b610090600480360381019061008b919061039e565b61013d565b6040516100a09493929190610417565b60405180910390f35b6100c360048036038101906100be9190610484565b61024e565b005b5f81815481106100d3575f80fd5b905f5260205f2090600402015f91509050805f015f9054906101000a900473ffffffffffffffffffffffffffffffffffffffff1690806001015f9054906101000a900473ffffffffffffffffffffffffffffffffffffffff16908060020154908060030154905084565b5f805f805f808681548110610155576101546104d4565b5b905f5260205f2090600402016040518060800160405290815f82015f9054906101000a900473ffffffffffffffffffffffffffffffffffffffff1673ffffffffffffffffffffffffffffffffffffffff1673ffffffffffffffffffffffffffffffffffffffff168152602001600182015f9054906101000a900473ffffffffffffffffffffffffffffffffffffffff1673ffffffffffffffffffffffffffffffffffffffff1673ffffffffffffffffffffffffffffffffffffffff168152602001600282015481526020016003820154815250509050805f01518160200151826040015183606001519450945094509450509193509193565b5f60405180608001604052808573ffffffffffffffffffffffffffffffffffffffff1681526020018473ffffffffffffffffffffffffffffffffffffffff16815260200183815260200142815250908060018154018082558091505060019003905f5260205f2090600402015f909190919091505f820151815f015f6101000a81548173ffffffffffffffffffffffffffffffffffffffff021916908373ffffffffffffffffffffffffffffffffffffffff1602179055506020820151816001015f6101000a81548173ffffffffffffffffffffffffffffffffffffffff021916908373ffffffffffffffffffffffffffffffffffffffff16021790555060408201518160020155606082015181600301555050505050565b5f80fd5b5f819050919050565b61037d8161036b565b8114610387575f80fd5b50565b5f8135905061039881610374565b92915050565b5f602082840312156103b3576103b2610367565b5b5f6103c08482850161038a565b91505092915050565b5f73ffffffffffffffffffffffffffffffffffffffff82169050919050565b5f6103f2826103c9565b9050919050565b610402816103e8565b82525050565b6104118161036b565b82525050565b5f60808201905061042a5f8301876103f9565b61043760208301866103f9565b6104446040830185610408565b6104516060830184610408565b95945050505050565b610463816103e8565b811461046d575f80fd5b50565b5f8135905061047e8161045a565b92915050565b5f805f6060848603121561049b5761049a610367565b5b5f6104a886828701610470565b93505060206104b986828701610470565b92505060406104ca8682870161038a565b9150509250925092565b7f4e487b71000000000000000000000000000000000000000000000000000000005f52603260045260245ffdfea2646970667358221220370fb7d17b5b16313bb0a10bc9212520c5727bb3ec9ffc2594ec800623649c0564736f6c63430008150033",
  "immutableReferences": {},
  "source": "// SPDX-License-Identifier: MIT\npragma solidity ^0.8.0;\n\ncontract EnergyTradeLedger {\n    struct Trade {\n        address seller;\n        address buyer;\n        uint energyAmount; // in kWh\n        uint timestamp;\n    }\n\n    Trade[] public trades;\n\n    function recordTrade(address _seller, address _buyer, uint _energyAmount) external {\n        trades.push(Trade(_seller, _buyer, _energyAmount, block.timestamp));\n    }\n\n    function getTrade(uint index) external view returns (address, address, uint, uint) {\n        Trade memory t = trades[index];\n        return (t.seller, t.buyer, t.energyAmount, t.timestamp);\n    }\n}\n",
  "sourcePath": "/Users/kiranrajpurohit/Downloads/bclab/please-work/contracts/EnergyTrader.sol",
  "compiler": {
    "name": "solc",
    "version": "0.8.21+commit.d9974bed.Emscripten.clang"
  },
  "schemaVersion": "3.4.16",
  "updatedAt": "2025-04-28T13:40:38.963Z",
  "networkType": "ethereum",
  "devdoc": {
    "kind": "dev",
    "methods": {},
    "version": 1
  },
  "userdoc": {
    "kind": "user",
    "methods": {},
    "version": 1
  }
}