{
  "contractName": "EnergyLogger",
  "abi": [
    {
      "inputs": [
        {
          "internalType": "address",
          "name": "",
          "type": "address"
        },
        {
          "internalType": "uint256",
          "name": "",
          "type": "uint256"
        }
      ],
      "name": "consumptionLogs",
      "outputs": [
        {
          "internalType": "uint256",
          "name": "amount",
          "type": "uint256"
        },
        {
          "internalType": "uint256",
          "name": "timestamp",
          "type": "uint256"
        }
      ],
      "stateMutability": "view",
      "type": "function",
      "constant": true
    },
    {
      "inputs": [
        {
          "internalType": "uint256",
          "name": "_amount",
          "type": "uint256"
        }
      ],
      "name": "logConsumption",
      "outputs": [],
      "stateMutability": "nonpayable",
      "type": "function"
    },
    {
      "inputs": [
        {
          "internalType": "address",
          "name": "_user",
          "type": "address"
        },
        {
          "internalType": "uint256",
          "name": "_index",
          "type": "uint256"
        }
      ],
      "name": "getConsumptionLog",
      "outputs": [
        {
          "internalType": "uint256",
          "name": "",
          "type": "uint256"
        },
        {
          "internalType": "uint256",
          "name": "",
          "type": "uint256"
        }
      ],
      "stateMutability": "view",
      "type": "function",
      "constant": true
    }
  ],
  "bytecode": "0x608060405234801561001057600080fd5b506103d7806100206000396000f3fe608060405234801561001057600080fd5b50600436106100415760003560e01c8063181567ed146100465780634615e03614610077578063866c6f1514610093575b600080fd5b610060600480360381019061005b91906102cd565b6100c4565b60405161006e92919061031c565b60405180910390f35b610091600480360381019061008c9190610345565b61015e565b005b6100ad60048036038101906100a891906102cd565b6101f3565b6040516100bb92919061031c565b60405180910390f35b60008060008060008673ffffffffffffffffffffffffffffffffffffffff1673ffffffffffffffffffffffffffffffffffffffff168152602001908152602001600020848154811061011957610118610372565b5b90600052602060002090600202016040518060400160405290816000820154815260200160018201548152505090508060000151816020015192509250509250929050565b6000803373ffffffffffffffffffffffffffffffffffffffff1673ffffffffffffffffffffffffffffffffffffffff16815260200190815260200160002060405180604001604052808381526020014281525090806001815401808255809150506001900390600052602060002090600202016000909190919091506000820151816000015560208201518160010155505050565b6000602052816000526040600020818154811061020f57600080fd5b9060005260206000209060020201600091509150508060000154908060010154905082565b600080fd5b600073ffffffffffffffffffffffffffffffffffffffff82169050919050565b600061026482610239565b9050919050565b61027481610259565b811461027f57600080fd5b50565b6000813590506102918161026b565b92915050565b6000819050919050565b6102aa81610297565b81146102b557600080fd5b50565b6000813590506102c7816102a1565b92915050565b600080604083850312156102e4576102e3610234565b5b60006102f285828601610282565b9250506020610303858286016102b8565b9150509250929050565b61031681610297565b82525050565b6000604082019050610331600083018561030d565b61033e602083018461030d565b9392505050565b60006020828403121561035b5761035a610234565b5b6000610369848285016102b8565b91505092915050565b7f4e487b7100000000000000000000000000000000000000000000000000000000600052603260045260246000fdfea2646970667358221220f58afb59276fffe65dbae19b7d7d83db34907547bbd8d5aef5fda163b260ba4164736f6c63430008110033",
  "immutableReferences": {},
  "source": "// SPDX-License-Identifier: MIT\npragma solidity ^0.8.17;\n\ncontract EnergyLogger {\n    struct Reading {\n        uint amount; // in kWh\n        uint timestamp;\n    }\n\n    mapping(address => Reading[]) public consumptionLogs;\n\n    function logConsumption(uint _amount) external {\n        consumptionLogs[msg.sender].push(Reading(_amount, block.timestamp));\n    }\n\n    function getConsumptionLog(address _user, uint _index) external view returns (uint, uint) {\n        Reading memory r = consumptionLogs[_user][_index];\n        return (r.amount, r.timestamp);\n    }\n}\n",
  "sourcePath": "/Users/sluzhba/Downloads/power-dapp/contracts/EnergyLogger.sol",
  "compiler": {
    "name": "solc",
    "version": "0.8.17+commit.8df45f5f.Emscripten.clang"
  },
  "schemaVersion": "3.4.16",
  "updatedAt": "2025-04-28T16:37:05.171Z",
  "networkType": "ethereum",
  "devdoc": {
    "kind": "dev",
    "methods": {},
    "version": 1
  },
  "userdoc": {
    "kind": "user",
    "methods": {},
    "version": 1
  }
}