{
  "contractName": "EnergyTradeLedger",
  "abi": [
    {
      "inputs": [
        {
          "internalType": "uint256",
          "name": "",
          "type": "uint256"
        }
      ],
      "name": "trades",
      "outputs": [
        {
          "internalType": "address",
          "name": "seller",
          "type": "address"
        },
        {
          "internalType": "address",
          "name": "buyer",
          "type": "address"
        },
        {
          "internalType": "uint256",
          "name": "energyAmount",
          "type": "uint256"
        },
        {
          "internalType": "uint256",
          "name": "timestamp",
          "type": "uint256"
        }
      ],
      "stateMutability": "view",
      "type": "function",
      "constant": true
    },
    {
      "inputs": [
        {
          "internalType": "address",
          "name": "_seller",
          "type": "address"
        },
        {
          "internalType": "address",
          "name": "_buyer",
          "type": "address"
        },
        {
          "internalType": "uint256",
          "name": "_energyAmount",
          "type": "uint256"
        }
      ],
      "name": "recordTrade",
      "outputs": [],
      "stateMutability": "nonpayable",
      "type": "function"
    },
    {
      "inputs": [
        {
          "internalType": "uint256",
          "name": "index",
          "type": "uint256"
        }
      ],
      "name": "getTrade",
      "outputs": [
        {
          "internalType": "address",
          "name": "",
          "type": "address"
        },
        {
          "internalType": "address",
          "name": "",
          "type": "address"
        },
        {
          "internalType": "uint256",
          "name": "",
          "type": "uint256"
        },
        {
          "internalType": "uint256",
          "name": "",
          "type": "uint256"
        }
      ],
      "stateMutability": "view",
      "type": "function",
      "constant": true
    }
  ],
  "bytecode": "0x608060405234801561001057600080fd5b50610564806100206000396000f3fe608060405234801561001057600080fd5b50600436106100415760003560e01c80631e6c598e146100465780632db25e05146100795780635786ed07146100ac575b600080fd5b610060600480360381019061005b91906103be565b6100c8565b604051610070949392919061043b565b60405180910390f35b610093600480360381019061008e91906103be565b610148565b6040516100a3949392919061043b565b60405180910390f35b6100c660048036038101906100c191906104ac565b610262565b005b600081815481106100d857600080fd5b90600052602060002090600402016000915090508060000160009054906101000a900473ffffffffffffffffffffffffffffffffffffffff16908060010160009054906101000a900473ffffffffffffffffffffffffffffffffffffffff16908060020154908060030154905084565b6000806000806000808681548110610163576101626104ff565b5b90600052602060002090600402016040518060800160405290816000820160009054906101000a900473ffffffffffffffffffffffffffffffffffffffff1673ffffffffffffffffffffffffffffffffffffffff1673ffffffffffffffffffffffffffffffffffffffff1681526020016001820160009054906101000a900473ffffffffffffffffffffffffffffffffffffffff1673ffffffffffffffffffffffffffffffffffffffff1673ffffffffffffffffffffffffffffffffffffffff16815260200160028201548152602001600382015481525050905080600001518160200151826040015183606001519450945094509450509193509193565b600060405180608001604052808573ffffffffffffffffffffffffffffffffffffffff1681526020018473ffffffffffffffffffffffffffffffffffffffff16815260200183815260200142815250908060018154018082558091505060019003906000526020600020906004020160009091909190915060008201518160000160006101000a81548173ffffffffffffffffffffffffffffffffffffffff021916908373ffffffffffffffffffffffffffffffffffffffff16021790555060208201518160010160006101000a81548173ffffffffffffffffffffffffffffffffffffffff021916908373ffffffffffffffffffffffffffffffffffffffff16021790555060408201518160020155606082015181600301555050505050565b600080fd5b6000819050919050565b61039b81610388565b81146103a657600080fd5b50565b6000813590506103b881610392565b92915050565b6000602082840312156103d4576103d3610383565b5b60006103e2848285016103a9565b91505092915050565b600073ffffffffffffffffffffffffffffffffffffffff82169050919050565b6000610416826103eb565b9050919050565b6104268161040b565b82525050565b61043581610388565b82525050565b6000608082019050610450600083018761041d565b61045d602083018661041d565b61046a604083018561042c565b610477606083018461042c565b95945050505050565b6104898161040b565b811461049457600080fd5b50565b6000813590506104a681610480565b92915050565b6000806000606084860312156104c5576104c4610383565b5b60006104d386828701610497565b93505060206104e486828701610497565b92505060406104f5868287016103a9565b9150509250925092565b7f4e487b7100000000000000000000000000000000000000000000000000000000600052603260045260246000fdfea264697066735822122004aec7d77a6430132040a48d797dcdfebf6ba37a06d115f0e021ad93489da39c64736f6c63430008110033",
  "immutableReferences": {},
  "source": "// SPDX-License-Identifier: MIT\npragma solidity ^0.8.17;\n\ncontract EnergyTradeLedger {\n    struct Trade {\n        address seller;\n        address buyer;\n        uint energyAmount; // in kWh\n        uint timestamp;\n    }\n\n    Trade[] public trades;\n\n    function recordTrade(address _seller, address _buyer, uint _energyAmount) external {\n        trades.push(Trade(_seller, _buyer, _energyAmount, block.timestamp));\n    }\n\n    function getTrade(uint index) external view returns (address, address, uint, uint) {\n        Trade memory t = trades[index];\n        return (t.seller, t.buyer, t.energyAmount, t.timestamp);\n    }\n}\n",
  "sourcePath": "/Users/sluzhba/Downloads/power-dapp/contracts/EnergyTrader.sol",
  "compiler": {
    "name": "solc",
    "version": "0.8.17+commit.8df45f5f.Emscripten.clang"
  },
  "schemaVersion": "3.4.16",
  "updatedAt": "2025-04-28T16:37:05.172Z",
  "networkType": "ethereum",
  "devdoc": {
    "kind": "dev",
    "methods": {},
    "version": 1
  },
  "userdoc": {
    "kind": "user",
    "methods": {},
    "version": 1
  }
}