{
  "contractName": "RenewableCertificate",
  "abi": [
    {
      "inputs": [],
      "name": "ENERGY_THRESHOLD",
      "outputs": [
        {
          "internalType": "uint256",
          "name": "",
          "type": "uint256"
        }
      ],
      "stateMutability": "view",
      "type": "function",
      "constant": true
    },
    {
      "inputs": [
        {
          "internalType": "address",
          "name": "",
          "type": "address"
        }
      ],
      "name": "certificates",
      "outputs": [
        {
          "internalType": "uint256",
          "name": "",
          "type": "uint256"
        }
      ],
      "stateMutability": "view",
      "type": "function",
      "constant": true
    },
    {
      "inputs": [
        {
          "internalType": "address",
          "name": "_generator",
          "type": "address"
        },
        {
          "internalType": "uint256",
          "name": "_energyProduced",
          "type": "uint256"
        }
      ],
      "name": "mintCertificate",
      "outputs": [],
      "stateMutability": "nonpayable",
      "type": "function"
    },
    {
      "inputs": [
        {
          "internalType": "address",
          "name": "_owner",
          "type": "address"
        }
      ],
      "name": "getCertificates",
      "outputs": [
        {
          "internalType": "uint256",
          "name": "",
          "type": "uint256"
        }
      ],
      "stateMutability": "view",
      "type": "function",
      "constant": true
    }
  ],
  "bytecode": "0x608060405234801561001057600080fd5b506103e3806100206000396000f3fe608060405234801561001057600080fd5b506004361061004b5760003560e01c806216e52614610050578063a5015dd114610080578063ad0340b81461009c578063f1c49c62146100ba575b600080fd5b61006a6004803603810190610065919061021d565b6100ea565b6040516100779190610263565b60405180910390f35b61009a600480360381019061009591906102aa565b610102565b005b6100a461016d565b6040516100b19190610263565b60405180910390f35b6100d460048036038101906100cf919061021d565b610172565b6040516100e19190610263565b60405180910390f35b60006020528060005260406000206000915090505481565b60006064826101119190610348565b9050806000808573ffffffffffffffffffffffffffffffffffffffff1673ffffffffffffffffffffffffffffffffffffffff16815260200190815260200160002060008282546101619190610379565b92505081905550505050565b606481565b60008060008373ffffffffffffffffffffffffffffffffffffffff1673ffffffffffffffffffffffffffffffffffffffff168152602001908152602001600020549050919050565b600080fd5b600073ffffffffffffffffffffffffffffffffffffffff82169050919050565b60006101ea826101bf565b9050919050565b6101fa816101df565b811461020557600080fd5b50565b600081359050610217816101f1565b92915050565b600060208284031215610233576102326101ba565b5b600061024184828501610208565b91505092915050565b6000819050919050565b61025d8161024a565b82525050565b60006020820190506102786000830184610254565b92915050565b6102878161024a565b811461029257600080fd5b50565b6000813590506102a48161027e565b92915050565b600080604083850312156102c1576102c06101ba565b5b60006102cf85828601610208565b92505060206102e085828601610295565b9150509250929050565b7f4e487b7100000000000000000000000000000000000000000000000000000000600052601260045260246000fd5b7f4e487b7100000000000000000000000000000000000000000000000000000000600052601160045260246000fd5b60006103538261024a565b915061035e8361024a565b92508261036e5761036d6102ea565b5b828204905092915050565b60006103848261024a565b915061038f8361024a565b92508282019050808211156103a7576103a6610319565b5b9291505056fea26469706673582212208f1f317512d3b87c43fb8be73cf7ee4d76212c1930a4b47967a472e077663a5564736f6c63430008110033",
  "immutableReferences": {},
  "source": "// SPDX-License-Identifier: MIT\npragma solidity ^0.8.17;\n\ncontract RenewableCertificate {\n    uint public constant ENERGY_THRESHOLD = 100; // 100 kWh = 1 certificate\n\n    mapping(address => uint) public certificates;\n\n    function mintCertificate(address _generator, uint _energyProduced) external {\n        uint certs = _energyProduced / ENERGY_THRESHOLD;\n        certificates[_generator] += certs;\n    }\n\n    function getCertificates(address _owner) external view returns (uint) {\n        return certificates[_owner];\n    }\n}\n",
  "sourcePath": "/Users/sluzhba/Downloads/power-dapp/contracts/Certificate.sol",
  "compiler": {
    "name": "solc",
    "version": "0.8.17+commit.8df45f5f.Emscripten.clang"
  },
  "schemaVersion": "3.4.16",
  "updatedAt": "2025-04-28T16:37:05.169Z",
  "networkType": "ethereum",
  "devdoc": {
    "kind": "dev",
    "methods": {},
    "version": 1
  },
  "userdoc": {
    "kind": "user",
    "methods": {},
    "version": 1
  }
}