{
  "contractName": "RenewableCertificate",
  "abi": [
    {
      "inputs": [],
      "name": "ENERGY_THRESHOLD",
      "outputs": [
        {
          "internalType": "uint256",
          "name": "",
          "type": "uint256"
        }
      ],
      "stateMutability": "view",
      "type": "function",
      "constant": true
    },
    {
      "inputs": [
        {
          "internalType": "address",
          "name": "",
          "type": "address"
        }
      ],
      "name": "certificates",
      "outputs": [
        {
          "internalType": "uint256",
          "name": "",
          "type": "uint256"
        }
      ],
      "stateMutability": "view",
      "type": "function",
      "constant": true
    },
    {
      "inputs": [
        {
          "internalType": "address",
          "name": "_generator",
          "type": "address"
        },
        {
          "internalType": "uint256",
          "name": "_energyProduced",
          "type": "uint256"
        }
      ],
      "name": "mintCertificate",
      "outputs": [],
      "stateMutability": "nonpayable",
      "type": "function"
    },
    {
      "inputs": [
        {
          "internalType": "address",
          "name": "_owner",
          "type": "address"
        }
      ],
      "name": "getCertificates",
      "outputs": [
        {
          "internalType": "uint256",
          "name": "",
          "type": "uint256"
        }
      ],
      "stateMutability": "view",
      "type": "function",
      "constant": true
    }
  ],
  "bytecode": "0x608060405234801561000f575f80fd5b506103c18061001d5f395ff3fe608060405234801561000f575f80fd5b5060043610610049575f3560e01c806216e5261461004d578063a5015dd11461007d578063ad0340b814610099578063f1c49c62146100b7575b5f80fd5b6100676004803603810190610062919061020a565b6100e7565b604051610074919061024d565b60405180910390f35b61009760048036038101906100929190610290565b6100fb565b005b6100a1610162565b6040516100ae919061024d565b60405180910390f35b6100d160048036038101906100cc919061020a565b610167565b6040516100de919061024d565b60405180910390f35b5f602052805f5260405f205f915090505481565b5f6064826101099190610328565b9050805f808573ffffffffffffffffffffffffffffffffffffffff1673ffffffffffffffffffffffffffffffffffffffff1681526020019081526020015f205f8282546101569190610358565b92505081905550505050565b606481565b5f805f8373ffffffffffffffffffffffffffffffffffffffff1673ffffffffffffffffffffffffffffffffffffffff1681526020019081526020015f20549050919050565b5f80fd5b5f73ffffffffffffffffffffffffffffffffffffffff82169050919050565b5f6101d9826101b0565b9050919050565b6101e9816101cf565b81146101f3575f80fd5b50565b5f81359050610204816101e0565b92915050565b5f6020828403121561021f5761021e6101ac565b5b5f61022c848285016101f6565b91505092915050565b5f819050919050565b61024781610235565b82525050565b5f6020820190506102605f83018461023e565b92915050565b61026f81610235565b8114610279575f80fd5b50565b5f8135905061028a81610266565b92915050565b5f80604083850312156102a6576102a56101ac565b5b5f6102b3858286016101f6565b92505060206102c48582860161027c565b9150509250929050565b7f4e487b71000000000000000000000000000000000000000000000000000000005f52601260045260245ffd5b7f4e487b71000000000000000000000000000000000000000000000000000000005f52601160045260245ffd5b5f61033282610235565b915061033d83610235565b92508261034d5761034c6102ce565b5b828204905092915050565b5f61036282610235565b915061036d83610235565b9250828201905080821115610385576103846102fb565b5b9291505056fea2646970667358221220ff53e09d6546bc47b010bda73d25fbb2cabcf7ccf519a16354320e48152b668d64736f6c63430008150033",
  "immutableReferences": {},
  "source": "// SPDX-License-Identifier: MIT\npragma solidity ^0.8.0;\n\ncontract RenewableCertificate {\n    uint public constant ENERGY_THRESHOLD = 100; // 100 kWh = 1 certificate\n\n    mapping(address => uint) public certificates;\n\n    function mintCertificate(address _generator, uint _energyProduced) external {\n        uint certs = _energyProduced / ENERGY_THRESHOLD;\n        certificates[_generator] += certs;\n    }\n\n    function getCertificates(address _owner) external view returns (uint) {\n        return certificates[_owner];\n    }\n}\n",
  "sourcePath": "/Users/kiranrajpurohit/Downloads/bclab/please-work/contracts/Certificate.sol",
  "compiler": {
    "name": "solc",
    "version": "0.8.21+commit.d9974bed.Emscripten.clang"
  },
  "schemaVersion": "3.4.16",
  "updatedAt": "2025-04-28T13:40:38.962Z",
  "networkType": "ethereum",
  "devdoc": {
    "kind": "dev",
    "methods": {},
    "version": 1
  },
  "userdoc": {
    "kind": "user",
    "methods": {},
    "version": 1
  }
}